{
	"task6/binarySearch.sol": {
		"binarySearch": {
			"abi": [
				{
					"inputs": [
						{
							"internalType": "uint256[]",
							"name": "a",
							"type": "uint256[]"
						},
						{
							"internalType": "uint256",
							"name": "target",
							"type": "uint256"
						}
					],
					"name": "arraySearch",
					"outputs": [
						{
							"internalType": "int256",
							"name": "",
							"type": "int256"
						}
					],
					"stateMutability": "pure",
					"type": "function"
				},
				{
					"inputs": [
						{
							"internalType": "uint256[]",
							"name": "sortedArray",
							"type": "uint256[]"
						},
						{
							"internalType": "uint256",
							"name": "target",
							"type": "uint256"
						}
					],
					"name": "search",
					"outputs": [
						{
							"internalType": "int256",
							"name": "",
							"type": "int256"
						}
					],
					"stateMutability": "pure",
					"type": "function"
				}
			],
			"devdoc": {
				"kind": "dev",
				"methods": {},
				"version": 1
			},
			"evm": {
				"assembly": "    /* \"task6/binarySearch.sol\":74:1044  contract binarySearch{... */\n  mstore(0x40, 0x80)\n  callvalue\n  dup1\n  iszero\n  tag_1\n  jumpi\n  0x00\n  dup1\n  revert\ntag_1:\n  pop\n  dataSize(sub_0)\n  dup1\n  dataOffset(sub_0)\n  0x00\n  codecopy\n  0x00\n  return\nstop\n\nsub_0: assembly {\n        /* \"task6/binarySearch.sol\":74:1044  contract binarySearch{... */\n      mstore(0x40, 0x80)\n      callvalue\n      dup1\n      iszero\n      tag_1\n      jumpi\n      0x00\n      dup1\n      revert\n    tag_1:\n      pop\n      jumpi(tag_2, lt(calldatasize, 0x04))\n      shr(0xe0, calldataload(0x00))\n      dup1\n      0x18765d08\n      eq\n      tag_3\n      jumpi\n      dup1\n      0xd43fc471\n      eq\n      tag_4\n      jumpi\n    tag_2:\n      0x00\n      dup1\n      revert\n        /* \"task6/binarySearch.sol\":179:479  function arraySearch(uint[] memory a, uint target) ... */\n    tag_3:\n      tag_5\n      0x04\n      dup1\n      calldatasize\n      sub\n      dup2\n      add\n      swap1\n      tag_6\n      swap2\n      swap1\n      tag_7\n      jump\t// in\n    tag_6:\n      tag_8\n      jump\t// in\n    tag_5:\n      mload(0x40)\n      tag_9\n      swap2\n      swap1\n      tag_10\n      jump\t// in\n    tag_9:\n      mload(0x40)\n      dup1\n      swap2\n      sub\n      swap1\n      return\n        /* \"task6/binarySearch.sol\":485:1041  function search(uint[] memory sortedArray, uint target) ... */\n    tag_4:\n      tag_11\n      0x04\n      dup1\n      calldatasize\n      sub\n      dup2\n      add\n      swap1\n      tag_12\n      swap2\n      swap1\n      tag_7\n      jump\t// in\n    tag_12:\n      tag_13\n      jump\t// in\n    tag_11:\n      mload(0x40)\n      tag_14\n      swap2\n      swap1\n      tag_10\n      jump\t// in\n    tag_14:\n      mload(0x40)\n      dup1\n      swap2\n      sub\n      swap1\n      return\n        /* \"task6/binarySearch.sol\":179:479  function arraySearch(uint[] memory a, uint target) ... */\n    tag_8:\n        /* \"task6/binarySearch.sol\":281:284  int */\n      0x00\n        /* \"task6/binarySearch.sol\":303:311  uint len */\n      dup1\n        /* \"task6/binarySearch.sol\":314:315  a */\n      dup4\n        /* \"task6/binarySearch.sol\":314:322  a.length */\n      mload\n        /* \"task6/binarySearch.sol\":303:322  uint len = a.length */\n      swap1\n      pop\n        /* \"task6/binarySearch.sol\":338:344  uint i */\n      0x00\n        /* \"task6/binarySearch.sol\":333:452  for (uint i=0;i<len;i++){... */\n    tag_16:\n        /* \"task6/binarySearch.sol\":349:352  len */\n      dup2\n        /* \"task6/binarySearch.sol\":347:348  i */\n      dup2\n        /* \"task6/binarySearch.sol\":347:352  i<len */\n      lt\n        /* \"task6/binarySearch.sol\":333:452  for (uint i=0;i<len;i++){... */\n      iszero\n      tag_17\n      jumpi\n        /* \"task6/binarySearch.sol\":383:389  target */\n      dup4\n        /* \"task6/binarySearch.sol\":375:376  a */\n      dup6\n        /* \"task6/binarySearch.sol\":377:378  i */\n      dup3\n        /* \"task6/binarySearch.sol\":375:379  a[i] */\n      dup2\n      mload\n      dup2\n      lt\n      tag_19\n      jumpi\n      tag_20\n      tag_21\n      jump\t// in\n    tag_20:\n    tag_19:\n      0x20\n      mul\n      0x20\n      add\n      add\n      mload\n        /* \"task6/binarySearch.sol\":375:389  a[i] == target */\n      sub\n        /* \"task6/binarySearch.sol\":372:441  if(a[i] == target){... */\n      tag_22\n      jumpi\n        /* \"task6/binarySearch.sol\":420:421  a */\n      dup5\n        /* \"task6/binarySearch.sol\":422:423  i */\n      dup2\n        /* \"task6/binarySearch.sol\":420:424  a[i] */\n      dup2\n      mload\n      dup2\n      lt\n      tag_23\n      jumpi\n      tag_24\n      tag_21\n      jump\t// in\n    tag_24:\n    tag_23:\n      0x20\n      mul\n      0x20\n      add\n      add\n      mload\n        /* \"task6/binarySearch.sol\":409:425  return int(a[i]) */\n      swap3\n      pop\n      pop\n      pop\n      jump(tag_15)\n        /* \"task6/binarySearch.sol\":372:441  if(a[i] == target){... */\n    tag_22:\n        /* \"task6/binarySearch.sol\":353:356  i++ */\n      dup1\n      dup1\n      0x01\n      add\n      swap2\n      pop\n      pop\n        /* \"task6/binarySearch.sol\":333:452  for (uint i=0;i<len;i++){... */\n      jump(tag_16)\n    tag_17:\n      pop\n        /* \"task6/binarySearch.sol\":469:471  -1 */\n      0xffffffffffffffffffffffffffffffffffffffffffffffffffffffffffffffff\n        /* \"task6/binarySearch.sol\":462:471  return -1 */\n      swap2\n      pop\n      pop\n        /* \"task6/binarySearch.sol\":179:479  function arraySearch(uint[] memory a, uint target) ... */\n    tag_15:\n      swap3\n      swap2\n      pop\n      pop\n      jump\t// out\n        /* \"task6/binarySearch.sol\":485:1041  function search(uint[] memory sortedArray, uint target) ... */\n    tag_13:\n        /* \"task6/binarySearch.sol\":592:595  int */\n      0x00\n        /* \"task6/binarySearch.sol\":614:622  uint low */\n      dup1\n        /* \"task6/binarySearch.sol\":625:626  0 */\n      0x00\n        /* \"task6/binarySearch.sol\":614:626  uint low = 0 */\n      swap1\n      pop\n        /* \"task6/binarySearch.sol\":637:646  uint high */\n      0x00\n        /* \"task6/binarySearch.sol\":649:660  sortedArray */\n      dup5\n        /* \"task6/binarySearch.sol\":649:667  sortedArray.length */\n      mload\n        /* \"task6/binarySearch.sol\":637:667  uint high = sortedArray.length */\n      swap1\n      pop\n        /* \"task6/binarySearch.sol\":688:993  while (low < high) {... */\n    tag_26:\n        /* \"task6/binarySearch.sol\":701:705  high */\n      dup1\n        /* \"task6/binarySearch.sol\":695:698  low */\n      dup3\n        /* \"task6/binarySearch.sol\":695:705  low < high */\n      lt\n        /* \"task6/binarySearch.sol\":688:993  while (low < high) {... */\n      iszero\n      tag_27\n      jumpi\n        /* \"task6/binarySearch.sol\":722:730  uint mid */\n      0x00\n        /* \"task6/binarySearch.sol\":748:749  2 */\n      0x02\n        /* \"task6/binarySearch.sol\":740:744  high */\n      dup3\n        /* \"task6/binarySearch.sol\":734:737  low */\n      dup5\n        /* \"task6/binarySearch.sol\":734:744  low + high */\n      tag_28\n      swap2\n      swap1\n      tag_29\n      jump\t// in\n    tag_28:\n        /* \"task6/binarySearch.sol\":733:749  (low + high) / 2 */\n      tag_30\n      swap2\n      swap1\n      tag_31\n      jump\t// in\n    tag_30:\n        /* \"task6/binarySearch.sol\":722:749  uint mid = (low + high) / 2 */\n      swap1\n      pop\n        /* \"task6/binarySearch.sol\":788:794  target */\n      dup5\n        /* \"task6/binarySearch.sol\":768:779  sortedArray */\n      dup7\n        /* \"task6/binarySearch.sol\":780:783  mid */\n      dup3\n        /* \"task6/binarySearch.sol\":768:784  sortedArray[mid] */\n      dup2\n      mload\n      dup2\n      lt\n      tag_32\n      jumpi\n      tag_33\n      tag_21\n      jump\t// in\n    tag_33:\n    tag_32:\n      0x20\n      mul\n      0x20\n      add\n      add\n      mload\n        /* \"task6/binarySearch.sol\":768:794  sortedArray[mid] == target */\n      sub\n        /* \"task6/binarySearch.sol\":764:982  if (sortedArray[mid] == target) {... */\n      tag_34\n      jumpi\n        /* \"task6/binarySearch.sol\":826:829  mid */\n      dup1\n        /* \"task6/binarySearch.sol\":815:830  return int(mid) */\n      swap4\n      pop\n      pop\n      pop\n      pop\n      jump(tag_25)\n        /* \"task6/binarySearch.sol\":764:982  if (sortedArray[mid] == target) {... */\n    tag_34:\n        /* \"task6/binarySearch.sol\":875:881  target */\n      dup5\n        /* \"task6/binarySearch.sol\":856:867  sortedArray */\n      dup7\n        /* \"task6/binarySearch.sol\":868:871  mid */\n      dup3\n        /* \"task6/binarySearch.sol\":856:872  sortedArray[mid] */\n      dup2\n      mload\n      dup2\n      lt\n      tag_36\n      jumpi\n      tag_37\n      tag_21\n      jump\t// in\n    tag_37:\n    tag_36:\n      0x20\n      mul\n      0x20\n      add\n      add\n      mload\n        /* \"task6/binarySearch.sol\":856:881  sortedArray[mid] < target */\n      lt\n        /* \"task6/binarySearch.sol\":852:982  if (sortedArray[mid] < target) {... */\n      iszero\n      tag_38\n      jumpi\n        /* \"task6/binarySearch.sol\":914:915  1 */\n      0x01\n        /* \"task6/binarySearch.sol\":908:911  mid */\n      dup2\n        /* \"task6/binarySearch.sol\":908:915  mid + 1 */\n      tag_39\n      swap2\n      swap1\n      tag_29\n      jump\t// in\n    tag_39:\n        /* \"task6/binarySearch.sol\":902:915  low = mid + 1 */\n      swap3\n      pop\n        /* \"task6/binarySearch.sol\":852:982  if (sortedArray[mid] < target) {... */\n      jump(tag_40)\n    tag_38:\n        /* \"task6/binarySearch.sol\":963:966  mid */\n      dup1\n        /* \"task6/binarySearch.sol\":956:966  high = mid */\n      swap2\n      pop\n        /* \"task6/binarySearch.sol\":852:982  if (sortedArray[mid] < target) {... */\n    tag_40:\n        /* \"task6/binarySearch.sol\":707:993  {... */\n      pop\n        /* \"task6/binarySearch.sol\":688:993  while (low < high) {... */\n      jump(tag_26)\n    tag_27:\n        /* \"task6/binarySearch.sol\":1010:1012  -1 */\n      0xffffffffffffffffffffffffffffffffffffffffffffffffffffffffffffffff\n        /* \"task6/binarySearch.sol\":1003:1012  return -1 */\n      swap3\n      pop\n      pop\n      pop\n        /* \"task6/binarySearch.sol\":485:1041  function search(uint[] memory sortedArray, uint target) ... */\n    tag_25:\n      swap3\n      swap2\n      pop\n      pop\n      jump\t// out\n        /* \"#utility.yul\":7:82   */\n    tag_41:\n        /* \"#utility.yul\":40:46   */\n      0x00\n        /* \"#utility.yul\":73:75   */\n      0x40\n        /* \"#utility.yul\":67:76   */\n      mload\n        /* \"#utility.yul\":57:76   */\n      swap1\n      pop\n        /* \"#utility.yul\":7:82   */\n      swap1\n      jump\t// out\n        /* \"#utility.yul\":88:205   */\n    tag_42:\n        /* \"#utility.yul\":197:198   */\n      0x00\n        /* \"#utility.yul\":194:195   */\n      dup1\n        /* \"#utility.yul\":187:199   */\n      revert\n        /* \"#utility.yul\":211:328   */\n    tag_43:\n        /* \"#utility.yul\":320:321   */\n      0x00\n        /* \"#utility.yul\":317:318   */\n      dup1\n        /* \"#utility.yul\":310:322   */\n      revert\n        /* \"#utility.yul\":334:451   */\n    tag_44:\n        /* \"#utility.yul\":443:444   */\n      0x00\n        /* \"#utility.yul\":440:441   */\n      dup1\n        /* \"#utility.yul\":433:445   */\n      revert\n        /* \"#utility.yul\":457:559   */\n    tag_45:\n        /* \"#utility.yul\":498:504   */\n      0x00\n        /* \"#utility.yul\":549:551   */\n      0x1f\n        /* \"#utility.yul\":545:552   */\n      not\n        /* \"#utility.yul\":540:542   */\n      0x1f\n        /* \"#utility.yul\":533:538   */\n      dup4\n        /* \"#utility.yul\":529:543   */\n      add\n        /* \"#utility.yul\":525:553   */\n      and\n        /* \"#utility.yul\":515:553   */\n      swap1\n      pop\n        /* \"#utility.yul\":457:559   */\n      swap2\n      swap1\n      pop\n      jump\t// out\n        /* \"#utility.yul\":565:745   */\n    tag_46:\n        /* \"#utility.yul\":613:690   */\n      0x4e487b7100000000000000000000000000000000000000000000000000000000\n        /* \"#utility.yul\":610:611   */\n      0x00\n        /* \"#utility.yul\":603:691   */\n      mstore\n        /* \"#utility.yul\":710:714   */\n      0x41\n        /* \"#utility.yul\":707:708   */\n      0x04\n        /* \"#utility.yul\":700:715   */\n      mstore\n        /* \"#utility.yul\":734:738   */\n      0x24\n        /* \"#utility.yul\":731:732   */\n      0x00\n        /* \"#utility.yul\":724:739   */\n      revert\n        /* \"#utility.yul\":751:1032   */\n    tag_47:\n        /* \"#utility.yul\":834:861   */\n      tag_68\n        /* \"#utility.yul\":856:860   */\n      dup3\n        /* \"#utility.yul\":834:861   */\n      tag_45\n      jump\t// in\n    tag_68:\n        /* \"#utility.yul\":826:832   */\n      dup2\n        /* \"#utility.yul\":822:862   */\n      add\n        /* \"#utility.yul\":964:970   */\n      dup2\n        /* \"#utility.yul\":952:962   */\n      dup2\n        /* \"#utility.yul\":949:971   */\n      lt\n        /* \"#utility.yul\":928:946   */\n      0xffffffffffffffff\n        /* \"#utility.yul\":916:926   */\n      dup3\n        /* \"#utility.yul\":913:947   */\n      gt\n        /* \"#utility.yul\":910:972   */\n      or\n        /* \"#utility.yul\":907:995   */\n      iszero\n      tag_69\n      jumpi\n        /* \"#utility.yul\":975:993   */\n      tag_70\n      tag_46\n      jump\t// in\n    tag_70:\n        /* \"#utility.yul\":907:995   */\n    tag_69:\n        /* \"#utility.yul\":1015:1025   */\n      dup1\n        /* \"#utility.yul\":1011:1013   */\n      0x40\n        /* \"#utility.yul\":1004:1026   */\n      mstore\n        /* \"#utility.yul\":794:1032   */\n      pop\n        /* \"#utility.yul\":751:1032   */\n      pop\n      pop\n      jump\t// out\n        /* \"#utility.yul\":1038:1167   */\n    tag_48:\n        /* \"#utility.yul\":1072:1078   */\n      0x00\n        /* \"#utility.yul\":1099:1119   */\n      tag_72\n      tag_41\n      jump\t// in\n    tag_72:\n        /* \"#utility.yul\":1089:1119   */\n      swap1\n      pop\n        /* \"#utility.yul\":1128:1161   */\n      tag_73\n        /* \"#utility.yul\":1156:1160   */\n      dup3\n        /* \"#utility.yul\":1148:1154   */\n      dup3\n        /* \"#utility.yul\":1128:1161   */\n      tag_47\n      jump\t// in\n    tag_73:\n        /* \"#utility.yul\":1038:1167   */\n      swap2\n      swap1\n      pop\n      jump\t// out\n        /* \"#utility.yul\":1173:1484   */\n    tag_49:\n        /* \"#utility.yul\":1250:1254   */\n      0x00\n        /* \"#utility.yul\":1340:1358   */\n      0xffffffffffffffff\n        /* \"#utility.yul\":1332:1338   */\n      dup3\n        /* \"#utility.yul\":1329:1359   */\n      gt\n        /* \"#utility.yul\":1326:1382   */\n      iszero\n      tag_75\n      jumpi\n        /* \"#utility.yul\":1362:1380   */\n      tag_76\n      tag_46\n      jump\t// in\n    tag_76:\n        /* \"#utility.yul\":1326:1382   */\n    tag_75:\n        /* \"#utility.yul\":1412:1416   */\n      0x20\n        /* \"#utility.yul\":1404:1410   */\n      dup3\n        /* \"#utility.yul\":1400:1417   */\n      mul\n        /* \"#utility.yul\":1392:1417   */\n      swap1\n      pop\n        /* \"#utility.yul\":1472:1476   */\n      0x20\n        /* \"#utility.yul\":1466:1470   */\n      dup2\n        /* \"#utility.yul\":1462:1477   */\n      add\n        /* \"#utility.yul\":1454:1477   */\n      swap1\n      pop\n        /* \"#utility.yul\":1173:1484   */\n      swap2\n      swap1\n      pop\n      jump\t// out\n        /* \"#utility.yul\":1490:1607   */\n    tag_50:\n        /* \"#utility.yul\":1599:1600   */\n      0x00\n        /* \"#utility.yul\":1596:1597   */\n      dup1\n        /* \"#utility.yul\":1589:1601   */\n      revert\n        /* \"#utility.yul\":1613:1690   */\n    tag_51:\n        /* \"#utility.yul\":1650:1657   */\n      0x00\n        /* \"#utility.yul\":1679:1684   */\n      dup2\n        /* \"#utility.yul\":1668:1684   */\n      swap1\n      pop\n        /* \"#utility.yul\":1613:1690   */\n      swap2\n      swap1\n      pop\n      jump\t// out\n        /* \"#utility.yul\":1696:1818   */\n    tag_52:\n        /* \"#utility.yul\":1769:1793   */\n      tag_80\n        /* \"#utility.yul\":1787:1792   */\n      dup2\n        /* \"#utility.yul\":1769:1793   */\n      tag_51\n      jump\t// in\n    tag_80:\n        /* \"#utility.yul\":1762:1767   */\n      dup2\n        /* \"#utility.yul\":1759:1794   */\n      eq\n        /* \"#utility.yul\":1749:1812   */\n      tag_81\n      jumpi\n        /* \"#utility.yul\":1808:1809   */\n      0x00\n        /* \"#utility.yul\":1805:1806   */\n      dup1\n        /* \"#utility.yul\":1798:1810   */\n      revert\n        /* \"#utility.yul\":1749:1812   */\n    tag_81:\n        /* \"#utility.yul\":1696:1818   */\n      pop\n      jump\t// out\n        /* \"#utility.yul\":1824:1963   */\n    tag_53:\n        /* \"#utility.yul\":1870:1875   */\n      0x00\n        /* \"#utility.yul\":1908:1914   */\n      dup2\n        /* \"#utility.yul\":1895:1915   */\n      calldataload\n        /* \"#utility.yul\":1886:1915   */\n      swap1\n      pop\n        /* \"#utility.yul\":1924:1957   */\n      tag_83\n        /* \"#utility.yul\":1951:1956   */\n      dup2\n        /* \"#utility.yul\":1924:1957   */\n      tag_52\n      jump\t// in\n    tag_83:\n        /* \"#utility.yul\":1824:1963   */\n      swap3\n      swap2\n      pop\n      pop\n      jump\t// out\n        /* \"#utility.yul\":1986:2696   */\n    tag_54:\n        /* \"#utility.yul\":2082:2087   */\n      0x00\n        /* \"#utility.yul\":2107:2188   */\n      tag_85\n        /* \"#utility.yul\":2123:2187   */\n      tag_86\n        /* \"#utility.yul\":2180:2186   */\n      dup5\n        /* \"#utility.yul\":2123:2187   */\n      tag_49\n      jump\t// in\n    tag_86:\n        /* \"#utility.yul\":2107:2188   */\n      tag_48\n      jump\t// in\n    tag_85:\n        /* \"#utility.yul\":2098:2188   */\n      swap1\n      pop\n        /* \"#utility.yul\":2208:2213   */\n      dup1\n        /* \"#utility.yul\":2237:2243   */\n      dup4\n        /* \"#utility.yul\":2230:2235   */\n      dup3\n        /* \"#utility.yul\":2223:2244   */\n      mstore\n        /* \"#utility.yul\":2271:2275   */\n      0x20\n        /* \"#utility.yul\":2264:2269   */\n      dup3\n        /* \"#utility.yul\":2260:2276   */\n      add\n        /* \"#utility.yul\":2253:2276   */\n      swap1\n      pop\n        /* \"#utility.yul\":2324:2328   */\n      0x20\n        /* \"#utility.yul\":2316:2322   */\n      dup5\n        /* \"#utility.yul\":2312:2329   */\n      mul\n        /* \"#utility.yul\":2304:2310   */\n      dup4\n        /* \"#utility.yul\":2300:2330   */\n      add\n        /* \"#utility.yul\":2353:2356   */\n      dup6\n        /* \"#utility.yul\":2345:2351   */\n      dup2\n        /* \"#utility.yul\":2342:2357   */\n      gt\n        /* \"#utility.yul\":2339:2461   */\n      iszero\n      tag_87\n      jumpi\n        /* \"#utility.yul\":2372:2451   */\n      tag_88\n      tag_50\n      jump\t// in\n    tag_88:\n        /* \"#utility.yul\":2339:2461   */\n    tag_87:\n        /* \"#utility.yul\":2487:2493   */\n      dup4\n        /* \"#utility.yul\":2470:2690   */\n    tag_89:\n        /* \"#utility.yul\":2504:2510   */\n      dup2\n        /* \"#utility.yul\":2499:2502   */\n      dup2\n        /* \"#utility.yul\":2496:2511   */\n      lt\n        /* \"#utility.yul\":2470:2690   */\n      iszero\n      tag_91\n      jumpi\n        /* \"#utility.yul\":2579:2582   */\n      dup1\n        /* \"#utility.yul\":2608:2645   */\n      tag_92\n        /* \"#utility.yul\":2641:2644   */\n      dup9\n        /* \"#utility.yul\":2629:2639   */\n      dup3\n        /* \"#utility.yul\":2608:2645   */\n      tag_53\n      jump\t// in\n    tag_92:\n        /* \"#utility.yul\":2603:2606   */\n      dup5\n        /* \"#utility.yul\":2596:2646   */\n      mstore\n        /* \"#utility.yul\":2675:2679   */\n      0x20\n        /* \"#utility.yul\":2670:2673   */\n      dup5\n        /* \"#utility.yul\":2666:2680   */\n      add\n        /* \"#utility.yul\":2659:2680   */\n      swap4\n      pop\n        /* \"#utility.yul\":2546:2690   */\n      pop\n        /* \"#utility.yul\":2530:2534   */\n      0x20\n        /* \"#utility.yul\":2525:2528   */\n      dup2\n        /* \"#utility.yul\":2521:2535   */\n      add\n        /* \"#utility.yul\":2514:2535   */\n      swap1\n      pop\n        /* \"#utility.yul\":2470:2690   */\n      jump(tag_89)\n    tag_91:\n        /* \"#utility.yul\":2474:2495   */\n      pop\n        /* \"#utility.yul\":2088:2696   */\n      pop\n      pop\n        /* \"#utility.yul\":1986:2696   */\n      swap4\n      swap3\n      pop\n      pop\n      pop\n      jump\t// out\n        /* \"#utility.yul\":2719:3089   */\n    tag_55:\n        /* \"#utility.yul\":2790:2795   */\n      0x00\n        /* \"#utility.yul\":2839:2842   */\n      dup3\n        /* \"#utility.yul\":2832:2836   */\n      0x1f\n        /* \"#utility.yul\":2824:2830   */\n      dup4\n        /* \"#utility.yul\":2820:2837   */\n      add\n        /* \"#utility.yul\":2816:2843   */\n      slt\n        /* \"#utility.yul\":2806:2928   */\n      tag_94\n      jumpi\n        /* \"#utility.yul\":2847:2926   */\n      tag_95\n      tag_44\n      jump\t// in\n    tag_95:\n        /* \"#utility.yul\":2806:2928   */\n    tag_94:\n        /* \"#utility.yul\":2964:2970   */\n      dup2\n        /* \"#utility.yul\":2951:2971   */\n      calldataload\n        /* \"#utility.yul\":2989:3083   */\n      tag_96\n        /* \"#utility.yul\":3079:3082   */\n      dup5\n        /* \"#utility.yul\":3071:3077   */\n      dup3\n        /* \"#utility.yul\":3064:3068   */\n      0x20\n        /* \"#utility.yul\":3056:3062   */\n      dup7\n        /* \"#utility.yul\":3052:3069   */\n      add\n        /* \"#utility.yul\":2989:3083   */\n      tag_54\n      jump\t// in\n    tag_96:\n        /* \"#utility.yul\":2980:3083   */\n      swap2\n      pop\n        /* \"#utility.yul\":2796:3089   */\n      pop\n        /* \"#utility.yul\":2719:3089   */\n      swap3\n      swap2\n      pop\n      pop\n      jump\t// out\n        /* \"#utility.yul\":3095:3779   */\n    tag_7:\n        /* \"#utility.yul\":3188:3194   */\n      0x00\n        /* \"#utility.yul\":3196:3202   */\n      dup1\n        /* \"#utility.yul\":3245:3247   */\n      0x40\n        /* \"#utility.yul\":3233:3242   */\n      dup4\n        /* \"#utility.yul\":3224:3231   */\n      dup6\n        /* \"#utility.yul\":3220:3243   */\n      sub\n        /* \"#utility.yul\":3216:3248   */\n      slt\n        /* \"#utility.yul\":3213:3332   */\n      iszero\n      tag_98\n      jumpi\n        /* \"#utility.yul\":3251:3330   */\n      tag_99\n      tag_42\n      jump\t// in\n    tag_99:\n        /* \"#utility.yul\":3213:3332   */\n    tag_98:\n        /* \"#utility.yul\":3399:3400   */\n      0x00\n        /* \"#utility.yul\":3388:3397   */\n      dup4\n        /* \"#utility.yul\":3384:3401   */\n      add\n        /* \"#utility.yul\":3371:3402   */\n      calldataload\n        /* \"#utility.yul\":3429:3447   */\n      0xffffffffffffffff\n        /* \"#utility.yul\":3421:3427   */\n      dup2\n        /* \"#utility.yul\":3418:3448   */\n      gt\n        /* \"#utility.yul\":3415:3532   */\n      iszero\n      tag_100\n      jumpi\n        /* \"#utility.yul\":3451:3530   */\n      tag_101\n      tag_43\n      jump\t// in\n    tag_101:\n        /* \"#utility.yul\":3415:3532   */\n    tag_100:\n        /* \"#utility.yul\":3556:3634   */\n      tag_102\n        /* \"#utility.yul\":3626:3633   */\n      dup6\n        /* \"#utility.yul\":3617:3623   */\n      dup3\n        /* \"#utility.yul\":3606:3615   */\n      dup7\n        /* \"#utility.yul\":3602:3624   */\n      add\n        /* \"#utility.yul\":3556:3634   */\n      tag_55\n      jump\t// in\n    tag_102:\n        /* \"#utility.yul\":3546:3634   */\n      swap3\n      pop\n        /* \"#utility.yul\":3342:3644   */\n      pop\n        /* \"#utility.yul\":3683:3685   */\n      0x20\n        /* \"#utility.yul\":3709:3762   */\n      tag_103\n        /* \"#utility.yul\":3754:3761   */\n      dup6\n        /* \"#utility.yul\":3745:3751   */\n      dup3\n        /* \"#utility.yul\":3734:3743   */\n      dup7\n        /* \"#utility.yul\":3730:3752   */\n      add\n        /* \"#utility.yul\":3709:3762   */\n      tag_53\n      jump\t// in\n    tag_103:\n        /* \"#utility.yul\":3699:3762   */\n      swap2\n      pop\n        /* \"#utility.yul\":3654:3772   */\n      pop\n        /* \"#utility.yul\":3095:3779   */\n      swap3\n      pop\n      swap3\n      swap1\n      pop\n      jump\t// out\n        /* \"#utility.yul\":3785:3861   */\n    tag_56:\n        /* \"#utility.yul\":3821:3828   */\n      0x00\n        /* \"#utility.yul\":3850:3855   */\n      dup2\n        /* \"#utility.yul\":3839:3855   */\n      swap1\n      pop\n        /* \"#utility.yul\":3785:3861   */\n      swap2\n      swap1\n      pop\n      jump\t// out\n        /* \"#utility.yul\":3867:3982   */\n    tag_57:\n        /* \"#utility.yul\":3952:3975   */\n      tag_106\n        /* \"#utility.yul\":3969:3974   */\n      dup2\n        /* \"#utility.yul\":3952:3975   */\n      tag_56\n      jump\t// in\n    tag_106:\n        /* \"#utility.yul\":3947:3950   */\n      dup3\n        /* \"#utility.yul\":3940:3976   */\n      mstore\n        /* \"#utility.yul\":3867:3982   */\n      pop\n      pop\n      jump\t// out\n        /* \"#utility.yul\":3988:4206   */\n    tag_10:\n        /* \"#utility.yul\":4079:4083   */\n      0x00\n        /* \"#utility.yul\":4117:4119   */\n      0x20\n        /* \"#utility.yul\":4106:4115   */\n      dup3\n        /* \"#utility.yul\":4102:4120   */\n      add\n        /* \"#utility.yul\":4094:4120   */\n      swap1\n      pop\n        /* \"#utility.yul\":4130:4199   */\n      tag_108\n        /* \"#utility.yul\":4196:4197   */\n      0x00\n        /* \"#utility.yul\":4185:4194   */\n      dup4\n        /* \"#utility.yul\":4181:4198   */\n      add\n        /* \"#utility.yul\":4172:4178   */\n      dup5\n        /* \"#utility.yul\":4130:4199   */\n      tag_57\n      jump\t// in\n    tag_108:\n        /* \"#utility.yul\":3988:4206   */\n      swap3\n      swap2\n      pop\n      pop\n      jump\t// out\n        /* \"#utility.yul\":4212:4392   */\n    tag_21:\n        /* \"#utility.yul\":4260:4337   */\n      0x4e487b7100000000000000000000000000000000000000000000000000000000\n        /* \"#utility.yul\":4257:4258   */\n      0x00\n        /* \"#utility.yul\":4250:4338   */\n      mstore\n        /* \"#utility.yul\":4357:4361   */\n      0x32\n        /* \"#utility.yul\":4354:4355   */\n      0x04\n        /* \"#utility.yul\":4347:4362   */\n      mstore\n        /* \"#utility.yul\":4381:4385   */\n      0x24\n        /* \"#utility.yul\":4378:4379   */\n      0x00\n        /* \"#utility.yul\":4371:4386   */\n      revert\n        /* \"#utility.yul\":4398:4578   */\n    tag_58:\n        /* \"#utility.yul\":4446:4523   */\n      0x4e487b7100000000000000000000000000000000000000000000000000000000\n        /* \"#utility.yul\":4443:4444   */\n      0x00\n        /* \"#utility.yul\":4436:4524   */\n      mstore\n        /* \"#utility.yul\":4543:4547   */\n      0x11\n        /* \"#utility.yul\":4540:4541   */\n      0x04\n        /* \"#utility.yul\":4533:4548   */\n      mstore\n        /* \"#utility.yul\":4567:4571   */\n      0x24\n        /* \"#utility.yul\":4564:4565   */\n      0x00\n        /* \"#utility.yul\":4557:4572   */\n      revert\n        /* \"#utility.yul\":4584:4775   */\n    tag_29:\n        /* \"#utility.yul\":4624:4627   */\n      0x00\n        /* \"#utility.yul\":4643:4663   */\n      tag_112\n        /* \"#utility.yul\":4661:4662   */\n      dup3\n        /* \"#utility.yul\":4643:4663   */\n      tag_51\n      jump\t// in\n    tag_112:\n        /* \"#utility.yul\":4638:4663   */\n      swap2\n      pop\n        /* \"#utility.yul\":4677:4697   */\n      tag_113\n        /* \"#utility.yul\":4695:4696   */\n      dup4\n        /* \"#utility.yul\":4677:4697   */\n      tag_51\n      jump\t// in\n    tag_113:\n        /* \"#utility.yul\":4672:4697   */\n      swap3\n      pop\n        /* \"#utility.yul\":4720:4721   */\n      dup3\n        /* \"#utility.yul\":4717:4718   */\n      dup3\n        /* \"#utility.yul\":4713:4722   */\n      add\n        /* \"#utility.yul\":4706:4722   */\n      swap1\n      pop\n        /* \"#utility.yul\":4741:4744   */\n      dup1\n        /* \"#utility.yul\":4738:4739   */\n      dup3\n        /* \"#utility.yul\":4735:4745   */\n      gt\n        /* \"#utility.yul\":4732:4768   */\n      iszero\n      tag_114\n      jumpi\n        /* \"#utility.yul\":4748:4766   */\n      tag_115\n      tag_58\n      jump\t// in\n    tag_115:\n        /* \"#utility.yul\":4732:4768   */\n    tag_114:\n        /* \"#utility.yul\":4584:4775   */\n      swap3\n      swap2\n      pop\n      pop\n      jump\t// out\n        /* \"#utility.yul\":4781:4961   */\n    tag_59:\n        /* \"#utility.yul\":4829:4906   */\n      0x4e487b7100000000000000000000000000000000000000000000000000000000\n        /* \"#utility.yul\":4826:4827   */\n      0x00\n        /* \"#utility.yul\":4819:4907   */\n      mstore\n        /* \"#utility.yul\":4926:4930   */\n      0x12\n        /* \"#utility.yul\":4923:4924   */\n      0x04\n        /* \"#utility.yul\":4916:4931   */\n      mstore\n        /* \"#utility.yul\":4950:4954   */\n      0x24\n        /* \"#utility.yul\":4947:4948   */\n      0x00\n        /* \"#utility.yul\":4940:4955   */\n      revert\n        /* \"#utility.yul\":4967:5152   */\n    tag_31:\n        /* \"#utility.yul\":5007:5008   */\n      0x00\n        /* \"#utility.yul\":5024:5044   */\n      tag_118\n        /* \"#utility.yul\":5042:5043   */\n      dup3\n        /* \"#utility.yul\":5024:5044   */\n      tag_51\n      jump\t// in\n    tag_118:\n        /* \"#utility.yul\":5019:5044   */\n      swap2\n      pop\n        /* \"#utility.yul\":5058:5078   */\n      tag_119\n        /* \"#utility.yul\":5076:5077   */\n      dup4\n        /* \"#utility.yul\":5058:5078   */\n      tag_51\n      jump\t// in\n    tag_119:\n        /* \"#utility.yul\":5053:5078   */\n      swap3\n      pop\n        /* \"#utility.yul\":5097:5098   */\n      dup3\n        /* \"#utility.yul\":5087:5122   */\n      tag_120\n      jumpi\n        /* \"#utility.yul\":5102:5120   */\n      tag_121\n      tag_59\n      jump\t// in\n    tag_121:\n        /* \"#utility.yul\":5087:5122   */\n    tag_120:\n        /* \"#utility.yul\":5144:5145   */\n      dup3\n        /* \"#utility.yul\":5141:5142   */\n      dup3\n        /* \"#utility.yul\":5137:5146   */\n      div\n        /* \"#utility.yul\":5132:5146   */\n      swap1\n      pop\n        /* \"#utility.yul\":4967:5152   */\n      swap3\n      swap2\n      pop\n      pop\n      jump\t// out\n\n    auxdata: 0xa2646970667358221220d38e9e89b197090d652586c689e87c54f77e5279012e24861cd9da0cd5c0ef8664736f6c634300081a0033\n}\n",
				"bytecode": {
					"linkReferences": {},
					"object": "6080604052348015600e575f80fd5b5061052b8061001c5f395ff3fe608060405234801561000f575f80fd5b5060043610610034575f3560e01c806318765d0814610038578063d43fc47114610068575b5f80fd5b610052600480360381019061004d9190610380565b610098565b60405161005f91906103f2565b60405180910390f35b610082600480360381019061007d9190610380565b610126565b60405161008f91906103f2565b60405180910390f35b5f80835190505f5b818110156100fa57838582815181106100bc576100bb61040b565b5b6020026020010151036100ed578481815181106100dc576100db61040b565b5b602002602001015192505050610120565b80806001019150506100a0565b507fffffffffffffffffffffffffffffffffffffffffffffffffffffffffffffffff9150505b92915050565b5f805f90505f845190505b808210156101c0575f600282846101489190610465565b61015291906104c5565b9050848682815181106101685761016761040b565b5b602002602001015103610180578093505050506101e6565b848682815181106101945761019361040b565b5b602002602001015110156101b6576001816101af9190610465565b92506101ba565b8091505b50610131565b7fffffffffffffffffffffffffffffffffffffffffffffffffffffffffffffffff925050505b92915050565b5f604051905090565b5f80fd5b5f80fd5b5f80fd5b5f601f19601f8301169050919050565b7f4e487b71000000000000000000000000000000000000000000000000000000005f52604160045260245ffd5b61024782610201565b810181811067ffffffffffffffff8211171561026657610265610211565b5b80604052505050565b5f6102786101ec565b9050610284828261023e565b919050565b5f67ffffffffffffffff8211156102a3576102a2610211565b5b602082029050602081019050919050565b5f80fd5b5f819050919050565b6102ca816102b8565b81146102d4575f80fd5b50565b5f813590506102e5816102c1565b92915050565b5f6102fd6102f884610289565b61026f565b905080838252602082019050602084028301858111156103205761031f6102b4565b5b835b81811015610349578061033588826102d7565b845260208401935050602081019050610322565b5050509392505050565b5f82601f830112610367576103666101fd565b5b81356103778482602086016102eb565b91505092915050565b5f8060408385031215610396576103956101f5565b5b5f83013567ffffffffffffffff8111156103b3576103b26101f9565b5b6103bf85828601610353565b92505060206103d0858286016102d7565b9150509250929050565b5f819050919050565b6103ec816103da565b82525050565b5f6020820190506104055f8301846103e3565b92915050565b7f4e487b71000000000000000000000000000000000000000000000000000000005f52603260045260245ffd5b7f4e487b71000000000000000000000000000000000000000000000000000000005f52601160045260245ffd5b5f61046f826102b8565b915061047a836102b8565b925082820190508082111561049257610491610438565b5b92915050565b7f4e487b71000000000000000000000000000000000000000000000000000000005f52601260045260245ffd5b5f6104cf826102b8565b91506104da836102b8565b9250826104ea576104e9610498565b5b82820490509291505056fea2646970667358221220d38e9e89b197090d652586c689e87c54f77e5279012e24861cd9da0cd5c0ef8664736f6c634300081a0033",
					"opcodes": "PUSH1 0x80 PUSH1 0x40 MSTORE CALLVALUE DUP1 ISZERO PUSH1 0xE JUMPI PUSH0 DUP1 REVERT JUMPDEST POP PUSH2 0x52B DUP1 PUSH2 0x1C PUSH0 CODECOPY PUSH0 RETURN INVALID PUSH1 0x80 PUSH1 0x40 MSTORE CALLVALUE DUP1 ISZERO PUSH2 0xF JUMPI PUSH0 DUP1 REVERT JUMPDEST POP PUSH1 0x4 CALLDATASIZE LT PUSH2 0x34 JUMPI PUSH0 CALLDATALOAD PUSH1 0xE0 SHR DUP1 PUSH4 0x18765D08 EQ PUSH2 0x38 JUMPI DUP1 PUSH4 0xD43FC471 EQ PUSH2 0x68 JUMPI JUMPDEST PUSH0 DUP1 REVERT JUMPDEST PUSH2 0x52 PUSH1 0x4 DUP1 CALLDATASIZE SUB DUP2 ADD SWAP1 PUSH2 0x4D SWAP2 SWAP1 PUSH2 0x380 JUMP JUMPDEST PUSH2 0x98 JUMP JUMPDEST PUSH1 0x40 MLOAD PUSH2 0x5F SWAP2 SWAP1 PUSH2 0x3F2 JUMP JUMPDEST PUSH1 0x40 MLOAD DUP1 SWAP2 SUB SWAP1 RETURN JUMPDEST PUSH2 0x82 PUSH1 0x4 DUP1 CALLDATASIZE SUB DUP2 ADD SWAP1 PUSH2 0x7D SWAP2 SWAP1 PUSH2 0x380 JUMP JUMPDEST PUSH2 0x126 JUMP JUMPDEST PUSH1 0x40 MLOAD PUSH2 0x8F SWAP2 SWAP1 PUSH2 0x3F2 JUMP JUMPDEST PUSH1 0x40 MLOAD DUP1 SWAP2 SUB SWAP1 RETURN JUMPDEST PUSH0 DUP1 DUP4 MLOAD SWAP1 POP PUSH0 JUMPDEST DUP2 DUP2 LT ISZERO PUSH2 0xFA JUMPI DUP4 DUP6 DUP3 DUP2 MLOAD DUP2 LT PUSH2 0xBC JUMPI PUSH2 0xBB PUSH2 0x40B JUMP JUMPDEST JUMPDEST PUSH1 0x20 MUL PUSH1 0x20 ADD ADD MLOAD SUB PUSH2 0xED JUMPI DUP5 DUP2 DUP2 MLOAD DUP2 LT PUSH2 0xDC JUMPI PUSH2 0xDB PUSH2 0x40B JUMP JUMPDEST JUMPDEST PUSH1 0x20 MUL PUSH1 0x20 ADD ADD MLOAD SWAP3 POP POP POP PUSH2 0x120 JUMP JUMPDEST DUP1 DUP1 PUSH1 0x1 ADD SWAP2 POP POP PUSH2 0xA0 JUMP JUMPDEST POP PUSH32 0xFFFFFFFFFFFFFFFFFFFFFFFFFFFFFFFFFFFFFFFFFFFFFFFFFFFFFFFFFFFFFFFF SWAP2 POP POP JUMPDEST SWAP3 SWAP2 POP POP JUMP JUMPDEST PUSH0 DUP1 PUSH0 SWAP1 POP PUSH0 DUP5 MLOAD SWAP1 POP JUMPDEST DUP1 DUP3 LT ISZERO PUSH2 0x1C0 JUMPI PUSH0 PUSH1 0x2 DUP3 DUP5 PUSH2 0x148 SWAP2 SWAP1 PUSH2 0x465 JUMP JUMPDEST PUSH2 0x152 SWAP2 SWAP1 PUSH2 0x4C5 JUMP JUMPDEST SWAP1 POP DUP5 DUP7 DUP3 DUP2 MLOAD DUP2 LT PUSH2 0x168 JUMPI PUSH2 0x167 PUSH2 0x40B JUMP JUMPDEST JUMPDEST PUSH1 0x20 MUL PUSH1 0x20 ADD ADD MLOAD SUB PUSH2 0x180 JUMPI DUP1 SWAP4 POP POP POP POP PUSH2 0x1E6 JUMP JUMPDEST DUP5 DUP7 DUP3 DUP2 MLOAD DUP2 LT PUSH2 0x194 JUMPI PUSH2 0x193 PUSH2 0x40B JUMP JUMPDEST JUMPDEST PUSH1 0x20 MUL PUSH1 0x20 ADD ADD MLOAD LT ISZERO PUSH2 0x1B6 JUMPI PUSH1 0x1 DUP2 PUSH2 0x1AF SWAP2 SWAP1 PUSH2 0x465 JUMP JUMPDEST SWAP3 POP PUSH2 0x1BA JUMP JUMPDEST DUP1 SWAP2 POP JUMPDEST POP PUSH2 0x131 JUMP JUMPDEST PUSH32 0xFFFFFFFFFFFFFFFFFFFFFFFFFFFFFFFFFFFFFFFFFFFFFFFFFFFFFFFFFFFFFFFF SWAP3 POP POP POP JUMPDEST SWAP3 SWAP2 POP POP JUMP JUMPDEST PUSH0 PUSH1 0x40 MLOAD SWAP1 POP SWAP1 JUMP JUMPDEST PUSH0 DUP1 REVERT JUMPDEST PUSH0 DUP1 REVERT JUMPDEST PUSH0 DUP1 REVERT JUMPDEST PUSH0 PUSH1 0x1F NOT PUSH1 0x1F DUP4 ADD AND SWAP1 POP SWAP2 SWAP1 POP JUMP JUMPDEST PUSH32 0x4E487B7100000000000000000000000000000000000000000000000000000000 PUSH0 MSTORE PUSH1 0x41 PUSH1 0x4 MSTORE PUSH1 0x24 PUSH0 REVERT JUMPDEST PUSH2 0x247 DUP3 PUSH2 0x201 JUMP JUMPDEST DUP2 ADD DUP2 DUP2 LT PUSH8 0xFFFFFFFFFFFFFFFF DUP3 GT OR ISZERO PUSH2 0x266 JUMPI PUSH2 0x265 PUSH2 0x211 JUMP JUMPDEST JUMPDEST DUP1 PUSH1 0x40 MSTORE POP POP POP JUMP JUMPDEST PUSH0 PUSH2 0x278 PUSH2 0x1EC JUMP JUMPDEST SWAP1 POP PUSH2 0x284 DUP3 DUP3 PUSH2 0x23E JUMP JUMPDEST SWAP2 SWAP1 POP JUMP JUMPDEST PUSH0 PUSH8 0xFFFFFFFFFFFFFFFF DUP3 GT ISZERO PUSH2 0x2A3 JUMPI PUSH2 0x2A2 PUSH2 0x211 JUMP JUMPDEST JUMPDEST PUSH1 0x20 DUP3 MUL SWAP1 POP PUSH1 0x20 DUP2 ADD SWAP1 POP SWAP2 SWAP1 POP JUMP JUMPDEST PUSH0 DUP1 REVERT JUMPDEST PUSH0 DUP2 SWAP1 POP SWAP2 SWAP1 POP JUMP JUMPDEST PUSH2 0x2CA DUP2 PUSH2 0x2B8 JUMP JUMPDEST DUP2 EQ PUSH2 0x2D4 JUMPI PUSH0 DUP1 REVERT JUMPDEST POP JUMP JUMPDEST PUSH0 DUP2 CALLDATALOAD SWAP1 POP PUSH2 0x2E5 DUP2 PUSH2 0x2C1 JUMP JUMPDEST SWAP3 SWAP2 POP POP JUMP JUMPDEST PUSH0 PUSH2 0x2FD PUSH2 0x2F8 DUP5 PUSH2 0x289 JUMP JUMPDEST PUSH2 0x26F JUMP JUMPDEST SWAP1 POP DUP1 DUP4 DUP3 MSTORE PUSH1 0x20 DUP3 ADD SWAP1 POP PUSH1 0x20 DUP5 MUL DUP4 ADD DUP6 DUP2 GT ISZERO PUSH2 0x320 JUMPI PUSH2 0x31F PUSH2 0x2B4 JUMP JUMPDEST JUMPDEST DUP4 JUMPDEST DUP2 DUP2 LT ISZERO PUSH2 0x349 JUMPI DUP1 PUSH2 0x335 DUP9 DUP3 PUSH2 0x2D7 JUMP JUMPDEST DUP5 MSTORE PUSH1 0x20 DUP5 ADD SWAP4 POP POP PUSH1 0x20 DUP2 ADD SWAP1 POP PUSH2 0x322 JUMP JUMPDEST POP POP POP SWAP4 SWAP3 POP POP POP JUMP JUMPDEST PUSH0 DUP3 PUSH1 0x1F DUP4 ADD SLT PUSH2 0x367 JUMPI PUSH2 0x366 PUSH2 0x1FD JUMP JUMPDEST JUMPDEST DUP2 CALLDATALOAD PUSH2 0x377 DUP5 DUP3 PUSH1 0x20 DUP7 ADD PUSH2 0x2EB JUMP JUMPDEST SWAP2 POP POP SWAP3 SWAP2 POP POP JUMP JUMPDEST PUSH0 DUP1 PUSH1 0x40 DUP4 DUP6 SUB SLT ISZERO PUSH2 0x396 JUMPI PUSH2 0x395 PUSH2 0x1F5 JUMP JUMPDEST JUMPDEST PUSH0 DUP4 ADD CALLDATALOAD PUSH8 0xFFFFFFFFFFFFFFFF DUP2 GT ISZERO PUSH2 0x3B3 JUMPI PUSH2 0x3B2 PUSH2 0x1F9 JUMP JUMPDEST JUMPDEST PUSH2 0x3BF DUP6 DUP3 DUP7 ADD PUSH2 0x353 JUMP JUMPDEST SWAP3 POP POP PUSH1 0x20 PUSH2 0x3D0 DUP6 DUP3 DUP7 ADD PUSH2 0x2D7 JUMP JUMPDEST SWAP2 POP POP SWAP3 POP SWAP3 SWAP1 POP JUMP JUMPDEST PUSH0 DUP2 SWAP1 POP SWAP2 SWAP1 POP JUMP JUMPDEST PUSH2 0x3EC DUP2 PUSH2 0x3DA JUMP JUMPDEST DUP3 MSTORE POP POP JUMP JUMPDEST PUSH0 PUSH1 0x20 DUP3 ADD SWAP1 POP PUSH2 0x405 PUSH0 DUP4 ADD DUP5 PUSH2 0x3E3 JUMP JUMPDEST SWAP3 SWAP2 POP POP JUMP JUMPDEST PUSH32 0x4E487B7100000000000000000000000000000000000000000000000000000000 PUSH0 MSTORE PUSH1 0x32 PUSH1 0x4 MSTORE PUSH1 0x24 PUSH0 REVERT JUMPDEST PUSH32 0x4E487B7100000000000000000000000000000000000000000000000000000000 PUSH0 MSTORE PUSH1 0x11 PUSH1 0x4 MSTORE PUSH1 0x24 PUSH0 REVERT JUMPDEST PUSH0 PUSH2 0x46F DUP3 PUSH2 0x2B8 JUMP JUMPDEST SWAP2 POP PUSH2 0x47A DUP4 PUSH2 0x2B8 JUMP JUMPDEST SWAP3 POP DUP3 DUP3 ADD SWAP1 POP DUP1 DUP3 GT ISZERO PUSH2 0x492 JUMPI PUSH2 0x491 PUSH2 0x438 JUMP JUMPDEST JUMPDEST SWAP3 SWAP2 POP POP JUMP JUMPDEST PUSH32 0x4E487B7100000000000000000000000000000000000000000000000000000000 PUSH0 MSTORE PUSH1 0x12 PUSH1 0x4 MSTORE PUSH1 0x24 PUSH0 REVERT JUMPDEST PUSH0 PUSH2 0x4CF DUP3 PUSH2 0x2B8 JUMP JUMPDEST SWAP2 POP PUSH2 0x4DA DUP4 PUSH2 0x2B8 JUMP JUMPDEST SWAP3 POP DUP3 PUSH2 0x4EA JUMPI PUSH2 0x4E9 PUSH2 0x498 JUMP JUMPDEST JUMPDEST DUP3 DUP3 DIV SWAP1 POP SWAP3 SWAP2 POP POP JUMP INVALID LOG2 PUSH5 0x6970667358 0x22 SLT KECCAK256 0xD3 DUP15 SWAP15 DUP10 0xB1 SWAP8 MULMOD 0xD PUSH6 0x2586C689E87C SLOAD 0xF7 PUSH31 0x5279012E24861CD9DA0CD5C0EF8664736F6C634300081A0033000000000000 "
				},
				"gasEstimates": {
					"creation": {
						"codeDepositCost": "264600",
						"executionCost": "304",
						"totalCost": "264904"
					},
					"external": {
						"arraySearch(uint256[],uint256)": "infinite",
						"search(uint256[],uint256)": "infinite"
					}
				},
				"methodIdentifiers": {
					"arraySearch(uint256[],uint256)": "18765d08",
					"search(uint256[],uint256)": "d43fc471"
				}
			},
			"storageLayout": {
				"storage": [],
				"types": null
			},
			"userdoc": {
				"kind": "user",
				"methods": {},
				"version": 1
			}
		}
	}
}