{
	"task5/mergeArray.sol": {
		"mergeArray": {
			"abi": [
				{
					"inputs": [
						{
							"internalType": "uint256[]",
							"name": "a",
							"type": "uint256[]"
						},
						{
							"internalType": "uint256[]",
							"name": "b",
							"type": "uint256[]"
						}
					],
					"name": "mergeSortedArrays",
					"outputs": [
						{
							"internalType": "uint256[]",
							"name": "",
							"type": "uint256[]"
						}
					],
					"stateMutability": "pure",
					"type": "function"
				}
			],
			"devdoc": {
				"kind": "dev",
				"methods": {},
				"version": 1
			},
			"evm": {
				"assembly": "    /* \"task5/mergeArray.sol\":74:876  contract mergeArray{... */\n  mstore(0x40, 0x80)\n  callvalue\n  dup1\n  iszero\n  tag_1\n  jumpi\n  0x00\n  dup1\n  revert\ntag_1:\n  pop\n  dataSize(sub_0)\n  dup1\n  dataOffset(sub_0)\n  0x00\n  codecopy\n  0x00\n  return\nstop\n\nsub_0: assembly {\n        /* \"task5/mergeArray.sol\":74:876  contract mergeArray{... */\n      mstore(0x40, 0x80)\n      callvalue\n      dup1\n      iszero\n      tag_1\n      jumpi\n      0x00\n      dup1\n      revert\n    tag_1:\n      pop\n      jumpi(tag_2, lt(calldatasize, 0x04))\n      shr(0xe0, calldataload(0x00))\n      dup1\n      0x4cf0cc0d\n      eq\n      tag_3\n      jumpi\n    tag_2:\n      0x00\n      dup1\n      revert\n        /* \"task5/mergeArray.sol\":186:873  function mergeSortedArrays(uint[] memory a, uint[] memory b) ... */\n    tag_3:\n      tag_4\n      0x04\n      dup1\n      calldatasize\n      sub\n      dup2\n      add\n      swap1\n      tag_5\n      swap2\n      swap1\n      tag_6\n      jump\t// in\n    tag_5:\n      tag_7\n      jump\t// in\n    tag_4:\n      mload(0x40)\n      tag_8\n      swap2\n      swap1\n      tag_9\n      jump\t// in\n    tag_8:\n      mload(0x40)\n      dup1\n      swap2\n      sub\n      swap1\n      return\n    tag_7:\n        /* \"task5/mergeArray.sol\":298:311  uint[] memory */\n      0x60\n        /* \"task5/mergeArray.sol\":330:350  uint[] memory result */\n      0x00\n        /* \"task5/mergeArray.sol\":375:376  b */\n      dup3\n        /* \"task5/mergeArray.sol\":375:383  b.length */\n      mload\n        /* \"task5/mergeArray.sol\":364:365  a */\n      dup5\n        /* \"task5/mergeArray.sol\":364:372  a.length */\n      mload\n        /* \"task5/mergeArray.sol\":364:383  a.length + b.length */\n      tag_11\n      swap2\n      swap1\n      tag_12\n      jump\t// in\n    tag_11:\n        /* \"task5/mergeArray.sol\":353:384  new uint[](a.length + b.length) */\n      0xffffffffffffffff\n      dup2\n      gt\n      iszero\n      tag_13\n      jumpi\n      tag_14\n      tag_15\n      jump\t// in\n    tag_14:\n    tag_13:\n      mload(0x40)\n      swap1\n      dup1\n      dup3\n      mstore\n      dup1\n      0x20\n      mul\n      0x20\n      add\n      dup3\n      add\n      0x40\n      mstore\n      dup1\n      iszero\n      tag_16\n      jumpi\n      dup2\n      0x20\n      add\n      0x20\n      dup3\n      mul\n      dup1\n      calldatasize\n      dup4\n      calldatacopy\n      dup1\n      dup3\n      add\n      swap2\n      pop\n      pop\n      swap1\n      pop\n    tag_16:\n      pop\n        /* \"task5/mergeArray.sol\":330:384  uint[] memory result = new uint[](a.length + b.length) */\n      swap1\n      pop\n        /* \"task5/mergeArray.sol\":399:405  uint i */\n      0x00\n        /* \"task5/mergeArray.sol\":395:469  for(uint i=0; i<a.length; i++) {... */\n    tag_17:\n        /* \"task5/mergeArray.sol\":411:412  a */\n      dup5\n        /* \"task5/mergeArray.sol\":411:419  a.length */\n      mload\n        /* \"task5/mergeArray.sol\":409:410  i */\n      dup2\n        /* \"task5/mergeArray.sol\":409:419  i<a.length */\n      lt\n        /* \"task5/mergeArray.sol\":395:469  for(uint i=0; i<a.length; i++) {... */\n      iszero\n      tag_18\n      jumpi\n        /* \"task5/mergeArray.sol\":453:454  a */\n      dup5\n        /* \"task5/mergeArray.sol\":455:456  i */\n      dup2\n        /* \"task5/mergeArray.sol\":453:457  a[i] */\n      dup2\n      mload\n      dup2\n      lt\n      tag_20\n      jumpi\n      tag_21\n      tag_22\n      jump\t// in\n    tag_21:\n    tag_20:\n      0x20\n      mul\n      0x20\n      add\n      add\n      mload\n        /* \"task5/mergeArray.sol\":441:447  result */\n      dup3\n        /* \"task5/mergeArray.sol\":448:449  i */\n      dup3\n        /* \"task5/mergeArray.sol\":441:450  result[i] */\n      dup2\n      mload\n      dup2\n      lt\n      tag_23\n      jumpi\n      tag_24\n      tag_22\n      jump\t// in\n    tag_24:\n    tag_23:\n      0x20\n      mul\n      0x20\n      add\n      add\n        /* \"task5/mergeArray.sol\":441:457  result[i] = a[i] */\n      dup2\n      dup2\n      mstore\n      pop\n      pop\n        /* \"task5/mergeArray.sol\":421:424  i++ */\n      dup1\n      dup1\n      0x01\n      add\n      swap2\n      pop\n      pop\n        /* \"task5/mergeArray.sol\":395:469  for(uint i=0; i<a.length; i++) {... */\n      jump(tag_17)\n    tag_18:\n      pop\n        /* \"task5/mergeArray.sol\":483:489  uint j */\n      0x00\n        /* \"task5/mergeArray.sol\":479:564  for(uint j=0; j<b.length; j++) {... */\n    tag_25:\n        /* \"task5/mergeArray.sol\":495:496  b */\n      dup4\n        /* \"task5/mergeArray.sol\":495:503  b.length */\n      mload\n        /* \"task5/mergeArray.sol\":493:494  j */\n      dup2\n        /* \"task5/mergeArray.sol\":493:503  j<b.length */\n      lt\n        /* \"task5/mergeArray.sol\":479:564  for(uint j=0; j<b.length; j++) {... */\n      iszero\n      tag_26\n      jumpi\n        /* \"task5/mergeArray.sol\":548:549  b */\n      dup4\n        /* \"task5/mergeArray.sol\":550:551  j */\n      dup2\n        /* \"task5/mergeArray.sol\":548:552  b[j] */\n      dup2\n      mload\n      dup2\n      lt\n      tag_28\n      jumpi\n      tag_29\n      tag_22\n      jump\t// in\n    tag_29:\n    tag_28:\n      0x20\n      mul\n      0x20\n      add\n      add\n      mload\n        /* \"task5/mergeArray.sol\":525:531  result */\n      dup3\n        /* \"task5/mergeArray.sol\":543:544  j */\n      dup3\n        /* \"task5/mergeArray.sol\":532:533  a */\n      dup8\n        /* \"task5/mergeArray.sol\":532:540  a.length */\n      mload\n        /* \"task5/mergeArray.sol\":532:544  a.length + j */\n      tag_30\n      swap2\n      swap1\n      tag_12\n      jump\t// in\n    tag_30:\n        /* \"task5/mergeArray.sol\":525:545  result[a.length + j] */\n      dup2\n      mload\n      dup2\n      lt\n      tag_31\n      jumpi\n      tag_32\n      tag_22\n      jump\t// in\n    tag_32:\n    tag_31:\n      0x20\n      mul\n      0x20\n      add\n      add\n        /* \"task5/mergeArray.sol\":525:552  result[a.length + j] = b[j] */\n      dup2\n      dup2\n      mstore\n      pop\n      pop\n        /* \"task5/mergeArray.sol\":505:508  j++ */\n      dup1\n      dup1\n      0x01\n      add\n      swap2\n      pop\n      pop\n        /* \"task5/mergeArray.sol\":479:564  for(uint j=0; j<b.length; j++) {... */\n      jump(tag_25)\n    tag_26:\n      pop\n        /* \"task5/mergeArray.sol\":580:586  uint i */\n      0x00\n        /* \"task5/mergeArray.sol\":587:588  1 */\n      0x01\n        /* \"task5/mergeArray.sol\":580:588  uint i=1 */\n      swap1\n      pop\n        /* \"task5/mergeArray.sol\":576:842  for(uint i=1; i<result.length; i++) {... */\n    tag_33:\n        /* \"task5/mergeArray.sol\":592:598  result */\n      dup2\n        /* \"task5/mergeArray.sol\":592:605  result.length */\n      mload\n        /* \"task5/mergeArray.sol\":590:591  i */\n      dup2\n        /* \"task5/mergeArray.sol\":590:605  i<result.length */\n      lt\n        /* \"task5/mergeArray.sol\":576:842  for(uint i=1; i<result.length; i++) {... */\n      iszero\n      tag_34\n      jumpi\n        /* \"task5/mergeArray.sol\":627:635  uint key */\n      0x00\n        /* \"task5/mergeArray.sol\":638:644  result */\n      dup3\n        /* \"task5/mergeArray.sol\":645:646  i */\n      dup3\n        /* \"task5/mergeArray.sol\":638:647  result[i] */\n      dup2\n      mload\n      dup2\n      lt\n      tag_36\n      jumpi\n      tag_37\n      tag_22\n      jump\t// in\n    tag_37:\n    tag_36:\n      0x20\n      mul\n      0x20\n      add\n      add\n      mload\n        /* \"task5/mergeArray.sol\":627:647  uint key = result[i] */\n      swap1\n      pop\n        /* \"task5/mergeArray.sol\":662:668  uint j */\n      0x00\n        /* \"task5/mergeArray.sol\":671:672  i */\n      dup3\n        /* \"task5/mergeArray.sol\":662:672  uint j = i */\n      swap1\n      pop\n        /* \"task5/mergeArray.sol\":687:801  while(j > 0 && result[j-1] > key) {... */\n    tag_38:\n        /* \"task5/mergeArray.sol\":697:698  0 */\n      0x00\n        /* \"task5/mergeArray.sol\":693:694  j */\n      dup2\n        /* \"task5/mergeArray.sol\":693:698  j > 0 */\n      gt\n        /* \"task5/mergeArray.sol\":693:719  j > 0 && result[j-1] > key */\n      dup1\n      iszero\n      tag_40\n      jumpi\n      pop\n        /* \"task5/mergeArray.sol\":716:719  key */\n      dup2\n        /* \"task5/mergeArray.sol\":702:708  result */\n      dup5\n        /* \"task5/mergeArray.sol\":711:712  1 */\n      0x01\n        /* \"task5/mergeArray.sol\":709:710  j */\n      dup4\n        /* \"task5/mergeArray.sol\":709:712  j-1 */\n      tag_41\n      swap2\n      swap1\n      tag_42\n      jump\t// in\n    tag_41:\n        /* \"task5/mergeArray.sol\":702:713  result[j-1] */\n      dup2\n      mload\n      dup2\n      lt\n      tag_43\n      jumpi\n      tag_44\n      tag_22\n      jump\t// in\n    tag_44:\n    tag_43:\n      0x20\n      mul\n      0x20\n      add\n      add\n      mload\n        /* \"task5/mergeArray.sol\":702:719  result[j-1] > key */\n      gt\n        /* \"task5/mergeArray.sol\":693:719  j > 0 && result[j-1] > key */\n    tag_40:\n        /* \"task5/mergeArray.sol\":687:801  while(j > 0 && result[j-1] > key) {... */\n      iszero\n      tag_39\n      jumpi\n        /* \"task5/mergeArray.sol\":752:758  result */\n      dup4\n        /* \"task5/mergeArray.sol\":761:762  1 */\n      0x01\n        /* \"task5/mergeArray.sol\":759:760  j */\n      dup3\n        /* \"task5/mergeArray.sol\":759:762  j-1 */\n      tag_45\n      swap2\n      swap1\n      tag_42\n      jump\t// in\n    tag_45:\n        /* \"task5/mergeArray.sol\":752:763  result[j-1] */\n      dup2\n      mload\n      dup2\n      lt\n      tag_46\n      jumpi\n      tag_47\n      tag_22\n      jump\t// in\n    tag_47:\n    tag_46:\n      0x20\n      mul\n      0x20\n      add\n      add\n      mload\n        /* \"task5/mergeArray.sol\":740:746  result */\n      dup5\n        /* \"task5/mergeArray.sol\":747:748  j */\n      dup3\n        /* \"task5/mergeArray.sol\":740:749  result[j] */\n      dup2\n      mload\n      dup2\n      lt\n      tag_48\n      jumpi\n      tag_49\n      tag_22\n      jump\t// in\n    tag_49:\n    tag_48:\n      0x20\n      mul\n      0x20\n      add\n      add\n        /* \"task5/mergeArray.sol\":740:763  result[j] = result[j-1] */\n      dup2\n      dup2\n      mstore\n      pop\n      pop\n        /* \"task5/mergeArray.sol\":782:785  j-- */\n      dup1\n      dup1\n      tag_50\n      swap1\n      tag_51\n      jump\t// in\n    tag_50:\n      swap2\n      pop\n      pop\n        /* \"task5/mergeArray.sol\":687:801  while(j > 0 && result[j-1] > key) {... */\n      jump(tag_38)\n    tag_39:\n        /* \"task5/mergeArray.sol\":827:830  key */\n      dup2\n        /* \"task5/mergeArray.sol\":815:821  result */\n      dup5\n        /* \"task5/mergeArray.sol\":822:823  j */\n      dup3\n        /* \"task5/mergeArray.sol\":815:824  result[j] */\n      dup2\n      mload\n      dup2\n      lt\n      tag_52\n      jumpi\n      tag_53\n      tag_22\n      jump\t// in\n    tag_53:\n    tag_52:\n      0x20\n      mul\n      0x20\n      add\n      add\n        /* \"task5/mergeArray.sol\":815:830  result[j] = key */\n      dup2\n      dup2\n      mstore\n      pop\n      pop\n        /* \"task5/mergeArray.sol\":612:842  {... */\n      pop\n      pop\n        /* \"task5/mergeArray.sol\":607:610  i++ */\n      dup1\n      dup1\n      0x01\n      add\n      swap2\n      pop\n      pop\n        /* \"task5/mergeArray.sol\":576:842  for(uint i=1; i<result.length; i++) {... */\n      jump(tag_33)\n    tag_34:\n      pop\n        /* \"task5/mergeArray.sol\":859:865  result */\n      dup1\n        /* \"task5/mergeArray.sol\":852:865  return result */\n      swap2\n      pop\n      pop\n        /* \"task5/mergeArray.sol\":186:873  function mergeSortedArrays(uint[] memory a, uint[] memory b) ... */\n      swap3\n      swap2\n      pop\n      pop\n      jump\t// out\n        /* \"#utility.yul\":7:82   */\n    tag_54:\n        /* \"#utility.yul\":40:46   */\n      0x00\n        /* \"#utility.yul\":73:75   */\n      0x40\n        /* \"#utility.yul\":67:76   */\n      mload\n        /* \"#utility.yul\":57:76   */\n      swap1\n      pop\n        /* \"#utility.yul\":7:82   */\n      swap1\n      jump\t// out\n        /* \"#utility.yul\":88:205   */\n    tag_55:\n        /* \"#utility.yul\":197:198   */\n      0x00\n        /* \"#utility.yul\":194:195   */\n      dup1\n        /* \"#utility.yul\":187:199   */\n      revert\n        /* \"#utility.yul\":211:328   */\n    tag_56:\n        /* \"#utility.yul\":320:321   */\n      0x00\n        /* \"#utility.yul\":317:318   */\n      dup1\n        /* \"#utility.yul\":310:322   */\n      revert\n        /* \"#utility.yul\":334:451   */\n    tag_57:\n        /* \"#utility.yul\":443:444   */\n      0x00\n        /* \"#utility.yul\":440:441   */\n      dup1\n        /* \"#utility.yul\":433:445   */\n      revert\n        /* \"#utility.yul\":457:559   */\n    tag_58:\n        /* \"#utility.yul\":498:504   */\n      0x00\n        /* \"#utility.yul\":549:551   */\n      0x1f\n        /* \"#utility.yul\":545:552   */\n      not\n        /* \"#utility.yul\":540:542   */\n      0x1f\n        /* \"#utility.yul\":533:538   */\n      dup4\n        /* \"#utility.yul\":529:543   */\n      add\n        /* \"#utility.yul\":525:553   */\n      and\n        /* \"#utility.yul\":515:553   */\n      swap1\n      pop\n        /* \"#utility.yul\":457:559   */\n      swap2\n      swap1\n      pop\n      jump\t// out\n        /* \"#utility.yul\":565:745   */\n    tag_15:\n        /* \"#utility.yul\":613:690   */\n      0x4e487b7100000000000000000000000000000000000000000000000000000000\n        /* \"#utility.yul\":610:611   */\n      0x00\n        /* \"#utility.yul\":603:691   */\n      mstore\n        /* \"#utility.yul\":710:714   */\n      0x41\n        /* \"#utility.yul\":707:708   */\n      0x04\n        /* \"#utility.yul\":700:715   */\n      mstore\n        /* \"#utility.yul\":734:738   */\n      0x24\n        /* \"#utility.yul\":731:732   */\n      0x00\n        /* \"#utility.yul\":724:739   */\n      revert\n        /* \"#utility.yul\":751:1032   */\n    tag_59:\n        /* \"#utility.yul\":834:861   */\n      tag_84\n        /* \"#utility.yul\":856:860   */\n      dup3\n        /* \"#utility.yul\":834:861   */\n      tag_58\n      jump\t// in\n    tag_84:\n        /* \"#utility.yul\":826:832   */\n      dup2\n        /* \"#utility.yul\":822:862   */\n      add\n        /* \"#utility.yul\":964:970   */\n      dup2\n        /* \"#utility.yul\":952:962   */\n      dup2\n        /* \"#utility.yul\":949:971   */\n      lt\n        /* \"#utility.yul\":928:946   */\n      0xffffffffffffffff\n        /* \"#utility.yul\":916:926   */\n      dup3\n        /* \"#utility.yul\":913:947   */\n      gt\n        /* \"#utility.yul\":910:972   */\n      or\n        /* \"#utility.yul\":907:995   */\n      iszero\n      tag_85\n      jumpi\n        /* \"#utility.yul\":975:993   */\n      tag_86\n      tag_15\n      jump\t// in\n    tag_86:\n        /* \"#utility.yul\":907:995   */\n    tag_85:\n        /* \"#utility.yul\":1015:1025   */\n      dup1\n        /* \"#utility.yul\":1011:1013   */\n      0x40\n        /* \"#utility.yul\":1004:1026   */\n      mstore\n        /* \"#utility.yul\":794:1032   */\n      pop\n        /* \"#utility.yul\":751:1032   */\n      pop\n      pop\n      jump\t// out\n        /* \"#utility.yul\":1038:1167   */\n    tag_60:\n        /* \"#utility.yul\":1072:1078   */\n      0x00\n        /* \"#utility.yul\":1099:1119   */\n      tag_88\n      tag_54\n      jump\t// in\n    tag_88:\n        /* \"#utility.yul\":1089:1119   */\n      swap1\n      pop\n        /* \"#utility.yul\":1128:1161   */\n      tag_89\n        /* \"#utility.yul\":1156:1160   */\n      dup3\n        /* \"#utility.yul\":1148:1154   */\n      dup3\n        /* \"#utility.yul\":1128:1161   */\n      tag_59\n      jump\t// in\n    tag_89:\n        /* \"#utility.yul\":1038:1167   */\n      swap2\n      swap1\n      pop\n      jump\t// out\n        /* \"#utility.yul\":1173:1484   */\n    tag_61:\n        /* \"#utility.yul\":1250:1254   */\n      0x00\n        /* \"#utility.yul\":1340:1358   */\n      0xffffffffffffffff\n        /* \"#utility.yul\":1332:1338   */\n      dup3\n        /* \"#utility.yul\":1329:1359   */\n      gt\n        /* \"#utility.yul\":1326:1382   */\n      iszero\n      tag_91\n      jumpi\n        /* \"#utility.yul\":1362:1380   */\n      tag_92\n      tag_15\n      jump\t// in\n    tag_92:\n        /* \"#utility.yul\":1326:1382   */\n    tag_91:\n        /* \"#utility.yul\":1412:1416   */\n      0x20\n        /* \"#utility.yul\":1404:1410   */\n      dup3\n        /* \"#utility.yul\":1400:1417   */\n      mul\n        /* \"#utility.yul\":1392:1417   */\n      swap1\n      pop\n        /* \"#utility.yul\":1472:1476   */\n      0x20\n        /* \"#utility.yul\":1466:1470   */\n      dup2\n        /* \"#utility.yul\":1462:1477   */\n      add\n        /* \"#utility.yul\":1454:1477   */\n      swap1\n      pop\n        /* \"#utility.yul\":1173:1484   */\n      swap2\n      swap1\n      pop\n      jump\t// out\n        /* \"#utility.yul\":1490:1607   */\n    tag_62:\n        /* \"#utility.yul\":1599:1600   */\n      0x00\n        /* \"#utility.yul\":1596:1597   */\n      dup1\n        /* \"#utility.yul\":1589:1601   */\n      revert\n        /* \"#utility.yul\":1613:1690   */\n    tag_63:\n        /* \"#utility.yul\":1650:1657   */\n      0x00\n        /* \"#utility.yul\":1679:1684   */\n      dup2\n        /* \"#utility.yul\":1668:1684   */\n      swap1\n      pop\n        /* \"#utility.yul\":1613:1690   */\n      swap2\n      swap1\n      pop\n      jump\t// out\n        /* \"#utility.yul\":1696:1818   */\n    tag_64:\n        /* \"#utility.yul\":1769:1793   */\n      tag_96\n        /* \"#utility.yul\":1787:1792   */\n      dup2\n        /* \"#utility.yul\":1769:1793   */\n      tag_63\n      jump\t// in\n    tag_96:\n        /* \"#utility.yul\":1762:1767   */\n      dup2\n        /* \"#utility.yul\":1759:1794   */\n      eq\n        /* \"#utility.yul\":1749:1812   */\n      tag_97\n      jumpi\n        /* \"#utility.yul\":1808:1809   */\n      0x00\n        /* \"#utility.yul\":1805:1806   */\n      dup1\n        /* \"#utility.yul\":1798:1810   */\n      revert\n        /* \"#utility.yul\":1749:1812   */\n    tag_97:\n        /* \"#utility.yul\":1696:1818   */\n      pop\n      jump\t// out\n        /* \"#utility.yul\":1824:1963   */\n    tag_65:\n        /* \"#utility.yul\":1870:1875   */\n      0x00\n        /* \"#utility.yul\":1908:1914   */\n      dup2\n        /* \"#utility.yul\":1895:1915   */\n      calldataload\n        /* \"#utility.yul\":1886:1915   */\n      swap1\n      pop\n        /* \"#utility.yul\":1924:1957   */\n      tag_99\n        /* \"#utility.yul\":1951:1956   */\n      dup2\n        /* \"#utility.yul\":1924:1957   */\n      tag_64\n      jump\t// in\n    tag_99:\n        /* \"#utility.yul\":1824:1963   */\n      swap3\n      swap2\n      pop\n      pop\n      jump\t// out\n        /* \"#utility.yul\":1986:2696   */\n    tag_66:\n        /* \"#utility.yul\":2082:2087   */\n      0x00\n        /* \"#utility.yul\":2107:2188   */\n      tag_101\n        /* \"#utility.yul\":2123:2187   */\n      tag_102\n        /* \"#utility.yul\":2180:2186   */\n      dup5\n        /* \"#utility.yul\":2123:2187   */\n      tag_61\n      jump\t// in\n    tag_102:\n        /* \"#utility.yul\":2107:2188   */\n      tag_60\n      jump\t// in\n    tag_101:\n        /* \"#utility.yul\":2098:2188   */\n      swap1\n      pop\n        /* \"#utility.yul\":2208:2213   */\n      dup1\n        /* \"#utility.yul\":2237:2243   */\n      dup4\n        /* \"#utility.yul\":2230:2235   */\n      dup3\n        /* \"#utility.yul\":2223:2244   */\n      mstore\n        /* \"#utility.yul\":2271:2275   */\n      0x20\n        /* \"#utility.yul\":2264:2269   */\n      dup3\n        /* \"#utility.yul\":2260:2276   */\n      add\n        /* \"#utility.yul\":2253:2276   */\n      swap1\n      pop\n        /* \"#utility.yul\":2324:2328   */\n      0x20\n        /* \"#utility.yul\":2316:2322   */\n      dup5\n        /* \"#utility.yul\":2312:2329   */\n      mul\n        /* \"#utility.yul\":2304:2310   */\n      dup4\n        /* \"#utility.yul\":2300:2330   */\n      add\n        /* \"#utility.yul\":2353:2356   */\n      dup6\n        /* \"#utility.yul\":2345:2351   */\n      dup2\n        /* \"#utility.yul\":2342:2357   */\n      gt\n        /* \"#utility.yul\":2339:2461   */\n      iszero\n      tag_103\n      jumpi\n        /* \"#utility.yul\":2372:2451   */\n      tag_104\n      tag_62\n      jump\t// in\n    tag_104:\n        /* \"#utility.yul\":2339:2461   */\n    tag_103:\n        /* \"#utility.yul\":2487:2493   */\n      dup4\n        /* \"#utility.yul\":2470:2690   */\n    tag_105:\n        /* \"#utility.yul\":2504:2510   */\n      dup2\n        /* \"#utility.yul\":2499:2502   */\n      dup2\n        /* \"#utility.yul\":2496:2511   */\n      lt\n        /* \"#utility.yul\":2470:2690   */\n      iszero\n      tag_107\n      jumpi\n        /* \"#utility.yul\":2579:2582   */\n      dup1\n        /* \"#utility.yul\":2608:2645   */\n      tag_108\n        /* \"#utility.yul\":2641:2644   */\n      dup9\n        /* \"#utility.yul\":2629:2639   */\n      dup3\n        /* \"#utility.yul\":2608:2645   */\n      tag_65\n      jump\t// in\n    tag_108:\n        /* \"#utility.yul\":2603:2606   */\n      dup5\n        /* \"#utility.yul\":2596:2646   */\n      mstore\n        /* \"#utility.yul\":2675:2679   */\n      0x20\n        /* \"#utility.yul\":2670:2673   */\n      dup5\n        /* \"#utility.yul\":2666:2680   */\n      add\n        /* \"#utility.yul\":2659:2680   */\n      swap4\n      pop\n        /* \"#utility.yul\":2546:2690   */\n      pop\n        /* \"#utility.yul\":2530:2534   */\n      0x20\n        /* \"#utility.yul\":2525:2528   */\n      dup2\n        /* \"#utility.yul\":2521:2535   */\n      add\n        /* \"#utility.yul\":2514:2535   */\n      swap1\n      pop\n        /* \"#utility.yul\":2470:2690   */\n      jump(tag_105)\n    tag_107:\n        /* \"#utility.yul\":2474:2495   */\n      pop\n        /* \"#utility.yul\":2088:2696   */\n      pop\n      pop\n        /* \"#utility.yul\":1986:2696   */\n      swap4\n      swap3\n      pop\n      pop\n      pop\n      jump\t// out\n        /* \"#utility.yul\":2719:3089   */\n    tag_67:\n        /* \"#utility.yul\":2790:2795   */\n      0x00\n        /* \"#utility.yul\":2839:2842   */\n      dup3\n        /* \"#utility.yul\":2832:2836   */\n      0x1f\n        /* \"#utility.yul\":2824:2830   */\n      dup4\n        /* \"#utility.yul\":2820:2837   */\n      add\n        /* \"#utility.yul\":2816:2843   */\n      slt\n        /* \"#utility.yul\":2806:2928   */\n      tag_110\n      jumpi\n        /* \"#utility.yul\":2847:2926   */\n      tag_111\n      tag_57\n      jump\t// in\n    tag_111:\n        /* \"#utility.yul\":2806:2928   */\n    tag_110:\n        /* \"#utility.yul\":2964:2970   */\n      dup2\n        /* \"#utility.yul\":2951:2971   */\n      calldataload\n        /* \"#utility.yul\":2989:3083   */\n      tag_112\n        /* \"#utility.yul\":3079:3082   */\n      dup5\n        /* \"#utility.yul\":3071:3077   */\n      dup3\n        /* \"#utility.yul\":3064:3068   */\n      0x20\n        /* \"#utility.yul\":3056:3062   */\n      dup7\n        /* \"#utility.yul\":3052:3069   */\n      add\n        /* \"#utility.yul\":2989:3083   */\n      tag_66\n      jump\t// in\n    tag_112:\n        /* \"#utility.yul\":2980:3083   */\n      swap2\n      pop\n        /* \"#utility.yul\":2796:3089   */\n      pop\n        /* \"#utility.yul\":2719:3089   */\n      swap3\n      swap2\n      pop\n      pop\n      jump\t// out\n        /* \"#utility.yul\":3095:3989   */\n    tag_6:\n        /* \"#utility.yul\":3213:3219   */\n      0x00\n        /* \"#utility.yul\":3221:3227   */\n      dup1\n        /* \"#utility.yul\":3270:3272   */\n      0x40\n        /* \"#utility.yul\":3258:3267   */\n      dup4\n        /* \"#utility.yul\":3249:3256   */\n      dup6\n        /* \"#utility.yul\":3245:3268   */\n      sub\n        /* \"#utility.yul\":3241:3273   */\n      slt\n        /* \"#utility.yul\":3238:3357   */\n      iszero\n      tag_114\n      jumpi\n        /* \"#utility.yul\":3276:3355   */\n      tag_115\n      tag_55\n      jump\t// in\n    tag_115:\n        /* \"#utility.yul\":3238:3357   */\n    tag_114:\n        /* \"#utility.yul\":3424:3425   */\n      0x00\n        /* \"#utility.yul\":3413:3422   */\n      dup4\n        /* \"#utility.yul\":3409:3426   */\n      add\n        /* \"#utility.yul\":3396:3427   */\n      calldataload\n        /* \"#utility.yul\":3454:3472   */\n      0xffffffffffffffff\n        /* \"#utility.yul\":3446:3452   */\n      dup2\n        /* \"#utility.yul\":3443:3473   */\n      gt\n        /* \"#utility.yul\":3440:3557   */\n      iszero\n      tag_116\n      jumpi\n        /* \"#utility.yul\":3476:3555   */\n      tag_117\n      tag_56\n      jump\t// in\n    tag_117:\n        /* \"#utility.yul\":3440:3557   */\n    tag_116:\n        /* \"#utility.yul\":3581:3659   */\n      tag_118\n        /* \"#utility.yul\":3651:3658   */\n      dup6\n        /* \"#utility.yul\":3642:3648   */\n      dup3\n        /* \"#utility.yul\":3631:3640   */\n      dup7\n        /* \"#utility.yul\":3627:3649   */\n      add\n        /* \"#utility.yul\":3581:3659   */\n      tag_67\n      jump\t// in\n    tag_118:\n        /* \"#utility.yul\":3571:3659   */\n      swap3\n      pop\n        /* \"#utility.yul\":3367:3669   */\n      pop\n        /* \"#utility.yul\":3736:3738   */\n      0x20\n        /* \"#utility.yul\":3725:3734   */\n      dup4\n        /* \"#utility.yul\":3721:3739   */\n      add\n        /* \"#utility.yul\":3708:3740   */\n      calldataload\n        /* \"#utility.yul\":3767:3785   */\n      0xffffffffffffffff\n        /* \"#utility.yul\":3759:3765   */\n      dup2\n        /* \"#utility.yul\":3756:3786   */\n      gt\n        /* \"#utility.yul\":3753:3870   */\n      iszero\n      tag_119\n      jumpi\n        /* \"#utility.yul\":3789:3868   */\n      tag_120\n      tag_56\n      jump\t// in\n    tag_120:\n        /* \"#utility.yul\":3753:3870   */\n    tag_119:\n        /* \"#utility.yul\":3894:3972   */\n      tag_121\n        /* \"#utility.yul\":3964:3971   */\n      dup6\n        /* \"#utility.yul\":3955:3961   */\n      dup3\n        /* \"#utility.yul\":3944:3953   */\n      dup7\n        /* \"#utility.yul\":3940:3962   */\n      add\n        /* \"#utility.yul\":3894:3972   */\n      tag_67\n      jump\t// in\n    tag_121:\n        /* \"#utility.yul\":3884:3972   */\n      swap2\n      pop\n        /* \"#utility.yul\":3679:3982   */\n      pop\n        /* \"#utility.yul\":3095:3989   */\n      swap3\n      pop\n      swap3\n      swap1\n      pop\n      jump\t// out\n        /* \"#utility.yul\":3995:4109   */\n    tag_68:\n        /* \"#utility.yul\":4062:4068   */\n      0x00\n        /* \"#utility.yul\":4096:4101   */\n      dup2\n        /* \"#utility.yul\":4090:4102   */\n      mload\n        /* \"#utility.yul\":4080:4102   */\n      swap1\n      pop\n        /* \"#utility.yul\":3995:4109   */\n      swap2\n      swap1\n      pop\n      jump\t// out\n        /* \"#utility.yul\":4115:4299   */\n    tag_69:\n        /* \"#utility.yul\":4214:4225   */\n      0x00\n        /* \"#utility.yul\":4248:4254   */\n      dup3\n        /* \"#utility.yul\":4243:4246   */\n      dup3\n        /* \"#utility.yul\":4236:4255   */\n      mstore\n        /* \"#utility.yul\":4288:4292   */\n      0x20\n        /* \"#utility.yul\":4283:4286   */\n      dup3\n        /* \"#utility.yul\":4279:4293   */\n      add\n        /* \"#utility.yul\":4264:4293   */\n      swap1\n      pop\n        /* \"#utility.yul\":4115:4299   */\n      swap3\n      swap2\n      pop\n      pop\n      jump\t// out\n        /* \"#utility.yul\":4305:4437   */\n    tag_70:\n        /* \"#utility.yul\":4372:4376   */\n      0x00\n        /* \"#utility.yul\":4395:4398   */\n      dup2\n        /* \"#utility.yul\":4387:4398   */\n      swap1\n      pop\n        /* \"#utility.yul\":4425:4429   */\n      0x20\n        /* \"#utility.yul\":4420:4423   */\n      dup3\n        /* \"#utility.yul\":4416:4430   */\n      add\n        /* \"#utility.yul\":4408:4430   */\n      swap1\n      pop\n        /* \"#utility.yul\":4305:4437   */\n      swap2\n      swap1\n      pop\n      jump\t// out\n        /* \"#utility.yul\":4443:4551   */\n    tag_71:\n        /* \"#utility.yul\":4520:4544   */\n      tag_126\n        /* \"#utility.yul\":4538:4543   */\n      dup2\n        /* \"#utility.yul\":4520:4544   */\n      tag_63\n      jump\t// in\n    tag_126:\n        /* \"#utility.yul\":4515:4518   */\n      dup3\n        /* \"#utility.yul\":4508:4545   */\n      mstore\n        /* \"#utility.yul\":4443:4551   */\n      pop\n      pop\n      jump\t// out\n        /* \"#utility.yul\":4557:4736   */\n    tag_72:\n        /* \"#utility.yul\":4626:4636   */\n      0x00\n        /* \"#utility.yul\":4647:4693   */\n      tag_128\n        /* \"#utility.yul\":4689:4692   */\n      dup4\n        /* \"#utility.yul\":4681:4687   */\n      dup4\n        /* \"#utility.yul\":4647:4693   */\n      tag_71\n      jump\t// in\n    tag_128:\n        /* \"#utility.yul\":4725:4729   */\n      0x20\n        /* \"#utility.yul\":4720:4723   */\n      dup4\n        /* \"#utility.yul\":4716:4730   */\n      add\n        /* \"#utility.yul\":4702:4730   */\n      swap1\n      pop\n        /* \"#utility.yul\":4557:4736   */\n      swap3\n      swap2\n      pop\n      pop\n      jump\t// out\n        /* \"#utility.yul\":4742:4855   */\n    tag_73:\n        /* \"#utility.yul\":4812:4816   */\n      0x00\n        /* \"#utility.yul\":4844:4848   */\n      0x20\n        /* \"#utility.yul\":4839:4842   */\n      dup3\n        /* \"#utility.yul\":4835:4849   */\n      add\n        /* \"#utility.yul\":4827:4849   */\n      swap1\n      pop\n        /* \"#utility.yul\":4742:4855   */\n      swap2\n      swap1\n      pop\n      jump\t// out\n        /* \"#utility.yul\":4891:5623   */\n    tag_74:\n        /* \"#utility.yul\":5010:5013   */\n      0x00\n        /* \"#utility.yul\":5039:5093   */\n      tag_131\n        /* \"#utility.yul\":5087:5092   */\n      dup3\n        /* \"#utility.yul\":5039:5093   */\n      tag_68\n      jump\t// in\n    tag_131:\n        /* \"#utility.yul\":5109:5195   */\n      tag_132\n        /* \"#utility.yul\":5188:5194   */\n      dup2\n        /* \"#utility.yul\":5183:5186   */\n      dup6\n        /* \"#utility.yul\":5109:5195   */\n      tag_69\n      jump\t// in\n    tag_132:\n        /* \"#utility.yul\":5102:5195   */\n      swap4\n      pop\n        /* \"#utility.yul\":5219:5275   */\n      tag_133\n        /* \"#utility.yul\":5269:5274   */\n      dup4\n        /* \"#utility.yul\":5219:5275   */\n      tag_70\n      jump\t// in\n    tag_133:\n        /* \"#utility.yul\":5298:5305   */\n      dup1\n        /* \"#utility.yul\":5329:5330   */\n      0x00\n        /* \"#utility.yul\":5314:5598   */\n    tag_134:\n        /* \"#utility.yul\":5339:5345   */\n      dup4\n        /* \"#utility.yul\":5336:5337   */\n      dup2\n        /* \"#utility.yul\":5333:5346   */\n      lt\n        /* \"#utility.yul\":5314:5598   */\n      iszero\n      tag_136\n      jumpi\n        /* \"#utility.yul\":5415:5421   */\n      dup2\n        /* \"#utility.yul\":5409:5422   */\n      mload\n        /* \"#utility.yul\":5442:5505   */\n      tag_137\n        /* \"#utility.yul\":5501:5504   */\n      dup9\n        /* \"#utility.yul\":5486:5499   */\n      dup3\n        /* \"#utility.yul\":5442:5505   */\n      tag_72\n      jump\t// in\n    tag_137:\n        /* \"#utility.yul\":5435:5505   */\n      swap8\n      pop\n        /* \"#utility.yul\":5528:5588   */\n      tag_138\n        /* \"#utility.yul\":5581:5587   */\n      dup4\n        /* \"#utility.yul\":5528:5588   */\n      tag_73\n      jump\t// in\n    tag_138:\n        /* \"#utility.yul\":5518:5588   */\n      swap3\n      pop\n        /* \"#utility.yul\":5374:5598   */\n      pop\n        /* \"#utility.yul\":5361:5362   */\n      0x01\n        /* \"#utility.yul\":5358:5359   */\n      dup2\n        /* \"#utility.yul\":5354:5363   */\n      add\n        /* \"#utility.yul\":5349:5363   */\n      swap1\n      pop\n        /* \"#utility.yul\":5314:5598   */\n      jump(tag_134)\n    tag_136:\n        /* \"#utility.yul\":5318:5332   */\n      pop\n        /* \"#utility.yul\":5614:5617   */\n      dup6\n        /* \"#utility.yul\":5607:5617   */\n      swap4\n      pop\n        /* \"#utility.yul\":5015:5623   */\n      pop\n      pop\n      pop\n        /* \"#utility.yul\":4891:5623   */\n      swap3\n      swap2\n      pop\n      pop\n      jump\t// out\n        /* \"#utility.yul\":5629:6002   */\n    tag_9:\n        /* \"#utility.yul\":5772:5776   */\n      0x00\n        /* \"#utility.yul\":5810:5812   */\n      0x20\n        /* \"#utility.yul\":5799:5808   */\n      dup3\n        /* \"#utility.yul\":5795:5813   */\n      add\n        /* \"#utility.yul\":5787:5813   */\n      swap1\n      pop\n        /* \"#utility.yul\":5859:5868   */\n      dup2\n        /* \"#utility.yul\":5853:5857   */\n      dup2\n        /* \"#utility.yul\":5849:5869   */\n      sub\n        /* \"#utility.yul\":5845:5846   */\n      0x00\n        /* \"#utility.yul\":5834:5843   */\n      dup4\n        /* \"#utility.yul\":5830:5847   */\n      add\n        /* \"#utility.yul\":5823:5870   */\n      mstore\n        /* \"#utility.yul\":5887:5995   */\n      tag_140\n        /* \"#utility.yul\":5990:5994   */\n      dup2\n        /* \"#utility.yul\":5981:5987   */\n      dup5\n        /* \"#utility.yul\":5887:5995   */\n      tag_74\n      jump\t// in\n    tag_140:\n        /* \"#utility.yul\":5879:5995   */\n      swap1\n      pop\n        /* \"#utility.yul\":5629:6002   */\n      swap3\n      swap2\n      pop\n      pop\n      jump\t// out\n        /* \"#utility.yul\":6008:6188   */\n    tag_75:\n        /* \"#utility.yul\":6056:6133   */\n      0x4e487b7100000000000000000000000000000000000000000000000000000000\n        /* \"#utility.yul\":6053:6054   */\n      0x00\n        /* \"#utility.yul\":6046:6134   */\n      mstore\n        /* \"#utility.yul\":6153:6157   */\n      0x11\n        /* \"#utility.yul\":6150:6151   */\n      0x04\n        /* \"#utility.yul\":6143:6158   */\n      mstore\n        /* \"#utility.yul\":6177:6181   */\n      0x24\n        /* \"#utility.yul\":6174:6175   */\n      0x00\n        /* \"#utility.yul\":6167:6182   */\n      revert\n        /* \"#utility.yul\":6194:6385   */\n    tag_12:\n        /* \"#utility.yul\":6234:6237   */\n      0x00\n        /* \"#utility.yul\":6253:6273   */\n      tag_143\n        /* \"#utility.yul\":6271:6272   */\n      dup3\n        /* \"#utility.yul\":6253:6273   */\n      tag_63\n      jump\t// in\n    tag_143:\n        /* \"#utility.yul\":6248:6273   */\n      swap2\n      pop\n        /* \"#utility.yul\":6287:6307   */\n      tag_144\n        /* \"#utility.yul\":6305:6306   */\n      dup4\n        /* \"#utility.yul\":6287:6307   */\n      tag_63\n      jump\t// in\n    tag_144:\n        /* \"#utility.yul\":6282:6307   */\n      swap3\n      pop\n        /* \"#utility.yul\":6330:6331   */\n      dup3\n        /* \"#utility.yul\":6327:6328   */\n      dup3\n        /* \"#utility.yul\":6323:6332   */\n      add\n        /* \"#utility.yul\":6316:6332   */\n      swap1\n      pop\n        /* \"#utility.yul\":6351:6354   */\n      dup1\n        /* \"#utility.yul\":6348:6349   */\n      dup3\n        /* \"#utility.yul\":6345:6355   */\n      gt\n        /* \"#utility.yul\":6342:6378   */\n      iszero\n      tag_145\n      jumpi\n        /* \"#utility.yul\":6358:6376   */\n      tag_146\n      tag_75\n      jump\t// in\n    tag_146:\n        /* \"#utility.yul\":6342:6378   */\n    tag_145:\n        /* \"#utility.yul\":6194:6385   */\n      swap3\n      swap2\n      pop\n      pop\n      jump\t// out\n        /* \"#utility.yul\":6391:6571   */\n    tag_22:\n        /* \"#utility.yul\":6439:6516   */\n      0x4e487b7100000000000000000000000000000000000000000000000000000000\n        /* \"#utility.yul\":6436:6437   */\n      0x00\n        /* \"#utility.yul\":6429:6517   */\n      mstore\n        /* \"#utility.yul\":6536:6540   */\n      0x32\n        /* \"#utility.yul\":6533:6534   */\n      0x04\n        /* \"#utility.yul\":6526:6541   */\n      mstore\n        /* \"#utility.yul\":6560:6564   */\n      0x24\n        /* \"#utility.yul\":6557:6558   */\n      0x00\n        /* \"#utility.yul\":6550:6565   */\n      revert\n        /* \"#utility.yul\":6577:6771   */\n    tag_42:\n        /* \"#utility.yul\":6617:6621   */\n      0x00\n        /* \"#utility.yul\":6637:6657   */\n      tag_149\n        /* \"#utility.yul\":6655:6656   */\n      dup3\n        /* \"#utility.yul\":6637:6657   */\n      tag_63\n      jump\t// in\n    tag_149:\n        /* \"#utility.yul\":6632:6657   */\n      swap2\n      pop\n        /* \"#utility.yul\":6671:6691   */\n      tag_150\n        /* \"#utility.yul\":6689:6690   */\n      dup4\n        /* \"#utility.yul\":6671:6691   */\n      tag_63\n      jump\t// in\n    tag_150:\n        /* \"#utility.yul\":6666:6691   */\n      swap3\n      pop\n        /* \"#utility.yul\":6715:6716   */\n      dup3\n        /* \"#utility.yul\":6712:6713   */\n      dup3\n        /* \"#utility.yul\":6708:6717   */\n      sub\n        /* \"#utility.yul\":6700:6717   */\n      swap1\n      pop\n        /* \"#utility.yul\":6739:6740   */\n      dup2\n        /* \"#utility.yul\":6733:6737   */\n      dup2\n        /* \"#utility.yul\":6730:6741   */\n      gt\n        /* \"#utility.yul\":6727:6764   */\n      iszero\n      tag_151\n      jumpi\n        /* \"#utility.yul\":6744:6762   */\n      tag_152\n      tag_75\n      jump\t// in\n    tag_152:\n        /* \"#utility.yul\":6727:6764   */\n    tag_151:\n        /* \"#utility.yul\":6577:6771   */\n      swap3\n      swap2\n      pop\n      pop\n      jump\t// out\n        /* \"#utility.yul\":6777:6948   */\n    tag_51:\n        /* \"#utility.yul\":6816:6819   */\n      0x00\n        /* \"#utility.yul\":6839:6863   */\n      tag_154\n        /* \"#utility.yul\":6857:6862   */\n      dup3\n        /* \"#utility.yul\":6839:6863   */\n      tag_63\n      jump\t// in\n    tag_154:\n        /* \"#utility.yul\":6830:6863   */\n      swap2\n      pop\n        /* \"#utility.yul\":6885:6889   */\n      0x00\n        /* \"#utility.yul\":6878:6883   */\n      dup3\n        /* \"#utility.yul\":6875:6890   */\n      sub\n        /* \"#utility.yul\":6872:6913   */\n      tag_155\n      jumpi\n        /* \"#utility.yul\":6893:6911   */\n      tag_156\n      tag_75\n      jump\t// in\n    tag_156:\n        /* \"#utility.yul\":6872:6913   */\n    tag_155:\n        /* \"#utility.yul\":6940:6941   */\n      0x01\n        /* \"#utility.yul\":6933:6938   */\n      dup3\n        /* \"#utility.yul\":6929:6942   */\n      sub\n        /* \"#utility.yul\":6922:6942   */\n      swap1\n      pop\n        /* \"#utility.yul\":6777:6948   */\n      swap2\n      swap1\n      pop\n      jump\t// out\n\n    auxdata: 0xa2646970667358221220784c328989acb70d2cfee957976c69fb68166dd3b4878c457dc90c8d033d637b64736f6c634300081a0033\n}\n",
				"bytecode": {
					"linkReferences": {},
					"object": "6080604052348015600e575f80fd5b506106668061001c5f395ff3fe608060405234801561000f575f80fd5b5060043610610029575f3560e01c80634cf0cc0d1461002d575b5f80fd5b610047600480360381019061004291906103fc565b61005d565b6040516100549190610529565b60405180910390f35b60605f8251845161006e9190610576565b67ffffffffffffffff8111156100875761008661028d565b5b6040519080825280602002602001820160405280156100b55781602001602082028036833780820191505090505b5090505f5b845181101561010a578481815181106100d6576100d56105a9565b5b60200260200101518282815181106100f1576100f06105a9565b5b60200260200101818152505080806001019150506100ba565b505f5b835181101561016957838181518110610129576101286105a9565b5b60200260200101518282875161013f9190610576565b815181106101505761014f6105a9565b5b602002602001018181525050808060010191505061010d565b505f600190505b815181101561025d575f82828151811061018d5761018c6105a9565b5b602002602001015190505f8290505b5f811180156101d0575081846001836101b591906105d6565b815181106101c6576101c56105a9565b5b6020026020010151115b1561022e57836001826101e391906105d6565b815181106101f4576101f36105a9565b5b602002602001015184828151811061020f5761020e6105a9565b5b602002602001018181525050808061022690610609565b91505061019c565b81848281518110610242576102416105a9565b5b60200260200101818152505050508080600101915050610170565b508091505092915050565b5f604051905090565b5f80fd5b5f80fd5b5f80fd5b5f601f19601f8301169050919050565b7f4e487b71000000000000000000000000000000000000000000000000000000005f52604160045260245ffd5b6102c38261027d565b810181811067ffffffffffffffff821117156102e2576102e161028d565b5b80604052505050565b5f6102f4610268565b905061030082826102ba565b919050565b5f67ffffffffffffffff82111561031f5761031e61028d565b5b602082029050602081019050919050565b5f80fd5b5f819050919050565b61034681610334565b8114610350575f80fd5b50565b5f813590506103618161033d565b92915050565b5f61037961037484610305565b6102eb565b9050808382526020820190506020840283018581111561039c5761039b610330565b5b835b818110156103c557806103b18882610353565b84526020840193505060208101905061039e565b5050509392505050565b5f82601f8301126103e3576103e2610279565b5b81356103f3848260208601610367565b91505092915050565b5f806040838503121561041257610411610271565b5b5f83013567ffffffffffffffff81111561042f5761042e610275565b5b61043b858286016103cf565b925050602083013567ffffffffffffffff81111561045c5761045b610275565b5b610468858286016103cf565b9150509250929050565b5f81519050919050565b5f82825260208201905092915050565b5f819050602082019050919050565b6104a481610334565b82525050565b5f6104b5838361049b565b60208301905092915050565b5f602082019050919050565b5f6104d782610472565b6104e1818561047c565b93506104ec8361048c565b805f5b8381101561051c57815161050388826104aa565b975061050e836104c1565b9250506001810190506104ef565b5085935050505092915050565b5f6020820190508181035f83015261054181846104cd565b905092915050565b7f4e487b71000000000000000000000000000000000000000000000000000000005f52601160045260245ffd5b5f61058082610334565b915061058b83610334565b92508282019050808211156105a3576105a2610549565b5b92915050565b7f4e487b71000000000000000000000000000000000000000000000000000000005f52603260045260245ffd5b5f6105e082610334565b91506105eb83610334565b925082820390508181111561060357610602610549565b5b92915050565b5f61061382610334565b91505f820361062557610624610549565b5b60018203905091905056fea2646970667358221220784c328989acb70d2cfee957976c69fb68166dd3b4878c457dc90c8d033d637b64736f6c634300081a0033",
					"opcodes": "PUSH1 0x80 PUSH1 0x40 MSTORE CALLVALUE DUP1 ISZERO PUSH1 0xE JUMPI PUSH0 DUP1 REVERT JUMPDEST POP PUSH2 0x666 DUP1 PUSH2 0x1C PUSH0 CODECOPY PUSH0 RETURN INVALID PUSH1 0x80 PUSH1 0x40 MSTORE CALLVALUE DUP1 ISZERO PUSH2 0xF JUMPI PUSH0 DUP1 REVERT JUMPDEST POP PUSH1 0x4 CALLDATASIZE LT PUSH2 0x29 JUMPI PUSH0 CALLDATALOAD PUSH1 0xE0 SHR DUP1 PUSH4 0x4CF0CC0D EQ PUSH2 0x2D JUMPI JUMPDEST PUSH0 DUP1 REVERT JUMPDEST PUSH2 0x47 PUSH1 0x4 DUP1 CALLDATASIZE SUB DUP2 ADD SWAP1 PUSH2 0x42 SWAP2 SWAP1 PUSH2 0x3FC JUMP JUMPDEST PUSH2 0x5D JUMP JUMPDEST PUSH1 0x40 MLOAD PUSH2 0x54 SWAP2 SWAP1 PUSH2 0x529 JUMP JUMPDEST PUSH1 0x40 MLOAD DUP1 SWAP2 SUB SWAP1 RETURN JUMPDEST PUSH1 0x60 PUSH0 DUP3 MLOAD DUP5 MLOAD PUSH2 0x6E SWAP2 SWAP1 PUSH2 0x576 JUMP JUMPDEST PUSH8 0xFFFFFFFFFFFFFFFF DUP2 GT ISZERO PUSH2 0x87 JUMPI PUSH2 0x86 PUSH2 0x28D JUMP JUMPDEST JUMPDEST PUSH1 0x40 MLOAD SWAP1 DUP1 DUP3 MSTORE DUP1 PUSH1 0x20 MUL PUSH1 0x20 ADD DUP3 ADD PUSH1 0x40 MSTORE DUP1 ISZERO PUSH2 0xB5 JUMPI DUP2 PUSH1 0x20 ADD PUSH1 0x20 DUP3 MUL DUP1 CALLDATASIZE DUP4 CALLDATACOPY DUP1 DUP3 ADD SWAP2 POP POP SWAP1 POP JUMPDEST POP SWAP1 POP PUSH0 JUMPDEST DUP5 MLOAD DUP2 LT ISZERO PUSH2 0x10A JUMPI DUP5 DUP2 DUP2 MLOAD DUP2 LT PUSH2 0xD6 JUMPI PUSH2 0xD5 PUSH2 0x5A9 JUMP JUMPDEST JUMPDEST PUSH1 0x20 MUL PUSH1 0x20 ADD ADD MLOAD DUP3 DUP3 DUP2 MLOAD DUP2 LT PUSH2 0xF1 JUMPI PUSH2 0xF0 PUSH2 0x5A9 JUMP JUMPDEST JUMPDEST PUSH1 0x20 MUL PUSH1 0x20 ADD ADD DUP2 DUP2 MSTORE POP POP DUP1 DUP1 PUSH1 0x1 ADD SWAP2 POP POP PUSH2 0xBA JUMP JUMPDEST POP PUSH0 JUMPDEST DUP4 MLOAD DUP2 LT ISZERO PUSH2 0x169 JUMPI DUP4 DUP2 DUP2 MLOAD DUP2 LT PUSH2 0x129 JUMPI PUSH2 0x128 PUSH2 0x5A9 JUMP JUMPDEST JUMPDEST PUSH1 0x20 MUL PUSH1 0x20 ADD ADD MLOAD DUP3 DUP3 DUP8 MLOAD PUSH2 0x13F SWAP2 SWAP1 PUSH2 0x576 JUMP JUMPDEST DUP2 MLOAD DUP2 LT PUSH2 0x150 JUMPI PUSH2 0x14F PUSH2 0x5A9 JUMP JUMPDEST JUMPDEST PUSH1 0x20 MUL PUSH1 0x20 ADD ADD DUP2 DUP2 MSTORE POP POP DUP1 DUP1 PUSH1 0x1 ADD SWAP2 POP POP PUSH2 0x10D JUMP JUMPDEST POP PUSH0 PUSH1 0x1 SWAP1 POP JUMPDEST DUP2 MLOAD DUP2 LT ISZERO PUSH2 0x25D JUMPI PUSH0 DUP3 DUP3 DUP2 MLOAD DUP2 LT PUSH2 0x18D JUMPI PUSH2 0x18C PUSH2 0x5A9 JUMP JUMPDEST JUMPDEST PUSH1 0x20 MUL PUSH1 0x20 ADD ADD MLOAD SWAP1 POP PUSH0 DUP3 SWAP1 POP JUMPDEST PUSH0 DUP2 GT DUP1 ISZERO PUSH2 0x1D0 JUMPI POP DUP2 DUP5 PUSH1 0x1 DUP4 PUSH2 0x1B5 SWAP2 SWAP1 PUSH2 0x5D6 JUMP JUMPDEST DUP2 MLOAD DUP2 LT PUSH2 0x1C6 JUMPI PUSH2 0x1C5 PUSH2 0x5A9 JUMP JUMPDEST JUMPDEST PUSH1 0x20 MUL PUSH1 0x20 ADD ADD MLOAD GT JUMPDEST ISZERO PUSH2 0x22E JUMPI DUP4 PUSH1 0x1 DUP3 PUSH2 0x1E3 SWAP2 SWAP1 PUSH2 0x5D6 JUMP JUMPDEST DUP2 MLOAD DUP2 LT PUSH2 0x1F4 JUMPI PUSH2 0x1F3 PUSH2 0x5A9 JUMP JUMPDEST JUMPDEST PUSH1 0x20 MUL PUSH1 0x20 ADD ADD MLOAD DUP5 DUP3 DUP2 MLOAD DUP2 LT PUSH2 0x20F JUMPI PUSH2 0x20E PUSH2 0x5A9 JUMP JUMPDEST JUMPDEST PUSH1 0x20 MUL PUSH1 0x20 ADD ADD DUP2 DUP2 MSTORE POP POP DUP1 DUP1 PUSH2 0x226 SWAP1 PUSH2 0x609 JUMP JUMPDEST SWAP2 POP POP PUSH2 0x19C JUMP JUMPDEST DUP2 DUP5 DUP3 DUP2 MLOAD DUP2 LT PUSH2 0x242 JUMPI PUSH2 0x241 PUSH2 0x5A9 JUMP JUMPDEST JUMPDEST PUSH1 0x20 MUL PUSH1 0x20 ADD ADD DUP2 DUP2 MSTORE POP POP POP POP DUP1 DUP1 PUSH1 0x1 ADD SWAP2 POP POP PUSH2 0x170 JUMP JUMPDEST POP DUP1 SWAP2 POP POP SWAP3 SWAP2 POP POP JUMP JUMPDEST PUSH0 PUSH1 0x40 MLOAD SWAP1 POP SWAP1 JUMP JUMPDEST PUSH0 DUP1 REVERT JUMPDEST PUSH0 DUP1 REVERT JUMPDEST PUSH0 DUP1 REVERT JUMPDEST PUSH0 PUSH1 0x1F NOT PUSH1 0x1F DUP4 ADD AND SWAP1 POP SWAP2 SWAP1 POP JUMP JUMPDEST PUSH32 0x4E487B7100000000000000000000000000000000000000000000000000000000 PUSH0 MSTORE PUSH1 0x41 PUSH1 0x4 MSTORE PUSH1 0x24 PUSH0 REVERT JUMPDEST PUSH2 0x2C3 DUP3 PUSH2 0x27D JUMP JUMPDEST DUP2 ADD DUP2 DUP2 LT PUSH8 0xFFFFFFFFFFFFFFFF DUP3 GT OR ISZERO PUSH2 0x2E2 JUMPI PUSH2 0x2E1 PUSH2 0x28D JUMP JUMPDEST JUMPDEST DUP1 PUSH1 0x40 MSTORE POP POP POP JUMP JUMPDEST PUSH0 PUSH2 0x2F4 PUSH2 0x268 JUMP JUMPDEST SWAP1 POP PUSH2 0x300 DUP3 DUP3 PUSH2 0x2BA JUMP JUMPDEST SWAP2 SWAP1 POP JUMP JUMPDEST PUSH0 PUSH8 0xFFFFFFFFFFFFFFFF DUP3 GT ISZERO PUSH2 0x31F JUMPI PUSH2 0x31E PUSH2 0x28D JUMP JUMPDEST JUMPDEST PUSH1 0x20 DUP3 MUL SWAP1 POP PUSH1 0x20 DUP2 ADD SWAP1 POP SWAP2 SWAP1 POP JUMP JUMPDEST PUSH0 DUP1 REVERT JUMPDEST PUSH0 DUP2 SWAP1 POP SWAP2 SWAP1 POP JUMP JUMPDEST PUSH2 0x346 DUP2 PUSH2 0x334 JUMP JUMPDEST DUP2 EQ PUSH2 0x350 JUMPI PUSH0 DUP1 REVERT JUMPDEST POP JUMP JUMPDEST PUSH0 DUP2 CALLDATALOAD SWAP1 POP PUSH2 0x361 DUP2 PUSH2 0x33D JUMP JUMPDEST SWAP3 SWAP2 POP POP JUMP JUMPDEST PUSH0 PUSH2 0x379 PUSH2 0x374 DUP5 PUSH2 0x305 JUMP JUMPDEST PUSH2 0x2EB JUMP JUMPDEST SWAP1 POP DUP1 DUP4 DUP3 MSTORE PUSH1 0x20 DUP3 ADD SWAP1 POP PUSH1 0x20 DUP5 MUL DUP4 ADD DUP6 DUP2 GT ISZERO PUSH2 0x39C JUMPI PUSH2 0x39B PUSH2 0x330 JUMP JUMPDEST JUMPDEST DUP4 JUMPDEST DUP2 DUP2 LT ISZERO PUSH2 0x3C5 JUMPI DUP1 PUSH2 0x3B1 DUP9 DUP3 PUSH2 0x353 JUMP JUMPDEST DUP5 MSTORE PUSH1 0x20 DUP5 ADD SWAP4 POP POP PUSH1 0x20 DUP2 ADD SWAP1 POP PUSH2 0x39E JUMP JUMPDEST POP POP POP SWAP4 SWAP3 POP POP POP JUMP JUMPDEST PUSH0 DUP3 PUSH1 0x1F DUP4 ADD SLT PUSH2 0x3E3 JUMPI PUSH2 0x3E2 PUSH2 0x279 JUMP JUMPDEST JUMPDEST DUP2 CALLDATALOAD PUSH2 0x3F3 DUP5 DUP3 PUSH1 0x20 DUP7 ADD PUSH2 0x367 JUMP JUMPDEST SWAP2 POP POP SWAP3 SWAP2 POP POP JUMP JUMPDEST PUSH0 DUP1 PUSH1 0x40 DUP4 DUP6 SUB SLT ISZERO PUSH2 0x412 JUMPI PUSH2 0x411 PUSH2 0x271 JUMP JUMPDEST JUMPDEST PUSH0 DUP4 ADD CALLDATALOAD PUSH8 0xFFFFFFFFFFFFFFFF DUP2 GT ISZERO PUSH2 0x42F JUMPI PUSH2 0x42E PUSH2 0x275 JUMP JUMPDEST JUMPDEST PUSH2 0x43B DUP6 DUP3 DUP7 ADD PUSH2 0x3CF JUMP JUMPDEST SWAP3 POP POP PUSH1 0x20 DUP4 ADD CALLDATALOAD PUSH8 0xFFFFFFFFFFFFFFFF DUP2 GT ISZERO PUSH2 0x45C JUMPI PUSH2 0x45B PUSH2 0x275 JUMP JUMPDEST JUMPDEST PUSH2 0x468 DUP6 DUP3 DUP7 ADD PUSH2 0x3CF JUMP JUMPDEST SWAP2 POP POP SWAP3 POP SWAP3 SWAP1 POP JUMP JUMPDEST PUSH0 DUP2 MLOAD SWAP1 POP SWAP2 SWAP1 POP JUMP JUMPDEST PUSH0 DUP3 DUP3 MSTORE PUSH1 0x20 DUP3 ADD SWAP1 POP SWAP3 SWAP2 POP POP JUMP JUMPDEST PUSH0 DUP2 SWAP1 POP PUSH1 0x20 DUP3 ADD SWAP1 POP SWAP2 SWAP1 POP JUMP JUMPDEST PUSH2 0x4A4 DUP2 PUSH2 0x334 JUMP JUMPDEST DUP3 MSTORE POP POP JUMP JUMPDEST PUSH0 PUSH2 0x4B5 DUP4 DUP4 PUSH2 0x49B JUMP JUMPDEST PUSH1 0x20 DUP4 ADD SWAP1 POP SWAP3 SWAP2 POP POP JUMP JUMPDEST PUSH0 PUSH1 0x20 DUP3 ADD SWAP1 POP SWAP2 SWAP1 POP JUMP JUMPDEST PUSH0 PUSH2 0x4D7 DUP3 PUSH2 0x472 JUMP JUMPDEST PUSH2 0x4E1 DUP2 DUP6 PUSH2 0x47C JUMP JUMPDEST SWAP4 POP PUSH2 0x4EC DUP4 PUSH2 0x48C JUMP JUMPDEST DUP1 PUSH0 JUMPDEST DUP4 DUP2 LT ISZERO PUSH2 0x51C JUMPI DUP2 MLOAD PUSH2 0x503 DUP9 DUP3 PUSH2 0x4AA JUMP JUMPDEST SWAP8 POP PUSH2 0x50E DUP4 PUSH2 0x4C1 JUMP JUMPDEST SWAP3 POP POP PUSH1 0x1 DUP2 ADD SWAP1 POP PUSH2 0x4EF JUMP JUMPDEST POP DUP6 SWAP4 POP POP POP POP SWAP3 SWAP2 POP POP JUMP JUMPDEST PUSH0 PUSH1 0x20 DUP3 ADD SWAP1 POP DUP2 DUP2 SUB PUSH0 DUP4 ADD MSTORE PUSH2 0x541 DUP2 DUP5 PUSH2 0x4CD JUMP JUMPDEST SWAP1 POP SWAP3 SWAP2 POP POP JUMP JUMPDEST PUSH32 0x4E487B7100000000000000000000000000000000000000000000000000000000 PUSH0 MSTORE PUSH1 0x11 PUSH1 0x4 MSTORE PUSH1 0x24 PUSH0 REVERT JUMPDEST PUSH0 PUSH2 0x580 DUP3 PUSH2 0x334 JUMP JUMPDEST SWAP2 POP PUSH2 0x58B DUP4 PUSH2 0x334 JUMP JUMPDEST SWAP3 POP DUP3 DUP3 ADD SWAP1 POP DUP1 DUP3 GT ISZERO PUSH2 0x5A3 JUMPI PUSH2 0x5A2 PUSH2 0x549 JUMP JUMPDEST JUMPDEST SWAP3 SWAP2 POP POP JUMP JUMPDEST PUSH32 0x4E487B7100000000000000000000000000000000000000000000000000000000 PUSH0 MSTORE PUSH1 0x32 PUSH1 0x4 MSTORE PUSH1 0x24 PUSH0 REVERT JUMPDEST PUSH0 PUSH2 0x5E0 DUP3 PUSH2 0x334 JUMP JUMPDEST SWAP2 POP PUSH2 0x5EB DUP4 PUSH2 0x334 JUMP JUMPDEST SWAP3 POP DUP3 DUP3 SUB SWAP1 POP DUP2 DUP2 GT ISZERO PUSH2 0x603 JUMPI PUSH2 0x602 PUSH2 0x549 JUMP JUMPDEST JUMPDEST SWAP3 SWAP2 POP POP JUMP JUMPDEST PUSH0 PUSH2 0x613 DUP3 PUSH2 0x334 JUMP JUMPDEST SWAP2 POP PUSH0 DUP3 SUB PUSH2 0x625 JUMPI PUSH2 0x624 PUSH2 0x549 JUMP JUMPDEST JUMPDEST PUSH1 0x1 DUP3 SUB SWAP1 POP SWAP2 SWAP1 POP JUMP INVALID LOG2 PUSH5 0x6970667358 0x22 SLT KECCAK256 PUSH25 0x4C328989ACB70D2CFEE957976C69FB68166DD3B4878C457DC9 0xC DUP14 SUB RETURNDATASIZE PUSH4 0x7B64736F PUSH13 0x634300081A0033000000000000 "
				},
				"gasEstimates": {
					"creation": {
						"codeDepositCost": "327600",
						"executionCost": "366",
						"totalCost": "327966"
					},
					"external": {
						"mergeSortedArrays(uint256[],uint256[])": "infinite"
					}
				},
				"methodIdentifiers": {
					"mergeSortedArrays(uint256[],uint256[])": "4cf0cc0d"
				}
			},
			"storageLayout": {
				"storage": [],
				"types": null
			},
			"userdoc": {
				"kind": "user",
				"methods": {},
				"version": 1
			}
		}
	}
}