{
	"task3/convertIntegersToRoman.sol": {
		"convertIntegersToRoman": {
			"abi": [
				{
					"inputs": [
						{
							"internalType": "string",
							"name": "s",
							"type": "string"
						}
					],
					"name": "romanToUint",
					"outputs": [
						{
							"internalType": "uint256",
							"name": "",
							"type": "uint256"
						}
					],
					"stateMutability": "pure",
					"type": "function"
				},
				{
					"inputs": [
						{
							"internalType": "uint256",
							"name": "num",
							"type": "uint256"
						}
					],
					"name": "uintToRoman",
					"outputs": [
						{
							"internalType": "string",
							"name": "",
							"type": "string"
						}
					],
					"stateMutability": "pure",
					"type": "function"
				}
			],
			"devdoc": {
				"kind": "dev",
				"methods": {},
				"version": 1
			},
			"evm": {
				"assembly": "    /* \"task3/convertIntegersToRoman.sol\":74:2080  contract convertIntegersToRoman{... */\n  mstore(0x40, 0x80)\n  callvalue\n  dup1\n  iszero\n  tag_1\n  jumpi\n  0x00\n  dup1\n  revert\ntag_1:\n  pop\n  dataSize(sub_0)\n  dup1\n  dataOffset(sub_0)\n  0x00\n  codecopy\n  0x00\n  return\nstop\n\nsub_0: assembly {\n        /* \"task3/convertIntegersToRoman.sol\":74:2080  contract convertIntegersToRoman{... */\n      mstore(0x40, 0x80)\n      callvalue\n      dup1\n      iszero\n      tag_1\n      jumpi\n      0x00\n      dup1\n      revert\n    tag_1:\n      pop\n      jumpi(tag_2, lt(calldatasize, 0x04))\n      shr(0xe0, calldataload(0x00))\n      dup1\n      0x3d5924f6\n      eq\n      tag_3\n      jumpi\n      dup1\n      0xbf5021e3\n      eq\n      tag_4\n      jumpi\n    tag_2:\n      0x00\n      dup1\n      revert\n        /* \"task3/convertIntegersToRoman.sol\":1196:1743  function romanToUint(string memory s) public pure returns (uint256) {... */\n    tag_3:\n      tag_5\n      0x04\n      dup1\n      calldatasize\n      sub\n      dup2\n      add\n      swap1\n      tag_6\n      swap2\n      swap1\n      tag_7\n      jump\t// in\n    tag_6:\n      tag_8\n      jump\t// in\n    tag_5:\n      mload(0x40)\n      tag_9\n      swap2\n      swap1\n      tag_10\n      jump\t// in\n    tag_9:\n      mload(0x40)\n      dup1\n      swap2\n      sub\n      swap1\n      return\n        /* \"task3/convertIntegersToRoman.sol\":286:1134  function uintToRoman(uint num) public pure returns (string memory) {... */\n    tag_4:\n      tag_11\n      0x04\n      dup1\n      calldatasize\n      sub\n      dup2\n      add\n      swap1\n      tag_12\n      swap2\n      swap1\n      tag_13\n      jump\t// in\n    tag_12:\n      tag_14\n      jump\t// in\n    tag_11:\n      mload(0x40)\n      tag_15\n      swap2\n      swap1\n      tag_16\n      jump\t// in\n    tag_15:\n      mload(0x40)\n      dup1\n      swap2\n      sub\n      swap1\n      return\n        /* \"task3/convertIntegersToRoman.sol\":1196:1743  function romanToUint(string memory s) public pure returns (uint256) {... */\n    tag_8:\n        /* \"task3/convertIntegersToRoman.sol\":1255:1262  uint256 */\n      0x00\n        /* \"task3/convertIntegersToRoman.sol\":1275:1293  bytes memory roman */\n      dup1\n        /* \"task3/convertIntegersToRoman.sol\":1302:1303  s */\n      dup3\n        /* \"task3/convertIntegersToRoman.sol\":1275:1304  bytes memory roman = bytes(s) */\n      swap1\n      pop\n        /* \"task3/convertIntegersToRoman.sol\":1315:1328  uint256 total */\n      0x00\n        /* \"task3/convertIntegersToRoman.sol\":1343:1360  uint256 prevValue */\n      dup1\n        /* \"task3/convertIntegersToRoman.sol\":1390:1399  uint256 i */\n      0x00\n        /* \"task3/convertIntegersToRoman.sol\":1385:1713  for (uint256 i = 0; i < roman.length; i++) {... */\n    tag_18:\n        /* \"task3/convertIntegersToRoman.sol\":1409:1414  roman */\n      dup4\n        /* \"task3/convertIntegersToRoman.sol\":1409:1421  roman.length */\n      mload\n        /* \"task3/convertIntegersToRoman.sol\":1405:1406  i */\n      dup2\n        /* \"task3/convertIntegersToRoman.sol\":1405:1421  i < roman.length */\n      lt\n        /* \"task3/convertIntegersToRoman.sol\":1385:1713  for (uint256 i = 0; i < roman.length; i++) {... */\n      iszero\n      tag_19\n      jumpi\n        /* \"task3/convertIntegersToRoman.sol\":1443:1463  uint256 currentValue */\n      0x00\n        /* \"task3/convertIntegersToRoman.sol\":1466:1484  getValue(roman[i]) */\n      tag_21\n        /* \"task3/convertIntegersToRoman.sol\":1475:1480  roman */\n      dup6\n        /* \"task3/convertIntegersToRoman.sol\":1481:1482  i */\n      dup4\n        /* \"task3/convertIntegersToRoman.sol\":1475:1483  roman[i] */\n      dup2\n      mload\n      dup2\n      lt\n      tag_22\n      jumpi\n      tag_23\n      tag_24\n      jump\t// in\n    tag_23:\n    tag_22:\n      0x20\n      add\n      add\n      mload\n      0xf8\n      shr\n      0xf8\n      shl\n        /* \"task3/convertIntegersToRoman.sol\":1466:1474  getValue */\n      tag_25\n        /* \"task3/convertIntegersToRoman.sol\":1466:1484  getValue(roman[i]) */\n      jump\t// in\n    tag_21:\n        /* \"task3/convertIntegersToRoman.sol\":1443:1484  uint256 currentValue = getValue(roman[i]) */\n      swap1\n      pop\n        /* \"task3/convertIntegersToRoman.sol\":1518:1527  prevValue */\n      dup3\n        /* \"task3/convertIntegersToRoman.sol\":1503:1515  currentValue */\n      dup2\n        /* \"task3/convertIntegersToRoman.sol\":1503:1527  currentValue > prevValue */\n      gt\n        /* \"task3/convertIntegersToRoman.sol\":1499:1663  if (currentValue > prevValue) {... */\n      iszero\n      tag_26\n      jumpi\n        /* \"task3/convertIntegersToRoman.sol\":1576:1585  prevValue */\n      dup3\n        /* \"task3/convertIntegersToRoman.sol\":1572:1573  2 */\n      0x02\n        /* \"task3/convertIntegersToRoman.sol\":1572:1585  2 * prevValue */\n      tag_27\n      swap2\n      swap1\n      tag_28\n      jump\t// in\n    tag_27:\n        /* \"task3/convertIntegersToRoman.sol\":1557:1569  currentValue */\n      dup2\n        /* \"task3/convertIntegersToRoman.sol\":1557:1585  currentValue - 2 * prevValue */\n      tag_29\n      swap2\n      swap1\n      tag_30\n      jump\t// in\n    tag_29:\n        /* \"task3/convertIntegersToRoman.sol\":1548:1585  total += currentValue - 2 * prevValue */\n      dup5\n      tag_31\n      swap2\n      swap1\n      tag_32\n      jump\t// in\n    tag_31:\n      swap4\n      pop\n        /* \"task3/convertIntegersToRoman.sol\":1499:1663  if (currentValue > prevValue) {... */\n      jump(tag_33)\n    tag_26:\n        /* \"task3/convertIntegersToRoman.sol\":1635:1647  currentValue */\n      dup1\n        /* \"task3/convertIntegersToRoman.sol\":1626:1647  total += currentValue */\n      dup5\n      tag_34\n      swap2\n      swap1\n      tag_32\n      jump\t// in\n    tag_34:\n      swap4\n      pop\n        /* \"task3/convertIntegersToRoman.sol\":1499:1663  if (currentValue > prevValue) {... */\n    tag_33:\n        /* \"task3/convertIntegersToRoman.sol\":1689:1701  currentValue */\n      dup1\n        /* \"task3/convertIntegersToRoman.sol\":1677:1701  prevValue = currentValue */\n      swap3\n      pop\n        /* \"task3/convertIntegersToRoman.sol\":1428:1713  {... */\n      pop\n        /* \"task3/convertIntegersToRoman.sol\":1423:1426  i++ */\n      dup1\n      dup1\n      0x01\n      add\n      swap2\n      pop\n      pop\n        /* \"task3/convertIntegersToRoman.sol\":1385:1713  for (uint256 i = 0; i < roman.length; i++) {... */\n      jump(tag_18)\n    tag_19:\n      pop\n        /* \"task3/convertIntegersToRoman.sol\":1730:1735  total */\n      dup2\n        /* \"task3/convertIntegersToRoman.sol\":1723:1735  return total */\n      swap4\n      pop\n      pop\n      pop\n      pop\n        /* \"task3/convertIntegersToRoman.sol\":1196:1743  function romanToUint(string memory s) public pure returns (uint256) {... */\n      swap2\n      swap1\n      pop\n      jump\t// out\n        /* \"task3/convertIntegersToRoman.sol\":286:1134  function uintToRoman(uint num) public pure returns (string memory) {... */\n    tag_14:\n        /* \"task3/convertIntegersToRoman.sol\":338:351  string memory */\n      0x60\n        /* \"task3/convertIntegersToRoman.sol\":364:392  Numeral[13] memory _numerals */\n      0x00\n        /* \"task3/convertIntegersToRoman.sol\":364:817  Numeral[13] memory _numerals = [... */\n      mload(0x40)\n      dup1\n      0x01a0\n      add\n      0x40\n      mstore\n      dup1\n        /* \"task3/convertIntegersToRoman.sol\":410:428  Numeral(1000, \"M\") */\n      mload(0x40)\n      dup1\n      0x40\n      add\n      0x40\n      mstore\n      dup1\n        /* \"task3/convertIntegersToRoman.sol\":418:422  1000 */\n      0x03e8\n        /* \"task3/convertIntegersToRoman.sol\":410:428  Numeral(1000, \"M\") */\n      dup2\n      mstore\n      0x20\n      add\n      mload(0x40)\n      dup1\n      0x40\n      add\n      0x40\n      mstore\n      dup1\n      0x01\n      dup2\n      mstore\n      0x20\n      add\n      0x4d00000000000000000000000000000000000000000000000000000000000000\n      dup2\n      mstore\n      pop\n      dup2\n      mstore\n      pop\n        /* \"task3/convertIntegersToRoman.sol\":364:817  Numeral[13] memory _numerals = [... */\n      dup2\n      mstore\n      0x20\n      add\n        /* \"task3/convertIntegersToRoman.sol\":443:461  Numeral(900, \"CM\") */\n      mload(0x40)\n      dup1\n      0x40\n      add\n      0x40\n      mstore\n      dup1\n        /* \"task3/convertIntegersToRoman.sol\":451:454  900 */\n      0x0384\n        /* \"task3/convertIntegersToRoman.sol\":443:461  Numeral(900, \"CM\") */\n      dup2\n      mstore\n      0x20\n      add\n      mload(0x40)\n      dup1\n      0x40\n      add\n      0x40\n      mstore\n      dup1\n      0x02\n      dup2\n      mstore\n      0x20\n      add\n      0x434d000000000000000000000000000000000000000000000000000000000000\n      dup2\n      mstore\n      pop\n      dup2\n      mstore\n      pop\n        /* \"task3/convertIntegersToRoman.sol\":364:817  Numeral[13] memory _numerals = [... */\n      dup2\n      mstore\n      0x20\n      add\n        /* \"task3/convertIntegersToRoman.sol\":476:493  Numeral(500, \"D\") */\n      mload(0x40)\n      dup1\n      0x40\n      add\n      0x40\n      mstore\n      dup1\n        /* \"task3/convertIntegersToRoman.sol\":484:487  500 */\n      0x01f4\n        /* \"task3/convertIntegersToRoman.sol\":476:493  Numeral(500, \"D\") */\n      dup2\n      mstore\n      0x20\n      add\n      mload(0x40)\n      dup1\n      0x40\n      add\n      0x40\n      mstore\n      dup1\n      0x01\n      dup2\n      mstore\n      0x20\n      add\n      0x4400000000000000000000000000000000000000000000000000000000000000\n      dup2\n      mstore\n      pop\n      dup2\n      mstore\n      pop\n        /* \"task3/convertIntegersToRoman.sol\":364:817  Numeral[13] memory _numerals = [... */\n      dup2\n      mstore\n      0x20\n      add\n        /* \"task3/convertIntegersToRoman.sol\":508:526  Numeral(400, \"CD\") */\n      mload(0x40)\n      dup1\n      0x40\n      add\n      0x40\n      mstore\n      dup1\n        /* \"task3/convertIntegersToRoman.sol\":516:519  400 */\n      0x0190\n        /* \"task3/convertIntegersToRoman.sol\":508:526  Numeral(400, \"CD\") */\n      dup2\n      mstore\n      0x20\n      add\n      mload(0x40)\n      dup1\n      0x40\n      add\n      0x40\n      mstore\n      dup1\n      0x02\n      dup2\n      mstore\n      0x20\n      add\n      0x4344000000000000000000000000000000000000000000000000000000000000\n      dup2\n      mstore\n      pop\n      dup2\n      mstore\n      pop\n        /* \"task3/convertIntegersToRoman.sol\":364:817  Numeral[13] memory _numerals = [... */\n      dup2\n      mstore\n      0x20\n      add\n        /* \"task3/convertIntegersToRoman.sol\":541:558  Numeral(100, \"C\") */\n      mload(0x40)\n      dup1\n      0x40\n      add\n      0x40\n      mstore\n      dup1\n        /* \"task3/convertIntegersToRoman.sol\":549:552  100 */\n      0x64\n        /* \"task3/convertIntegersToRoman.sol\":541:558  Numeral(100, \"C\") */\n      dup2\n      mstore\n      0x20\n      add\n      mload(0x40)\n      dup1\n      0x40\n      add\n      0x40\n      mstore\n      dup1\n      0x01\n      dup2\n      mstore\n      0x20\n      add\n      0x4300000000000000000000000000000000000000000000000000000000000000\n      dup2\n      mstore\n      pop\n      dup2\n      mstore\n      pop\n        /* \"task3/convertIntegersToRoman.sol\":364:817  Numeral[13] memory _numerals = [... */\n      dup2\n      mstore\n      0x20\n      add\n        /* \"task3/convertIntegersToRoman.sol\":573:590  Numeral(90, \"XC\") */\n      mload(0x40)\n      dup1\n      0x40\n      add\n      0x40\n      mstore\n      dup1\n        /* \"task3/convertIntegersToRoman.sol\":581:583  90 */\n      0x5a\n        /* \"task3/convertIntegersToRoman.sol\":573:590  Numeral(90, \"XC\") */\n      dup2\n      mstore\n      0x20\n      add\n      mload(0x40)\n      dup1\n      0x40\n      add\n      0x40\n      mstore\n      dup1\n      0x02\n      dup2\n      mstore\n      0x20\n      add\n      0x5843000000000000000000000000000000000000000000000000000000000000\n      dup2\n      mstore\n      pop\n      dup2\n      mstore\n      pop\n        /* \"task3/convertIntegersToRoman.sol\":364:817  Numeral[13] memory _numerals = [... */\n      dup2\n      mstore\n      0x20\n      add\n        /* \"task3/convertIntegersToRoman.sol\":605:621  Numeral(50, \"L\") */\n      mload(0x40)\n      dup1\n      0x40\n      add\n      0x40\n      mstore\n      dup1\n        /* \"task3/convertIntegersToRoman.sol\":613:615  50 */\n      0x32\n        /* \"task3/convertIntegersToRoman.sol\":605:621  Numeral(50, \"L\") */\n      dup2\n      mstore\n      0x20\n      add\n      mload(0x40)\n      dup1\n      0x40\n      add\n      0x40\n      mstore\n      dup1\n      0x01\n      dup2\n      mstore\n      0x20\n      add\n      0x4c00000000000000000000000000000000000000000000000000000000000000\n      dup2\n      mstore\n      pop\n      dup2\n      mstore\n      pop\n        /* \"task3/convertIntegersToRoman.sol\":364:817  Numeral[13] memory _numerals = [... */\n      dup2\n      mstore\n      0x20\n      add\n        /* \"task3/convertIntegersToRoman.sol\":636:653  Numeral(40, \"XL\") */\n      mload(0x40)\n      dup1\n      0x40\n      add\n      0x40\n      mstore\n      dup1\n        /* \"task3/convertIntegersToRoman.sol\":644:646  40 */\n      0x28\n        /* \"task3/convertIntegersToRoman.sol\":636:653  Numeral(40, \"XL\") */\n      dup2\n      mstore\n      0x20\n      add\n      mload(0x40)\n      dup1\n      0x40\n      add\n      0x40\n      mstore\n      dup1\n      0x02\n      dup2\n      mstore\n      0x20\n      add\n      0x584c000000000000000000000000000000000000000000000000000000000000\n      dup2\n      mstore\n      pop\n      dup2\n      mstore\n      pop\n        /* \"task3/convertIntegersToRoman.sol\":364:817  Numeral[13] memory _numerals = [... */\n      dup2\n      mstore\n      0x20\n      add\n        /* \"task3/convertIntegersToRoman.sol\":668:684  Numeral(10, \"X\") */\n      mload(0x40)\n      dup1\n      0x40\n      add\n      0x40\n      mstore\n      dup1\n        /* \"task3/convertIntegersToRoman.sol\":676:678  10 */\n      0x0a\n        /* \"task3/convertIntegersToRoman.sol\":668:684  Numeral(10, \"X\") */\n      dup2\n      mstore\n      0x20\n      add\n      mload(0x40)\n      dup1\n      0x40\n      add\n      0x40\n      mstore\n      dup1\n      0x01\n      dup2\n      mstore\n      0x20\n      add\n      0x5800000000000000000000000000000000000000000000000000000000000000\n      dup2\n      mstore\n      pop\n      dup2\n      mstore\n      pop\n        /* \"task3/convertIntegersToRoman.sol\":364:817  Numeral[13] memory _numerals = [... */\n      dup2\n      mstore\n      0x20\n      add\n        /* \"task3/convertIntegersToRoman.sol\":699:715  Numeral(9, \"IX\") */\n      mload(0x40)\n      dup1\n      0x40\n      add\n      0x40\n      mstore\n      dup1\n        /* \"task3/convertIntegersToRoman.sol\":707:708  9 */\n      0x09\n        /* \"task3/convertIntegersToRoman.sol\":699:715  Numeral(9, \"IX\") */\n      dup2\n      mstore\n      0x20\n      add\n      mload(0x40)\n      dup1\n      0x40\n      add\n      0x40\n      mstore\n      dup1\n      0x02\n      dup2\n      mstore\n      0x20\n      add\n      0x4958000000000000000000000000000000000000000000000000000000000000\n      dup2\n      mstore\n      pop\n      dup2\n      mstore\n      pop\n        /* \"task3/convertIntegersToRoman.sol\":364:817  Numeral[13] memory _numerals = [... */\n      dup2\n      mstore\n      0x20\n      add\n        /* \"task3/convertIntegersToRoman.sol\":730:745  Numeral(5, \"V\") */\n      mload(0x40)\n      dup1\n      0x40\n      add\n      0x40\n      mstore\n      dup1\n        /* \"task3/convertIntegersToRoman.sol\":738:739  5 */\n      0x05\n        /* \"task3/convertIntegersToRoman.sol\":730:745  Numeral(5, \"V\") */\n      dup2\n      mstore\n      0x20\n      add\n      mload(0x40)\n      dup1\n      0x40\n      add\n      0x40\n      mstore\n      dup1\n      0x01\n      dup2\n      mstore\n      0x20\n      add\n      0x5600000000000000000000000000000000000000000000000000000000000000\n      dup2\n      mstore\n      pop\n      dup2\n      mstore\n      pop\n        /* \"task3/convertIntegersToRoman.sol\":364:817  Numeral[13] memory _numerals = [... */\n      dup2\n      mstore\n      0x20\n      add\n        /* \"task3/convertIntegersToRoman.sol\":760:776  Numeral(4, \"IV\") */\n      mload(0x40)\n      dup1\n      0x40\n      add\n      0x40\n      mstore\n      dup1\n        /* \"task3/convertIntegersToRoman.sol\":768:769  4 */\n      0x04\n        /* \"task3/convertIntegersToRoman.sol\":760:776  Numeral(4, \"IV\") */\n      dup2\n      mstore\n      0x20\n      add\n      mload(0x40)\n      dup1\n      0x40\n      add\n      0x40\n      mstore\n      dup1\n      0x02\n      dup2\n      mstore\n      0x20\n      add\n      0x4956000000000000000000000000000000000000000000000000000000000000\n      dup2\n      mstore\n      pop\n      dup2\n      mstore\n      pop\n        /* \"task3/convertIntegersToRoman.sol\":364:817  Numeral[13] memory _numerals = [... */\n      dup2\n      mstore\n      0x20\n      add\n        /* \"task3/convertIntegersToRoman.sol\":791:806  Numeral(1, \"I\") */\n      mload(0x40)\n      dup1\n      0x40\n      add\n      0x40\n      mstore\n      dup1\n        /* \"task3/convertIntegersToRoman.sol\":799:800  1 */\n      0x01\n        /* \"task3/convertIntegersToRoman.sol\":791:806  Numeral(1, \"I\") */\n      dup2\n      mstore\n      0x20\n      add\n      mload(0x40)\n      dup1\n      0x40\n      add\n      0x40\n      mstore\n      dup1\n      0x01\n      dup2\n      mstore\n      0x20\n      add\n      0x4900000000000000000000000000000000000000000000000000000000000000\n      dup2\n      mstore\n      pop\n      dup2\n      mstore\n      pop\n        /* \"task3/convertIntegersToRoman.sol\":364:817  Numeral[13] memory _numerals = [... */\n      dup2\n      mstore\n      pop\n      swap1\n      pop\n        /* \"task3/convertIntegersToRoman.sol\":828:847  string memory roman */\n      0x60\n        /* \"task3/convertIntegersToRoman.sol\":863:872  uint256 i */\n      0x00\n        /* \"task3/convertIntegersToRoman.sol\":858:1104  for (uint256 i = 0; i < _numerals.length; i++) {... */\n    tag_36:\n        /* \"task3/convertIntegersToRoman.sol\":882:898  _numerals.length */\n      0x0d\n        /* \"task3/convertIntegersToRoman.sol\":878:879  i */\n      dup2\n        /* \"task3/convertIntegersToRoman.sol\":878:898  i < _numerals.length */\n      lt\n        /* \"task3/convertIntegersToRoman.sol\":858:1104  for (uint256 i = 0; i < _numerals.length; i++) {... */\n      iszero\n      tag_37\n      jumpi\n        /* \"task3/convertIntegersToRoman.sol\":920:1093  while (num >= _numerals[i].value) {... */\n    tag_39:\n        /* \"task3/convertIntegersToRoman.sol\":934:943  _numerals */\n      dup3\n        /* \"task3/convertIntegersToRoman.sol\":944:945  i */\n      dup2\n        /* \"task3/convertIntegersToRoman.sol\":934:946  _numerals[i] */\n      0x0d\n      dup2\n      lt\n      tag_41\n      jumpi\n      tag_42\n      tag_24\n      jump\t// in\n    tag_42:\n    tag_41:\n      0x20\n      mul\n      add\n      mload\n        /* \"task3/convertIntegersToRoman.sol\":934:952  _numerals[i].value */\n      0x00\n      add\n      mload\n        /* \"task3/convertIntegersToRoman.sol\":927:930  num */\n      dup6\n        /* \"task3/convertIntegersToRoman.sol\":927:952  num >= _numerals[i].value */\n      lt\n        /* \"task3/convertIntegersToRoman.sol\":920:1093  while (num >= _numerals[i].value) {... */\n      tag_40\n      jumpi\n        /* \"task3/convertIntegersToRoman.sol\":1005:1010  roman */\n      dup2\n        /* \"task3/convertIntegersToRoman.sol\":1012:1021  _numerals */\n      dup4\n        /* \"task3/convertIntegersToRoman.sol\":1022:1023  i */\n      dup3\n        /* \"task3/convertIntegersToRoman.sol\":1012:1024  _numerals[i] */\n      0x0d\n      dup2\n      lt\n      tag_43\n      jumpi\n      tag_44\n      tag_24\n      jump\t// in\n    tag_44:\n    tag_43:\n      0x20\n      mul\n      add\n      mload\n        /* \"task3/convertIntegersToRoman.sol\":1012:1031  _numerals[i].symbol */\n      0x20\n      add\n      mload\n        /* \"task3/convertIntegersToRoman.sol\":988:1032  abi.encodePacked(roman, _numerals[i].symbol) */\n      add(0x20, mload(0x40))\n      tag_45\n      swap3\n      swap2\n      swap1\n      tag_46\n      jump\t// in\n    tag_45:\n      mload(0x40)\n      0x20\n      dup2\n      dup4\n      sub\n      sub\n      dup2\n      mstore\n      swap1\n      0x40\n      mstore\n        /* \"task3/convertIntegersToRoman.sol\":973:1033  roman = string(abi.encodePacked(roman, _numerals[i].symbol)) */\n      swap2\n      pop\n        /* \"task3/convertIntegersToRoman.sol\":1059:1068  _numerals */\n      dup3\n        /* \"task3/convertIntegersToRoman.sol\":1069:1070  i */\n      dup2\n        /* \"task3/convertIntegersToRoman.sol\":1059:1071  _numerals[i] */\n      0x0d\n      dup2\n      lt\n      tag_47\n      jumpi\n      tag_48\n      tag_24\n      jump\t// in\n    tag_48:\n    tag_47:\n      0x20\n      mul\n      add\n      mload\n        /* \"task3/convertIntegersToRoman.sol\":1059:1077  _numerals[i].value */\n      0x00\n      add\n      mload\n        /* \"task3/convertIntegersToRoman.sol\":1052:1077  num -= _numerals[i].value */\n      dup6\n      tag_49\n      swap2\n      swap1\n      tag_30\n      jump\t// in\n    tag_49:\n      swap5\n      pop\n        /* \"task3/convertIntegersToRoman.sol\":920:1093  while (num >= _numerals[i].value) {... */\n      jump(tag_39)\n    tag_40:\n        /* \"task3/convertIntegersToRoman.sol\":900:903  i++ */\n      dup1\n      dup1\n      0x01\n      add\n      swap2\n      pop\n      pop\n        /* \"task3/convertIntegersToRoman.sol\":858:1104  for (uint256 i = 0; i < _numerals.length; i++) {... */\n      jump(tag_36)\n    tag_37:\n      pop\n        /* \"task3/convertIntegersToRoman.sol\":1121:1126  roman */\n      dup1\n        /* \"task3/convertIntegersToRoman.sol\":1114:1126  return roman */\n      swap3\n      pop\n      pop\n      pop\n        /* \"task3/convertIntegersToRoman.sol\":286:1134  function uintToRoman(uint num) public pure returns (string memory) {... */\n      swap2\n      swap1\n      pop\n      jump\t// out\n        /* \"task3/convertIntegersToRoman.sol\":1751:2077  function getValue(bytes1 c) private pure returns (uint256) {... */\n    tag_25:\n        /* \"task3/convertIntegersToRoman.sol\":1801:1808  uint256 */\n      0x00\n        /* \"task3/convertIntegersToRoman.sol\":1825:1833  c == 'I' */\n      0x4900000000000000000000000000000000000000000000000000000000000000\n        /* \"task3/convertIntegersToRoman.sol\":1825:1826  c */\n      dup3\n        /* \"task3/convertIntegersToRoman.sol\":1825:1833  c == 'I' */\n      not(0xffffffffffffffffffffffffffffffffffffffffffffffffffffffffffffff)\n      and\n      sub\n        /* \"task3/convertIntegersToRoman.sol\":1821:1843  if (c == 'I') return 1 */\n      tag_51\n      jumpi\n        /* \"task3/convertIntegersToRoman.sol\":1842:1843  1 */\n      0x01\n        /* \"task3/convertIntegersToRoman.sol\":1835:1843  return 1 */\n      swap1\n      pop\n      jump(tag_50)\n        /* \"task3/convertIntegersToRoman.sol\":1821:1843  if (c == 'I') return 1 */\n    tag_51:\n        /* \"task3/convertIntegersToRoman.sol\":1858:1866  c == 'V' */\n      0x5600000000000000000000000000000000000000000000000000000000000000\n        /* \"task3/convertIntegersToRoman.sol\":1858:1859  c */\n      dup3\n        /* \"task3/convertIntegersToRoman.sol\":1858:1866  c == 'V' */\n      not(0xffffffffffffffffffffffffffffffffffffffffffffffffffffffffffffff)\n      and\n      sub\n        /* \"task3/convertIntegersToRoman.sol\":1854:1876  if (c == 'V') return 5 */\n      tag_52\n      jumpi\n        /* \"task3/convertIntegersToRoman.sol\":1875:1876  5 */\n      0x05\n        /* \"task3/convertIntegersToRoman.sol\":1868:1876  return 5 */\n      swap1\n      pop\n      jump(tag_50)\n        /* \"task3/convertIntegersToRoman.sol\":1854:1876  if (c == 'V') return 5 */\n    tag_52:\n        /* \"task3/convertIntegersToRoman.sol\":1891:1899  c == 'X' */\n      0x5800000000000000000000000000000000000000000000000000000000000000\n        /* \"task3/convertIntegersToRoman.sol\":1891:1892  c */\n      dup3\n        /* \"task3/convertIntegersToRoman.sol\":1891:1899  c == 'X' */\n      not(0xffffffffffffffffffffffffffffffffffffffffffffffffffffffffffffff)\n      and\n      sub\n        /* \"task3/convertIntegersToRoman.sol\":1887:1910  if (c == 'X') return 10 */\n      tag_53\n      jumpi\n        /* \"task3/convertIntegersToRoman.sol\":1908:1910  10 */\n      0x0a\n        /* \"task3/convertIntegersToRoman.sol\":1901:1910  return 10 */\n      swap1\n      pop\n      jump(tag_50)\n        /* \"task3/convertIntegersToRoman.sol\":1887:1910  if (c == 'X') return 10 */\n    tag_53:\n        /* \"task3/convertIntegersToRoman.sol\":1925:1933  c == 'L' */\n      0x4c00000000000000000000000000000000000000000000000000000000000000\n        /* \"task3/convertIntegersToRoman.sol\":1925:1926  c */\n      dup3\n        /* \"task3/convertIntegersToRoman.sol\":1925:1933  c == 'L' */\n      not(0xffffffffffffffffffffffffffffffffffffffffffffffffffffffffffffff)\n      and\n      sub\n        /* \"task3/convertIntegersToRoman.sol\":1921:1944  if (c == 'L') return 50 */\n      tag_54\n      jumpi\n        /* \"task3/convertIntegersToRoman.sol\":1942:1944  50 */\n      0x32\n        /* \"task3/convertIntegersToRoman.sol\":1935:1944  return 50 */\n      swap1\n      pop\n      jump(tag_50)\n        /* \"task3/convertIntegersToRoman.sol\":1921:1944  if (c == 'L') return 50 */\n    tag_54:\n        /* \"task3/convertIntegersToRoman.sol\":1959:1967  c == 'C' */\n      0x4300000000000000000000000000000000000000000000000000000000000000\n        /* \"task3/convertIntegersToRoman.sol\":1959:1960  c */\n      dup3\n        /* \"task3/convertIntegersToRoman.sol\":1959:1967  c == 'C' */\n      not(0xffffffffffffffffffffffffffffffffffffffffffffffffffffffffffffff)\n      and\n      sub\n        /* \"task3/convertIntegersToRoman.sol\":1955:1979  if (c == 'C') return 100 */\n      tag_55\n      jumpi\n        /* \"task3/convertIntegersToRoman.sol\":1976:1979  100 */\n      0x64\n        /* \"task3/convertIntegersToRoman.sol\":1969:1979  return 100 */\n      swap1\n      pop\n      jump(tag_50)\n        /* \"task3/convertIntegersToRoman.sol\":1955:1979  if (c == 'C') return 100 */\n    tag_55:\n        /* \"task3/convertIntegersToRoman.sol\":1994:2002  c == 'D' */\n      0x4400000000000000000000000000000000000000000000000000000000000000\n        /* \"task3/convertIntegersToRoman.sol\":1994:1995  c */\n      dup3\n        /* \"task3/convertIntegersToRoman.sol\":1994:2002  c == 'D' */\n      not(0xffffffffffffffffffffffffffffffffffffffffffffffffffffffffffffff)\n      and\n      sub\n        /* \"task3/convertIntegersToRoman.sol\":1990:2014  if (c == 'D') return 500 */\n      tag_56\n      jumpi\n        /* \"task3/convertIntegersToRoman.sol\":2011:2014  500 */\n      0x01f4\n        /* \"task3/convertIntegersToRoman.sol\":2004:2014  return 500 */\n      swap1\n      pop\n      jump(tag_50)\n        /* \"task3/convertIntegersToRoman.sol\":1990:2014  if (c == 'D') return 500 */\n    tag_56:\n        /* \"task3/convertIntegersToRoman.sol\":2029:2037  c == 'M' */\n      0x4d00000000000000000000000000000000000000000000000000000000000000\n        /* \"task3/convertIntegersToRoman.sol\":2029:2030  c */\n      dup3\n        /* \"task3/convertIntegersToRoman.sol\":2029:2037  c == 'M' */\n      not(0xffffffffffffffffffffffffffffffffffffffffffffffffffffffffffffff)\n      and\n      sub\n        /* \"task3/convertIntegersToRoman.sol\":2025:2050  if (c == 'M') return 1000 */\n      tag_57\n      jumpi\n        /* \"task3/convertIntegersToRoman.sol\":2046:2050  1000 */\n      0x03e8\n        /* \"task3/convertIntegersToRoman.sol\":2039:2050  return 1000 */\n      swap1\n      pop\n      jump(tag_50)\n        /* \"task3/convertIntegersToRoman.sol\":2025:2050  if (c == 'M') return 1000 */\n    tag_57:\n        /* \"task3/convertIntegersToRoman.sol\":2068:2069  0 */\n      0x00\n        /* \"task3/convertIntegersToRoman.sol\":2061:2069  return 0 */\n      swap1\n      pop\n        /* \"task3/convertIntegersToRoman.sol\":1751:2077  function getValue(bytes1 c) private pure returns (uint256) {... */\n    tag_50:\n      swap2\n      swap1\n      pop\n      jump\t// out\n        /* \"#utility.yul\":7:82   */\n    tag_58:\n        /* \"#utility.yul\":40:46   */\n      0x00\n        /* \"#utility.yul\":73:75   */\n      0x40\n        /* \"#utility.yul\":67:76   */\n      mload\n        /* \"#utility.yul\":57:76   */\n      swap1\n      pop\n        /* \"#utility.yul\":7:82   */\n      swap1\n      jump\t// out\n        /* \"#utility.yul\":88:205   */\n    tag_59:\n        /* \"#utility.yul\":197:198   */\n      0x00\n        /* \"#utility.yul\":194:195   */\n      dup1\n        /* \"#utility.yul\":187:199   */\n      revert\n        /* \"#utility.yul\":211:328   */\n    tag_60:\n        /* \"#utility.yul\":320:321   */\n      0x00\n        /* \"#utility.yul\":317:318   */\n      dup1\n        /* \"#utility.yul\":310:322   */\n      revert\n        /* \"#utility.yul\":334:451   */\n    tag_61:\n        /* \"#utility.yul\":443:444   */\n      0x00\n        /* \"#utility.yul\":440:441   */\n      dup1\n        /* \"#utility.yul\":433:445   */\n      revert\n        /* \"#utility.yul\":457:574   */\n    tag_62:\n        /* \"#utility.yul\":566:567   */\n      0x00\n        /* \"#utility.yul\":563:564   */\n      dup1\n        /* \"#utility.yul\":556:568   */\n      revert\n        /* \"#utility.yul\":580:682   */\n    tag_63:\n        /* \"#utility.yul\":621:627   */\n      0x00\n        /* \"#utility.yul\":672:674   */\n      0x1f\n        /* \"#utility.yul\":668:675   */\n      not\n        /* \"#utility.yul\":663:665   */\n      0x1f\n        /* \"#utility.yul\":656:661   */\n      dup4\n        /* \"#utility.yul\":652:666   */\n      add\n        /* \"#utility.yul\":648:676   */\n      and\n        /* \"#utility.yul\":638:676   */\n      swap1\n      pop\n        /* \"#utility.yul\":580:682   */\n      swap2\n      swap1\n      pop\n      jump\t// out\n        /* \"#utility.yul\":688:868   */\n    tag_64:\n        /* \"#utility.yul\":736:813   */\n      0x4e487b7100000000000000000000000000000000000000000000000000000000\n        /* \"#utility.yul\":733:734   */\n      0x00\n        /* \"#utility.yul\":726:814   */\n      mstore\n        /* \"#utility.yul\":833:837   */\n      0x41\n        /* \"#utility.yul\":830:831   */\n      0x04\n        /* \"#utility.yul\":823:838   */\n      mstore\n        /* \"#utility.yul\":857:861   */\n      0x24\n        /* \"#utility.yul\":854:855   */\n      0x00\n        /* \"#utility.yul\":847:862   */\n      revert\n        /* \"#utility.yul\":874:1155   */\n    tag_65:\n        /* \"#utility.yul\":957:984   */\n      tag_91\n        /* \"#utility.yul\":979:983   */\n      dup3\n        /* \"#utility.yul\":957:984   */\n      tag_63\n      jump\t// in\n    tag_91:\n        /* \"#utility.yul\":949:955   */\n      dup2\n        /* \"#utility.yul\":945:985   */\n      add\n        /* \"#utility.yul\":1087:1093   */\n      dup2\n        /* \"#utility.yul\":1075:1085   */\n      dup2\n        /* \"#utility.yul\":1072:1094   */\n      lt\n        /* \"#utility.yul\":1051:1069   */\n      0xffffffffffffffff\n        /* \"#utility.yul\":1039:1049   */\n      dup3\n        /* \"#utility.yul\":1036:1070   */\n      gt\n        /* \"#utility.yul\":1033:1095   */\n      or\n        /* \"#utility.yul\":1030:1118   */\n      iszero\n      tag_92\n      jumpi\n        /* \"#utility.yul\":1098:1116   */\n      tag_93\n      tag_64\n      jump\t// in\n    tag_93:\n        /* \"#utility.yul\":1030:1118   */\n    tag_92:\n        /* \"#utility.yul\":1138:1148   */\n      dup1\n        /* \"#utility.yul\":1134:1136   */\n      0x40\n        /* \"#utility.yul\":1127:1149   */\n      mstore\n        /* \"#utility.yul\":917:1155   */\n      pop\n        /* \"#utility.yul\":874:1155   */\n      pop\n      pop\n      jump\t// out\n        /* \"#utility.yul\":1161:1290   */\n    tag_66:\n        /* \"#utility.yul\":1195:1201   */\n      0x00\n        /* \"#utility.yul\":1222:1242   */\n      tag_95\n      tag_58\n      jump\t// in\n    tag_95:\n        /* \"#utility.yul\":1212:1242   */\n      swap1\n      pop\n        /* \"#utility.yul\":1251:1284   */\n      tag_96\n        /* \"#utility.yul\":1279:1283   */\n      dup3\n        /* \"#utility.yul\":1271:1277   */\n      dup3\n        /* \"#utility.yul\":1251:1284   */\n      tag_65\n      jump\t// in\n    tag_96:\n        /* \"#utility.yul\":1161:1290   */\n      swap2\n      swap1\n      pop\n      jump\t// out\n        /* \"#utility.yul\":1296:1604   */\n    tag_67:\n        /* \"#utility.yul\":1358:1362   */\n      0x00\n        /* \"#utility.yul\":1448:1466   */\n      0xffffffffffffffff\n        /* \"#utility.yul\":1440:1446   */\n      dup3\n        /* \"#utility.yul\":1437:1467   */\n      gt\n        /* \"#utility.yul\":1434:1490   */\n      iszero\n      tag_98\n      jumpi\n        /* \"#utility.yul\":1470:1488   */\n      tag_99\n      tag_64\n      jump\t// in\n    tag_99:\n        /* \"#utility.yul\":1434:1490   */\n    tag_98:\n        /* \"#utility.yul\":1508:1537   */\n      tag_100\n        /* \"#utility.yul\":1530:1536   */\n      dup3\n        /* \"#utility.yul\":1508:1537   */\n      tag_63\n      jump\t// in\n    tag_100:\n        /* \"#utility.yul\":1500:1537   */\n      swap1\n      pop\n        /* \"#utility.yul\":1592:1596   */\n      0x20\n        /* \"#utility.yul\":1586:1590   */\n      dup2\n        /* \"#utility.yul\":1582:1597   */\n      add\n        /* \"#utility.yul\":1574:1597   */\n      swap1\n      pop\n        /* \"#utility.yul\":1296:1604   */\n      swap2\n      swap1\n      pop\n      jump\t// out\n        /* \"#utility.yul\":1610:1758   */\n    tag_68:\n        /* \"#utility.yul\":1708:1714   */\n      dup3\n        /* \"#utility.yul\":1703:1706   */\n      dup2\n        /* \"#utility.yul\":1698:1701   */\n      dup4\n        /* \"#utility.yul\":1685:1715   */\n      calldatacopy\n        /* \"#utility.yul\":1749:1750   */\n      0x00\n        /* \"#utility.yul\":1740:1746   */\n      dup4\n        /* \"#utility.yul\":1735:1738   */\n      dup4\n        /* \"#utility.yul\":1731:1747   */\n      add\n        /* \"#utility.yul\":1724:1751   */\n      mstore\n        /* \"#utility.yul\":1610:1758   */\n      pop\n      pop\n      pop\n      jump\t// out\n        /* \"#utility.yul\":1764:2189   */\n    tag_69:\n        /* \"#utility.yul\":1842:1847   */\n      0x00\n        /* \"#utility.yul\":1867:1933   */\n      tag_103\n        /* \"#utility.yul\":1883:1932   */\n      tag_104\n        /* \"#utility.yul\":1925:1931   */\n      dup5\n        /* \"#utility.yul\":1883:1932   */\n      tag_67\n      jump\t// in\n    tag_104:\n        /* \"#utility.yul\":1867:1933   */\n      tag_66\n      jump\t// in\n    tag_103:\n        /* \"#utility.yul\":1858:1933   */\n      swap1\n      pop\n        /* \"#utility.yul\":1956:1962   */\n      dup3\n        /* \"#utility.yul\":1949:1954   */\n      dup2\n        /* \"#utility.yul\":1942:1963   */\n      mstore\n        /* \"#utility.yul\":1994:1998   */\n      0x20\n        /* \"#utility.yul\":1987:1992   */\n      dup2\n        /* \"#utility.yul\":1983:1999   */\n      add\n        /* \"#utility.yul\":2032:2035   */\n      dup5\n        /* \"#utility.yul\":2023:2029   */\n      dup5\n        /* \"#utility.yul\":2018:2021   */\n      dup5\n        /* \"#utility.yul\":2014:2030   */\n      add\n        /* \"#utility.yul\":2011:2036   */\n      gt\n        /* \"#utility.yul\":2008:2120   */\n      iszero\n      tag_105\n      jumpi\n        /* \"#utility.yul\":2039:2118   */\n      tag_106\n      tag_62\n      jump\t// in\n    tag_106:\n        /* \"#utility.yul\":2008:2120   */\n    tag_105:\n        /* \"#utility.yul\":2129:2183   */\n      tag_107\n        /* \"#utility.yul\":2176:2182   */\n      dup5\n        /* \"#utility.yul\":2171:2174   */\n      dup3\n        /* \"#utility.yul\":2166:2169   */\n      dup6\n        /* \"#utility.yul\":2129:2183   */\n      tag_68\n      jump\t// in\n    tag_107:\n        /* \"#utility.yul\":1848:2189   */\n      pop\n        /* \"#utility.yul\":1764:2189   */\n      swap4\n      swap3\n      pop\n      pop\n      pop\n      jump\t// out\n        /* \"#utility.yul\":2209:2549   */\n    tag_70:\n        /* \"#utility.yul\":2265:2270   */\n      0x00\n        /* \"#utility.yul\":2314:2317   */\n      dup3\n        /* \"#utility.yul\":2307:2311   */\n      0x1f\n        /* \"#utility.yul\":2299:2305   */\n      dup4\n        /* \"#utility.yul\":2295:2312   */\n      add\n        /* \"#utility.yul\":2291:2318   */\n      slt\n        /* \"#utility.yul\":2281:2403   */\n      tag_109\n      jumpi\n        /* \"#utility.yul\":2322:2401   */\n      tag_110\n      tag_61\n      jump\t// in\n    tag_110:\n        /* \"#utility.yul\":2281:2403   */\n    tag_109:\n        /* \"#utility.yul\":2439:2445   */\n      dup2\n        /* \"#utility.yul\":2426:2446   */\n      calldataload\n        /* \"#utility.yul\":2464:2543   */\n      tag_111\n        /* \"#utility.yul\":2539:2542   */\n      dup5\n        /* \"#utility.yul\":2531:2537   */\n      dup3\n        /* \"#utility.yul\":2524:2528   */\n      0x20\n        /* \"#utility.yul\":2516:2522   */\n      dup7\n        /* \"#utility.yul\":2512:2529   */\n      add\n        /* \"#utility.yul\":2464:2543   */\n      tag_69\n      jump\t// in\n    tag_111:\n        /* \"#utility.yul\":2455:2543   */\n      swap2\n      pop\n        /* \"#utility.yul\":2271:2549   */\n      pop\n        /* \"#utility.yul\":2209:2549   */\n      swap3\n      swap2\n      pop\n      pop\n      jump\t// out\n        /* \"#utility.yul\":2555:3064   */\n    tag_7:\n        /* \"#utility.yul\":2624:2630   */\n      0x00\n        /* \"#utility.yul\":2673:2675   */\n      0x20\n        /* \"#utility.yul\":2661:2670   */\n      dup3\n        /* \"#utility.yul\":2652:2659   */\n      dup5\n        /* \"#utility.yul\":2648:2671   */\n      sub\n        /* \"#utility.yul\":2644:2676   */\n      slt\n        /* \"#utility.yul\":2641:2760   */\n      iszero\n      tag_113\n      jumpi\n        /* \"#utility.yul\":2679:2758   */\n      tag_114\n      tag_59\n      jump\t// in\n    tag_114:\n        /* \"#utility.yul\":2641:2760   */\n    tag_113:\n        /* \"#utility.yul\":2827:2828   */\n      0x00\n        /* \"#utility.yul\":2816:2825   */\n      dup3\n        /* \"#utility.yul\":2812:2829   */\n      add\n        /* \"#utility.yul\":2799:2830   */\n      calldataload\n        /* \"#utility.yul\":2857:2875   */\n      0xffffffffffffffff\n        /* \"#utility.yul\":2849:2855   */\n      dup2\n        /* \"#utility.yul\":2846:2876   */\n      gt\n        /* \"#utility.yul\":2843:2960   */\n      iszero\n      tag_115\n      jumpi\n        /* \"#utility.yul\":2879:2958   */\n      tag_116\n      tag_60\n      jump\t// in\n    tag_116:\n        /* \"#utility.yul\":2843:2960   */\n    tag_115:\n        /* \"#utility.yul\":2984:3047   */\n      tag_117\n        /* \"#utility.yul\":3039:3046   */\n      dup5\n        /* \"#utility.yul\":3030:3036   */\n      dup3\n        /* \"#utility.yul\":3019:3028   */\n      dup6\n        /* \"#utility.yul\":3015:3037   */\n      add\n        /* \"#utility.yul\":2984:3047   */\n      tag_70\n      jump\t// in\n    tag_117:\n        /* \"#utility.yul\":2974:3047   */\n      swap2\n      pop\n        /* \"#utility.yul\":2770:3057   */\n      pop\n        /* \"#utility.yul\":2555:3064   */\n      swap3\n      swap2\n      pop\n      pop\n      jump\t// out\n        /* \"#utility.yul\":3070:3147   */\n    tag_71:\n        /* \"#utility.yul\":3107:3114   */\n      0x00\n        /* \"#utility.yul\":3136:3141   */\n      dup2\n        /* \"#utility.yul\":3125:3141   */\n      swap1\n      pop\n        /* \"#utility.yul\":3070:3147   */\n      swap2\n      swap1\n      pop\n      jump\t// out\n        /* \"#utility.yul\":3153:3271   */\n    tag_72:\n        /* \"#utility.yul\":3240:3264   */\n      tag_120\n        /* \"#utility.yul\":3258:3263   */\n      dup2\n        /* \"#utility.yul\":3240:3264   */\n      tag_71\n      jump\t// in\n    tag_120:\n        /* \"#utility.yul\":3235:3238   */\n      dup3\n        /* \"#utility.yul\":3228:3265   */\n      mstore\n        /* \"#utility.yul\":3153:3271   */\n      pop\n      pop\n      jump\t// out\n        /* \"#utility.yul\":3277:3499   */\n    tag_10:\n        /* \"#utility.yul\":3370:3374   */\n      0x00\n        /* \"#utility.yul\":3408:3410   */\n      0x20\n        /* \"#utility.yul\":3397:3406   */\n      dup3\n        /* \"#utility.yul\":3393:3411   */\n      add\n        /* \"#utility.yul\":3385:3411   */\n      swap1\n      pop\n        /* \"#utility.yul\":3421:3492   */\n      tag_122\n        /* \"#utility.yul\":3489:3490   */\n      0x00\n        /* \"#utility.yul\":3478:3487   */\n      dup4\n        /* \"#utility.yul\":3474:3491   */\n      add\n        /* \"#utility.yul\":3465:3471   */\n      dup5\n        /* \"#utility.yul\":3421:3492   */\n      tag_72\n      jump\t// in\n    tag_122:\n        /* \"#utility.yul\":3277:3499   */\n      swap3\n      swap2\n      pop\n      pop\n      jump\t// out\n        /* \"#utility.yul\":3505:3627   */\n    tag_73:\n        /* \"#utility.yul\":3578:3602   */\n      tag_124\n        /* \"#utility.yul\":3596:3601   */\n      dup2\n        /* \"#utility.yul\":3578:3602   */\n      tag_71\n      jump\t// in\n    tag_124:\n        /* \"#utility.yul\":3571:3576   */\n      dup2\n        /* \"#utility.yul\":3568:3603   */\n      eq\n        /* \"#utility.yul\":3558:3621   */\n      tag_125\n      jumpi\n        /* \"#utility.yul\":3617:3618   */\n      0x00\n        /* \"#utility.yul\":3614:3615   */\n      dup1\n        /* \"#utility.yul\":3607:3619   */\n      revert\n        /* \"#utility.yul\":3558:3621   */\n    tag_125:\n        /* \"#utility.yul\":3505:3627   */\n      pop\n      jump\t// out\n        /* \"#utility.yul\":3633:3772   */\n    tag_74:\n        /* \"#utility.yul\":3679:3684   */\n      0x00\n        /* \"#utility.yul\":3717:3723   */\n      dup2\n        /* \"#utility.yul\":3704:3724   */\n      calldataload\n        /* \"#utility.yul\":3695:3724   */\n      swap1\n      pop\n        /* \"#utility.yul\":3733:3766   */\n      tag_127\n        /* \"#utility.yul\":3760:3765   */\n      dup2\n        /* \"#utility.yul\":3733:3766   */\n      tag_73\n      jump\t// in\n    tag_127:\n        /* \"#utility.yul\":3633:3772   */\n      swap3\n      swap2\n      pop\n      pop\n      jump\t// out\n        /* \"#utility.yul\":3778:4107   */\n    tag_13:\n        /* \"#utility.yul\":3837:3843   */\n      0x00\n        /* \"#utility.yul\":3886:3888   */\n      0x20\n        /* \"#utility.yul\":3874:3883   */\n      dup3\n        /* \"#utility.yul\":3865:3872   */\n      dup5\n        /* \"#utility.yul\":3861:3884   */\n      sub\n        /* \"#utility.yul\":3857:3889   */\n      slt\n        /* \"#utility.yul\":3854:3973   */\n      iszero\n      tag_129\n      jumpi\n        /* \"#utility.yul\":3892:3971   */\n      tag_130\n      tag_59\n      jump\t// in\n    tag_130:\n        /* \"#utility.yul\":3854:3973   */\n    tag_129:\n        /* \"#utility.yul\":4012:4013   */\n      0x00\n        /* \"#utility.yul\":4037:4090   */\n      tag_131\n        /* \"#utility.yul\":4082:4089   */\n      dup5\n        /* \"#utility.yul\":4073:4079   */\n      dup3\n        /* \"#utility.yul\":4062:4071   */\n      dup6\n        /* \"#utility.yul\":4058:4080   */\n      add\n        /* \"#utility.yul\":4037:4090   */\n      tag_74\n      jump\t// in\n    tag_131:\n        /* \"#utility.yul\":4027:4090   */\n      swap2\n      pop\n        /* \"#utility.yul\":3983:4100   */\n      pop\n        /* \"#utility.yul\":3778:4107   */\n      swap3\n      swap2\n      pop\n      pop\n      jump\t// out\n        /* \"#utility.yul\":4113:4212   */\n    tag_75:\n        /* \"#utility.yul\":4165:4171   */\n      0x00\n        /* \"#utility.yul\":4199:4204   */\n      dup2\n        /* \"#utility.yul\":4193:4205   */\n      mload\n        /* \"#utility.yul\":4183:4205   */\n      swap1\n      pop\n        /* \"#utility.yul\":4113:4212   */\n      swap2\n      swap1\n      pop\n      jump\t// out\n        /* \"#utility.yul\":4218:4387   */\n    tag_76:\n        /* \"#utility.yul\":4302:4313   */\n      0x00\n        /* \"#utility.yul\":4336:4342   */\n      dup3\n        /* \"#utility.yul\":4331:4334   */\n      dup3\n        /* \"#utility.yul\":4324:4343   */\n      mstore\n        /* \"#utility.yul\":4376:4380   */\n      0x20\n        /* \"#utility.yul\":4371:4374   */\n      dup3\n        /* \"#utility.yul\":4367:4381   */\n      add\n        /* \"#utility.yul\":4352:4381   */\n      swap1\n      pop\n        /* \"#utility.yul\":4218:4387   */\n      swap3\n      swap2\n      pop\n      pop\n      jump\t// out\n        /* \"#utility.yul\":4393:4532   */\n    tag_77:\n        /* \"#utility.yul\":4482:4488   */\n      dup3\n        /* \"#utility.yul\":4477:4480   */\n      dup2\n        /* \"#utility.yul\":4472:4475   */\n      dup4\n        /* \"#utility.yul\":4466:4489   */\n      mcopy\n        /* \"#utility.yul\":4523:4524   */\n      0x00\n        /* \"#utility.yul\":4514:4520   */\n      dup4\n        /* \"#utility.yul\":4509:4512   */\n      dup4\n        /* \"#utility.yul\":4505:4521   */\n      add\n        /* \"#utility.yul\":4498:4525   */\n      mstore\n        /* \"#utility.yul\":4393:4532   */\n      pop\n      pop\n      pop\n      jump\t// out\n        /* \"#utility.yul\":4538:4915   */\n    tag_78:\n        /* \"#utility.yul\":4626:4629   */\n      0x00\n        /* \"#utility.yul\":4654:4693   */\n      tag_136\n        /* \"#utility.yul\":4687:4692   */\n      dup3\n        /* \"#utility.yul\":4654:4693   */\n      tag_75\n      jump\t// in\n    tag_136:\n        /* \"#utility.yul\":4709:4780   */\n      tag_137\n        /* \"#utility.yul\":4773:4779   */\n      dup2\n        /* \"#utility.yul\":4768:4771   */\n      dup6\n        /* \"#utility.yul\":4709:4780   */\n      tag_76\n      jump\t// in\n    tag_137:\n        /* \"#utility.yul\":4702:4780   */\n      swap4\n      pop\n        /* \"#utility.yul\":4789:4854   */\n      tag_138\n        /* \"#utility.yul\":4847:4853   */\n      dup2\n        /* \"#utility.yul\":4842:4845   */\n      dup6\n        /* \"#utility.yul\":4835:4839   */\n      0x20\n        /* \"#utility.yul\":4828:4833   */\n      dup7\n        /* \"#utility.yul\":4824:4840   */\n      add\n        /* \"#utility.yul\":4789:4854   */\n      tag_77\n      jump\t// in\n    tag_138:\n        /* \"#utility.yul\":4879:4908   */\n      tag_139\n        /* \"#utility.yul\":4901:4907   */\n      dup2\n        /* \"#utility.yul\":4879:4908   */\n      tag_63\n      jump\t// in\n    tag_139:\n        /* \"#utility.yul\":4874:4877   */\n      dup5\n        /* \"#utility.yul\":4870:4909   */\n      add\n        /* \"#utility.yul\":4863:4909   */\n      swap2\n      pop\n        /* \"#utility.yul\":4630:4915   */\n      pop\n        /* \"#utility.yul\":4538:4915   */\n      swap3\n      swap2\n      pop\n      pop\n      jump\t// out\n        /* \"#utility.yul\":4921:5234   */\n    tag_16:\n        /* \"#utility.yul\":5034:5038   */\n      0x00\n        /* \"#utility.yul\":5072:5074   */\n      0x20\n        /* \"#utility.yul\":5061:5070   */\n      dup3\n        /* \"#utility.yul\":5057:5075   */\n      add\n        /* \"#utility.yul\":5049:5075   */\n      swap1\n      pop\n        /* \"#utility.yul\":5121:5130   */\n      dup2\n        /* \"#utility.yul\":5115:5119   */\n      dup2\n        /* \"#utility.yul\":5111:5131   */\n      sub\n        /* \"#utility.yul\":5107:5108   */\n      0x00\n        /* \"#utility.yul\":5096:5105   */\n      dup4\n        /* \"#utility.yul\":5092:5109   */\n      add\n        /* \"#utility.yul\":5085:5132   */\n      mstore\n        /* \"#utility.yul\":5149:5227   */\n      tag_141\n        /* \"#utility.yul\":5222:5226   */\n      dup2\n        /* \"#utility.yul\":5213:5219   */\n      dup5\n        /* \"#utility.yul\":5149:5227   */\n      tag_78\n      jump\t// in\n    tag_141:\n        /* \"#utility.yul\":5141:5227   */\n      swap1\n      pop\n        /* \"#utility.yul\":4921:5234   */\n      swap3\n      swap2\n      pop\n      pop\n      jump\t// out\n        /* \"#utility.yul\":5240:5420   */\n    tag_24:\n        /* \"#utility.yul\":5288:5365   */\n      0x4e487b7100000000000000000000000000000000000000000000000000000000\n        /* \"#utility.yul\":5285:5286   */\n      0x00\n        /* \"#utility.yul\":5278:5366   */\n      mstore\n        /* \"#utility.yul\":5385:5389   */\n      0x32\n        /* \"#utility.yul\":5382:5383   */\n      0x04\n        /* \"#utility.yul\":5375:5390   */\n      mstore\n        /* \"#utility.yul\":5409:5413   */\n      0x24\n        /* \"#utility.yul\":5406:5407   */\n      0x00\n        /* \"#utility.yul\":5399:5414   */\n      revert\n        /* \"#utility.yul\":5426:5606   */\n    tag_79:\n        /* \"#utility.yul\":5474:5551   */\n      0x4e487b7100000000000000000000000000000000000000000000000000000000\n        /* \"#utility.yul\":5471:5472   */\n      0x00\n        /* \"#utility.yul\":5464:5552   */\n      mstore\n        /* \"#utility.yul\":5571:5575   */\n      0x11\n        /* \"#utility.yul\":5568:5569   */\n      0x04\n        /* \"#utility.yul\":5561:5576   */\n      mstore\n        /* \"#utility.yul\":5595:5599   */\n      0x24\n        /* \"#utility.yul\":5592:5593   */\n      0x00\n        /* \"#utility.yul\":5585:5600   */\n      revert\n        /* \"#utility.yul\":5612:6022   */\n    tag_28:\n        /* \"#utility.yul\":5652:5659   */\n      0x00\n        /* \"#utility.yul\":5675:5695   */\n      tag_145\n        /* \"#utility.yul\":5693:5694   */\n      dup3\n        /* \"#utility.yul\":5675:5695   */\n      tag_71\n      jump\t// in\n    tag_145:\n        /* \"#utility.yul\":5670:5695   */\n      swap2\n      pop\n        /* \"#utility.yul\":5709:5729   */\n      tag_146\n        /* \"#utility.yul\":5727:5728   */\n      dup4\n        /* \"#utility.yul\":5709:5729   */\n      tag_71\n      jump\t// in\n    tag_146:\n        /* \"#utility.yul\":5704:5729   */\n      swap3\n      pop\n        /* \"#utility.yul\":5764:5765   */\n      dup3\n        /* \"#utility.yul\":5761:5762   */\n      dup3\n        /* \"#utility.yul\":5757:5766   */\n      mul\n        /* \"#utility.yul\":5786:5816   */\n      tag_147\n        /* \"#utility.yul\":5804:5815   */\n      dup2\n        /* \"#utility.yul\":5786:5816   */\n      tag_71\n      jump\t// in\n    tag_147:\n        /* \"#utility.yul\":5775:5816   */\n      swap2\n      pop\n        /* \"#utility.yul\":5965:5966   */\n      dup3\n        /* \"#utility.yul\":5956:5963   */\n      dup3\n        /* \"#utility.yul\":5952:5967   */\n      div\n        /* \"#utility.yul\":5949:5950   */\n      dup5\n        /* \"#utility.yul\":5946:5968   */\n      eq\n        /* \"#utility.yul\":5926:5927   */\n      dup4\n        /* \"#utility.yul\":5919:5928   */\n      iszero\n        /* \"#utility.yul\":5899:5982   */\n      or\n        /* \"#utility.yul\":5876:6015   */\n      tag_148\n      jumpi\n        /* \"#utility.yul\":5995:6013   */\n      tag_149\n      tag_79\n      jump\t// in\n    tag_149:\n        /* \"#utility.yul\":5876:6015   */\n    tag_148:\n        /* \"#utility.yul\":5660:6022   */\n      pop\n        /* \"#utility.yul\":5612:6022   */\n      swap3\n      swap2\n      pop\n      pop\n      jump\t// out\n        /* \"#utility.yul\":6028:6222   */\n    tag_30:\n        /* \"#utility.yul\":6068:6072   */\n      0x00\n        /* \"#utility.yul\":6088:6108   */\n      tag_151\n        /* \"#utility.yul\":6106:6107   */\n      dup3\n        /* \"#utility.yul\":6088:6108   */\n      tag_71\n      jump\t// in\n    tag_151:\n        /* \"#utility.yul\":6083:6108   */\n      swap2\n      pop\n        /* \"#utility.yul\":6122:6142   */\n      tag_152\n        /* \"#utility.yul\":6140:6141   */\n      dup4\n        /* \"#utility.yul\":6122:6142   */\n      tag_71\n      jump\t// in\n    tag_152:\n        /* \"#utility.yul\":6117:6142   */\n      swap3\n      pop\n        /* \"#utility.yul\":6166:6167   */\n      dup3\n        /* \"#utility.yul\":6163:6164   */\n      dup3\n        /* \"#utility.yul\":6159:6168   */\n      sub\n        /* \"#utility.yul\":6151:6168   */\n      swap1\n      pop\n        /* \"#utility.yul\":6190:6191   */\n      dup2\n        /* \"#utility.yul\":6184:6188   */\n      dup2\n        /* \"#utility.yul\":6181:6192   */\n      gt\n        /* \"#utility.yul\":6178:6215   */\n      iszero\n      tag_153\n      jumpi\n        /* \"#utility.yul\":6195:6213   */\n      tag_154\n      tag_79\n      jump\t// in\n    tag_154:\n        /* \"#utility.yul\":6178:6215   */\n    tag_153:\n        /* \"#utility.yul\":6028:6222   */\n      swap3\n      swap2\n      pop\n      pop\n      jump\t// out\n        /* \"#utility.yul\":6228:6419   */\n    tag_32:\n        /* \"#utility.yul\":6268:6271   */\n      0x00\n        /* \"#utility.yul\":6287:6307   */\n      tag_156\n        /* \"#utility.yul\":6305:6306   */\n      dup3\n        /* \"#utility.yul\":6287:6307   */\n      tag_71\n      jump\t// in\n    tag_156:\n        /* \"#utility.yul\":6282:6307   */\n      swap2\n      pop\n        /* \"#utility.yul\":6321:6341   */\n      tag_157\n        /* \"#utility.yul\":6339:6340   */\n      dup4\n        /* \"#utility.yul\":6321:6341   */\n      tag_71\n      jump\t// in\n    tag_157:\n        /* \"#utility.yul\":6316:6341   */\n      swap3\n      pop\n        /* \"#utility.yul\":6364:6365   */\n      dup3\n        /* \"#utility.yul\":6361:6362   */\n      dup3\n        /* \"#utility.yul\":6357:6366   */\n      add\n        /* \"#utility.yul\":6350:6366   */\n      swap1\n      pop\n        /* \"#utility.yul\":6385:6388   */\n      dup1\n        /* \"#utility.yul\":6382:6383   */\n      dup3\n        /* \"#utility.yul\":6379:6389   */\n      gt\n        /* \"#utility.yul\":6376:6412   */\n      iszero\n      tag_158\n      jumpi\n        /* \"#utility.yul\":6392:6410   */\n      tag_159\n      tag_79\n      jump\t// in\n    tag_159:\n        /* \"#utility.yul\":6376:6412   */\n    tag_158:\n        /* \"#utility.yul\":6228:6419   */\n      swap3\n      swap2\n      pop\n      pop\n      jump\t// out\n        /* \"#utility.yul\":6425:6573   */\n    tag_80:\n        /* \"#utility.yul\":6527:6538   */\n      0x00\n        /* \"#utility.yul\":6564:6567   */\n      dup2\n        /* \"#utility.yul\":6549:6567   */\n      swap1\n      pop\n        /* \"#utility.yul\":6425:6573   */\n      swap3\n      swap2\n      pop\n      pop\n      jump\t// out\n        /* \"#utility.yul\":6579:6969   */\n    tag_81:\n        /* \"#utility.yul\":6685:6688   */\n      0x00\n        /* \"#utility.yul\":6713:6752   */\n      tag_162\n        /* \"#utility.yul\":6746:6751   */\n      dup3\n        /* \"#utility.yul\":6713:6752   */\n      tag_75\n      jump\t// in\n    tag_162:\n        /* \"#utility.yul\":6768:6857   */\n      tag_163\n        /* \"#utility.yul\":6850:6856   */\n      dup2\n        /* \"#utility.yul\":6845:6848   */\n      dup6\n        /* \"#utility.yul\":6768:6857   */\n      tag_80\n      jump\t// in\n    tag_163:\n        /* \"#utility.yul\":6761:6857   */\n      swap4\n      pop\n        /* \"#utility.yul\":6866:6931   */\n      tag_164\n        /* \"#utility.yul\":6924:6930   */\n      dup2\n        /* \"#utility.yul\":6919:6922   */\n      dup6\n        /* \"#utility.yul\":6912:6916   */\n      0x20\n        /* \"#utility.yul\":6905:6910   */\n      dup7\n        /* \"#utility.yul\":6901:6917   */\n      add\n        /* \"#utility.yul\":6866:6931   */\n      tag_77\n      jump\t// in\n    tag_164:\n        /* \"#utility.yul\":6956:6962   */\n      dup1\n        /* \"#utility.yul\":6951:6954   */\n      dup5\n        /* \"#utility.yul\":6947:6963   */\n      add\n        /* \"#utility.yul\":6940:6963   */\n      swap2\n      pop\n        /* \"#utility.yul\":6689:6969   */\n      pop\n        /* \"#utility.yul\":6579:6969   */\n      swap3\n      swap2\n      pop\n      pop\n      jump\t// out\n        /* \"#utility.yul\":6975:7410   */\n    tag_46:\n        /* \"#utility.yul\":7155:7158   */\n      0x00\n        /* \"#utility.yul\":7177:7272   */\n      tag_166\n        /* \"#utility.yul\":7268:7271   */\n      dup3\n        /* \"#utility.yul\":7259:7265   */\n      dup6\n        /* \"#utility.yul\":7177:7272   */\n      tag_81\n      jump\t// in\n    tag_166:\n        /* \"#utility.yul\":7170:7272   */\n      swap2\n      pop\n        /* \"#utility.yul\":7289:7384   */\n      tag_167\n        /* \"#utility.yul\":7380:7383   */\n      dup3\n        /* \"#utility.yul\":7371:7377   */\n      dup5\n        /* \"#utility.yul\":7289:7384   */\n      tag_81\n      jump\t// in\n    tag_167:\n        /* \"#utility.yul\":7282:7384   */\n      swap2\n      pop\n        /* \"#utility.yul\":7401:7404   */\n      dup2\n        /* \"#utility.yul\":7394:7404   */\n      swap1\n      pop\n        /* \"#utility.yul\":6975:7410   */\n      swap4\n      swap3\n      pop\n      pop\n      pop\n      jump\t// out\n\n    auxdata: 0xa2646970667358221220887762d291ed2c08df82bbd67c1e6a1e4d97884d7e78630e38a607bd34ec42d064736f6c634300081a0033\n}\n",
				"bytecode": {
					"linkReferences": {},
					"object": "6080604052348015600e575f80fd5b50610c7f8061001c5f395ff3fe608060405234801561000f575f80fd5b5060043610610034575f3560e01c80633d5924f614610038578063bf5021e314610068575b5f80fd5b610052600480360381019061004d919061099e565b610098565b60405161005f91906109fd565b60405180910390f35b610082600480360381019061007d9190610a40565b610131565b60405161008f9190610acb565b60405180910390f35b5f808290505f805f5b8351811015610125575f6100d18583815181106100c1576100c0610aeb565b5b602001015160f81c60f81b610607565b905082811115610105578260026100e89190610b45565b816100f39190610b86565b846100fe9190610bb9565b9350610114565b80846101119190610bb9565b93505b8092505080806001019150506100a1565b50819350505050919050565b60605f604051806101a0016040528060405180604001604052806103e881526020016040518060400160405280600181526020017f4d000000000000000000000000000000000000000000000000000000000000008152508152508152602001604051806040016040528061038481526020016040518060400160405280600281526020017f434d000000000000000000000000000000000000000000000000000000000000815250815250815260200160405180604001604052806101f481526020016040518060400160405280600181526020017f44000000000000000000000000000000000000000000000000000000000000008152508152508152602001604051806040016040528061019081526020016040518060400160405280600281526020017f434400000000000000000000000000000000000000000000000000000000000081525081525081526020016040518060400160405280606481526020016040518060400160405280600181526020017f430000000000000000000000000000000000000000000000000000000000000081525081525081526020016040518060400160405280605a81526020016040518060400160405280600281526020017f584300000000000000000000000000000000000000000000000000000000000081525081525081526020016040518060400160405280603281526020016040518060400160405280600181526020017f4c0000000000000000000000000000000000000000000000000000000000000081525081525081526020016040518060400160405280602881526020016040518060400160405280600281526020017f584c00000000000000000000000000000000000000000000000000000000000081525081525081526020016040518060400160405280600a81526020016040518060400160405280600181526020017f580000000000000000000000000000000000000000000000000000000000000081525081525081526020016040518060400160405280600981526020016040518060400160405280600281526020017f495800000000000000000000000000000000000000000000000000000000000081525081525081526020016040518060400160405280600581526020016040518060400160405280600181526020017f560000000000000000000000000000000000000000000000000000000000000081525081525081526020016040518060400160405280600481526020016040518060400160405280600281526020017f495600000000000000000000000000000000000000000000000000000000000081525081525081526020016040518060400160405280600181526020016040518060400160405280600181526020017f4900000000000000000000000000000000000000000000000000000000000000815250815250815250905060605f5b600d8110156105fc575b8281600d811061057557610574610aeb565b5b60200201515f015185106105ef57818382600d811061059757610596610aeb565b5b6020020151602001516040516020016105b1929190610c26565b60405160208183030381529060405291508281600d81106105d5576105d4610aeb565b5b60200201515f0151856105e89190610b86565b9450610562565b8080600101915050610558565b508092505050919050565b5f7f4900000000000000000000000000000000000000000000000000000000000000827effffffffffffffffffffffffffffffffffffffffffffffffffffffffffffff19160361065a576001905061084c565b7f5600000000000000000000000000000000000000000000000000000000000000827effffffffffffffffffffffffffffffffffffffffffffffffffffffffffffff1916036106ac576005905061084c565b7f5800000000000000000000000000000000000000000000000000000000000000827effffffffffffffffffffffffffffffffffffffffffffffffffffffffffffff1916036106fe57600a905061084c565b7f4c00000000000000000000000000000000000000000000000000000000000000827effffffffffffffffffffffffffffffffffffffffffffffffffffffffffffff191603610750576032905061084c565b7f4300000000000000000000000000000000000000000000000000000000000000827effffffffffffffffffffffffffffffffffffffffffffffffffffffffffffff1916036107a2576064905061084c565b7f4400000000000000000000000000000000000000000000000000000000000000827effffffffffffffffffffffffffffffffffffffffffffffffffffffffffffff1916036107f5576101f4905061084c565b7f4d00000000000000000000000000000000000000000000000000000000000000827effffffffffffffffffffffffffffffffffffffffffffffffffffffffffffff191603610848576103e8905061084c565b5f90505b919050565b5f604051905090565b5f80fd5b5f80fd5b5f80fd5b5f80fd5b5f601f19601f8301169050919050565b7f4e487b71000000000000000000000000000000000000000000000000000000005f52604160045260245ffd5b6108b08261086a565b810181811067ffffffffffffffff821117156108cf576108ce61087a565b5b80604052505050565b5f6108e1610851565b90506108ed82826108a7565b919050565b5f67ffffffffffffffff82111561090c5761090b61087a565b5b6109158261086a565b9050602081019050919050565b828183375f83830152505050565b5f61094261093d846108f2565b6108d8565b90508281526020810184848401111561095e5761095d610866565b5b610969848285610922565b509392505050565b5f82601f83011261098557610984610862565b5b8135610995848260208601610930565b91505092915050565b5f602082840312156109b3576109b261085a565b5b5f82013567ffffffffffffffff8111156109d0576109cf61085e565b5b6109dc84828501610971565b91505092915050565b5f819050919050565b6109f7816109e5565b82525050565b5f602082019050610a105f8301846109ee565b92915050565b610a1f816109e5565b8114610a29575f80fd5b50565b5f81359050610a3a81610a16565b92915050565b5f60208284031215610a5557610a5461085a565b5b5f610a6284828501610a2c565b91505092915050565b5f81519050919050565b5f82825260208201905092915050565b8281835e5f83830152505050565b5f610a9d82610a6b565b610aa78185610a75565b9350610ab7818560208601610a85565b610ac08161086a565b840191505092915050565b5f6020820190508181035f830152610ae38184610a93565b905092915050565b7f4e487b71000000000000000000000000000000000000000000000000000000005f52603260045260245ffd5b7f4e487b71000000000000000000000000000000000000000000000000000000005f52601160045260245ffd5b5f610b4f826109e5565b9150610b5a836109e5565b9250828202610b68816109e5565b91508282048414831517610b7f57610b7e610b18565b5b5092915050565b5f610b90826109e5565b9150610b9b836109e5565b9250828203905081811115610bb357610bb2610b18565b5b92915050565b5f610bc3826109e5565b9150610bce836109e5565b9250828201905080821115610be657610be5610b18565b5b92915050565b5f81905092915050565b5f610c0082610a6b565b610c0a8185610bec565b9350610c1a818560208601610a85565b80840191505092915050565b5f610c318285610bf6565b9150610c3d8284610bf6565b9150819050939250505056fea2646970667358221220887762d291ed2c08df82bbd67c1e6a1e4d97884d7e78630e38a607bd34ec42d064736f6c634300081a0033",
					"opcodes": "PUSH1 0x80 PUSH1 0x40 MSTORE CALLVALUE DUP1 ISZERO PUSH1 0xE JUMPI PUSH0 DUP1 REVERT JUMPDEST POP PUSH2 0xC7F DUP1 PUSH2 0x1C PUSH0 CODECOPY PUSH0 RETURN INVALID PUSH1 0x80 PUSH1 0x40 MSTORE CALLVALUE DUP1 ISZERO PUSH2 0xF JUMPI PUSH0 DUP1 REVERT JUMPDEST POP PUSH1 0x4 CALLDATASIZE LT PUSH2 0x34 JUMPI PUSH0 CALLDATALOAD PUSH1 0xE0 SHR DUP1 PUSH4 0x3D5924F6 EQ PUSH2 0x38 JUMPI DUP1 PUSH4 0xBF5021E3 EQ PUSH2 0x68 JUMPI JUMPDEST PUSH0 DUP1 REVERT JUMPDEST PUSH2 0x52 PUSH1 0x4 DUP1 CALLDATASIZE SUB DUP2 ADD SWAP1 PUSH2 0x4D SWAP2 SWAP1 PUSH2 0x99E JUMP JUMPDEST PUSH2 0x98 JUMP JUMPDEST PUSH1 0x40 MLOAD PUSH2 0x5F SWAP2 SWAP1 PUSH2 0x9FD JUMP JUMPDEST PUSH1 0x40 MLOAD DUP1 SWAP2 SUB SWAP1 RETURN JUMPDEST PUSH2 0x82 PUSH1 0x4 DUP1 CALLDATASIZE SUB DUP2 ADD SWAP1 PUSH2 0x7D SWAP2 SWAP1 PUSH2 0xA40 JUMP JUMPDEST PUSH2 0x131 JUMP JUMPDEST PUSH1 0x40 MLOAD PUSH2 0x8F SWAP2 SWAP1 PUSH2 0xACB JUMP JUMPDEST PUSH1 0x40 MLOAD DUP1 SWAP2 SUB SWAP1 RETURN JUMPDEST PUSH0 DUP1 DUP3 SWAP1 POP PUSH0 DUP1 PUSH0 JUMPDEST DUP4 MLOAD DUP2 LT ISZERO PUSH2 0x125 JUMPI PUSH0 PUSH2 0xD1 DUP6 DUP4 DUP2 MLOAD DUP2 LT PUSH2 0xC1 JUMPI PUSH2 0xC0 PUSH2 0xAEB JUMP JUMPDEST JUMPDEST PUSH1 0x20 ADD ADD MLOAD PUSH1 0xF8 SHR PUSH1 0xF8 SHL PUSH2 0x607 JUMP JUMPDEST SWAP1 POP DUP3 DUP2 GT ISZERO PUSH2 0x105 JUMPI DUP3 PUSH1 0x2 PUSH2 0xE8 SWAP2 SWAP1 PUSH2 0xB45 JUMP JUMPDEST DUP2 PUSH2 0xF3 SWAP2 SWAP1 PUSH2 0xB86 JUMP JUMPDEST DUP5 PUSH2 0xFE SWAP2 SWAP1 PUSH2 0xBB9 JUMP JUMPDEST SWAP4 POP PUSH2 0x114 JUMP JUMPDEST DUP1 DUP5 PUSH2 0x111 SWAP2 SWAP1 PUSH2 0xBB9 JUMP JUMPDEST SWAP4 POP JUMPDEST DUP1 SWAP3 POP POP DUP1 DUP1 PUSH1 0x1 ADD SWAP2 POP POP PUSH2 0xA1 JUMP JUMPDEST POP DUP2 SWAP4 POP POP POP POP SWAP2 SWAP1 POP JUMP JUMPDEST PUSH1 0x60 PUSH0 PUSH1 0x40 MLOAD DUP1 PUSH2 0x1A0 ADD PUSH1 0x40 MSTORE DUP1 PUSH1 0x40 MLOAD DUP1 PUSH1 0x40 ADD PUSH1 0x40 MSTORE DUP1 PUSH2 0x3E8 DUP2 MSTORE PUSH1 0x20 ADD PUSH1 0x40 MLOAD DUP1 PUSH1 0x40 ADD PUSH1 0x40 MSTORE DUP1 PUSH1 0x1 DUP2 MSTORE PUSH1 0x20 ADD PUSH32 0x4D00000000000000000000000000000000000000000000000000000000000000 DUP2 MSTORE POP DUP2 MSTORE POP DUP2 MSTORE PUSH1 0x20 ADD PUSH1 0x40 MLOAD DUP1 PUSH1 0x40 ADD PUSH1 0x40 MSTORE DUP1 PUSH2 0x384 DUP2 MSTORE PUSH1 0x20 ADD PUSH1 0x40 MLOAD DUP1 PUSH1 0x40 ADD PUSH1 0x40 MSTORE DUP1 PUSH1 0x2 DUP2 MSTORE PUSH1 0x20 ADD PUSH32 0x434D000000000000000000000000000000000000000000000000000000000000 DUP2 MSTORE POP DUP2 MSTORE POP DUP2 MSTORE PUSH1 0x20 ADD PUSH1 0x40 MLOAD DUP1 PUSH1 0x40 ADD PUSH1 0x40 MSTORE DUP1 PUSH2 0x1F4 DUP2 MSTORE PUSH1 0x20 ADD PUSH1 0x40 MLOAD DUP1 PUSH1 0x40 ADD PUSH1 0x40 MSTORE DUP1 PUSH1 0x1 DUP2 MSTORE PUSH1 0x20 ADD PUSH32 0x4400000000000000000000000000000000000000000000000000000000000000 DUP2 MSTORE POP DUP2 MSTORE POP DUP2 MSTORE PUSH1 0x20 ADD PUSH1 0x40 MLOAD DUP1 PUSH1 0x40 ADD PUSH1 0x40 MSTORE DUP1 PUSH2 0x190 DUP2 MSTORE PUSH1 0x20 ADD PUSH1 0x40 MLOAD DUP1 PUSH1 0x40 ADD PUSH1 0x40 MSTORE DUP1 PUSH1 0x2 DUP2 MSTORE PUSH1 0x20 ADD PUSH32 0x4344000000000000000000000000000000000000000000000000000000000000 DUP2 MSTORE POP DUP2 MSTORE POP DUP2 MSTORE PUSH1 0x20 ADD PUSH1 0x40 MLOAD DUP1 PUSH1 0x40 ADD PUSH1 0x40 MSTORE DUP1 PUSH1 0x64 DUP2 MSTORE PUSH1 0x20 ADD PUSH1 0x40 MLOAD DUP1 PUSH1 0x40 ADD PUSH1 0x40 MSTORE DUP1 PUSH1 0x1 DUP2 MSTORE PUSH1 0x20 ADD PUSH32 0x4300000000000000000000000000000000000000000000000000000000000000 DUP2 MSTORE POP DUP2 MSTORE POP DUP2 MSTORE PUSH1 0x20 ADD PUSH1 0x40 MLOAD DUP1 PUSH1 0x40 ADD PUSH1 0x40 MSTORE DUP1 PUSH1 0x5A DUP2 MSTORE PUSH1 0x20 ADD PUSH1 0x40 MLOAD DUP1 PUSH1 0x40 ADD PUSH1 0x40 MSTORE DUP1 PUSH1 0x2 DUP2 MSTORE PUSH1 0x20 ADD PUSH32 0x5843000000000000000000000000000000000000000000000000000000000000 DUP2 MSTORE POP DUP2 MSTORE POP DUP2 MSTORE PUSH1 0x20 ADD PUSH1 0x40 MLOAD DUP1 PUSH1 0x40 ADD PUSH1 0x40 MSTORE DUP1 PUSH1 0x32 DUP2 MSTORE PUSH1 0x20 ADD PUSH1 0x40 MLOAD DUP1 PUSH1 0x40 ADD PUSH1 0x40 MSTORE DUP1 PUSH1 0x1 DUP2 MSTORE PUSH1 0x20 ADD PUSH32 0x4C00000000000000000000000000000000000000000000000000000000000000 DUP2 MSTORE POP DUP2 MSTORE POP DUP2 MSTORE PUSH1 0x20 ADD PUSH1 0x40 MLOAD DUP1 PUSH1 0x40 ADD PUSH1 0x40 MSTORE DUP1 PUSH1 0x28 DUP2 MSTORE PUSH1 0x20 ADD PUSH1 0x40 MLOAD DUP1 PUSH1 0x40 ADD PUSH1 0x40 MSTORE DUP1 PUSH1 0x2 DUP2 MSTORE PUSH1 0x20 ADD PUSH32 0x584C000000000000000000000000000000000000000000000000000000000000 DUP2 MSTORE POP DUP2 MSTORE POP DUP2 MSTORE PUSH1 0x20 ADD PUSH1 0x40 MLOAD DUP1 PUSH1 0x40 ADD PUSH1 0x40 MSTORE DUP1 PUSH1 0xA DUP2 MSTORE PUSH1 0x20 ADD PUSH1 0x40 MLOAD DUP1 PUSH1 0x40 ADD PUSH1 0x40 MSTORE DUP1 PUSH1 0x1 DUP2 MSTORE PUSH1 0x20 ADD PUSH32 0x5800000000000000000000000000000000000000000000000000000000000000 DUP2 MSTORE POP DUP2 MSTORE POP DUP2 MSTORE PUSH1 0x20 ADD PUSH1 0x40 MLOAD DUP1 PUSH1 0x40 ADD PUSH1 0x40 MSTORE DUP1 PUSH1 0x9 DUP2 MSTORE PUSH1 0x20 ADD PUSH1 0x40 MLOAD DUP1 PUSH1 0x40 ADD PUSH1 0x40 MSTORE DUP1 PUSH1 0x2 DUP2 MSTORE PUSH1 0x20 ADD PUSH32 0x4958000000000000000000000000000000000000000000000000000000000000 DUP2 MSTORE POP DUP2 MSTORE POP DUP2 MSTORE PUSH1 0x20 ADD PUSH1 0x40 MLOAD DUP1 PUSH1 0x40 ADD PUSH1 0x40 MSTORE DUP1 PUSH1 0x5 DUP2 MSTORE PUSH1 0x20 ADD PUSH1 0x40 MLOAD DUP1 PUSH1 0x40 ADD PUSH1 0x40 MSTORE DUP1 PUSH1 0x1 DUP2 MSTORE PUSH1 0x20 ADD PUSH32 0x5600000000000000000000000000000000000000000000000000000000000000 DUP2 MSTORE POP DUP2 MSTORE POP DUP2 MSTORE PUSH1 0x20 ADD PUSH1 0x40 MLOAD DUP1 PUSH1 0x40 ADD PUSH1 0x40 MSTORE DUP1 PUSH1 0x4 DUP2 MSTORE PUSH1 0x20 ADD PUSH1 0x40 MLOAD DUP1 PUSH1 0x40 ADD PUSH1 0x40 MSTORE DUP1 PUSH1 0x2 DUP2 MSTORE PUSH1 0x20 ADD PUSH32 0x4956000000000000000000000000000000000000000000000000000000000000 DUP2 MSTORE POP DUP2 MSTORE POP DUP2 MSTORE PUSH1 0x20 ADD PUSH1 0x40 MLOAD DUP1 PUSH1 0x40 ADD PUSH1 0x40 MSTORE DUP1 PUSH1 0x1 DUP2 MSTORE PUSH1 0x20 ADD PUSH1 0x40 MLOAD DUP1 PUSH1 0x40 ADD PUSH1 0x40 MSTORE DUP1 PUSH1 0x1 DUP2 MSTORE PUSH1 0x20 ADD PUSH32 0x4900000000000000000000000000000000000000000000000000000000000000 DUP2 MSTORE POP DUP2 MSTORE POP DUP2 MSTORE POP SWAP1 POP PUSH1 0x60 PUSH0 JUMPDEST PUSH1 0xD DUP2 LT ISZERO PUSH2 0x5FC JUMPI JUMPDEST DUP3 DUP2 PUSH1 0xD DUP2 LT PUSH2 0x575 JUMPI PUSH2 0x574 PUSH2 0xAEB JUMP JUMPDEST JUMPDEST PUSH1 0x20 MUL ADD MLOAD PUSH0 ADD MLOAD DUP6 LT PUSH2 0x5EF JUMPI DUP2 DUP4 DUP3 PUSH1 0xD DUP2 LT PUSH2 0x597 JUMPI PUSH2 0x596 PUSH2 0xAEB JUMP JUMPDEST JUMPDEST PUSH1 0x20 MUL ADD MLOAD PUSH1 0x20 ADD MLOAD PUSH1 0x40 MLOAD PUSH1 0x20 ADD PUSH2 0x5B1 SWAP3 SWAP2 SWAP1 PUSH2 0xC26 JUMP JUMPDEST PUSH1 0x40 MLOAD PUSH1 0x20 DUP2 DUP4 SUB SUB DUP2 MSTORE SWAP1 PUSH1 0x40 MSTORE SWAP2 POP DUP3 DUP2 PUSH1 0xD DUP2 LT PUSH2 0x5D5 JUMPI PUSH2 0x5D4 PUSH2 0xAEB JUMP JUMPDEST JUMPDEST PUSH1 0x20 MUL ADD MLOAD PUSH0 ADD MLOAD DUP6 PUSH2 0x5E8 SWAP2 SWAP1 PUSH2 0xB86 JUMP JUMPDEST SWAP5 POP PUSH2 0x562 JUMP JUMPDEST DUP1 DUP1 PUSH1 0x1 ADD SWAP2 POP POP PUSH2 0x558 JUMP JUMPDEST POP DUP1 SWAP3 POP POP POP SWAP2 SWAP1 POP JUMP JUMPDEST PUSH0 PUSH32 0x4900000000000000000000000000000000000000000000000000000000000000 DUP3 PUSH31 0xFFFFFFFFFFFFFFFFFFFFFFFFFFFFFFFFFFFFFFFFFFFFFFFFFFFFFFFFFFFFFF NOT AND SUB PUSH2 0x65A JUMPI PUSH1 0x1 SWAP1 POP PUSH2 0x84C JUMP JUMPDEST PUSH32 0x5600000000000000000000000000000000000000000000000000000000000000 DUP3 PUSH31 0xFFFFFFFFFFFFFFFFFFFFFFFFFFFFFFFFFFFFFFFFFFFFFFFFFFFFFFFFFFFFFF NOT AND SUB PUSH2 0x6AC JUMPI PUSH1 0x5 SWAP1 POP PUSH2 0x84C JUMP JUMPDEST PUSH32 0x5800000000000000000000000000000000000000000000000000000000000000 DUP3 PUSH31 0xFFFFFFFFFFFFFFFFFFFFFFFFFFFFFFFFFFFFFFFFFFFFFFFFFFFFFFFFFFFFFF NOT AND SUB PUSH2 0x6FE JUMPI PUSH1 0xA SWAP1 POP PUSH2 0x84C JUMP JUMPDEST PUSH32 0x4C00000000000000000000000000000000000000000000000000000000000000 DUP3 PUSH31 0xFFFFFFFFFFFFFFFFFFFFFFFFFFFFFFFFFFFFFFFFFFFFFFFFFFFFFFFFFFFFFF NOT AND SUB PUSH2 0x750 JUMPI PUSH1 0x32 SWAP1 POP PUSH2 0x84C JUMP JUMPDEST PUSH32 0x4300000000000000000000000000000000000000000000000000000000000000 DUP3 PUSH31 0xFFFFFFFFFFFFFFFFFFFFFFFFFFFFFFFFFFFFFFFFFFFFFFFFFFFFFFFFFFFFFF NOT AND SUB PUSH2 0x7A2 JUMPI PUSH1 0x64 SWAP1 POP PUSH2 0x84C JUMP JUMPDEST PUSH32 0x4400000000000000000000000000000000000000000000000000000000000000 DUP3 PUSH31 0xFFFFFFFFFFFFFFFFFFFFFFFFFFFFFFFFFFFFFFFFFFFFFFFFFFFFFFFFFFFFFF NOT AND SUB PUSH2 0x7F5 JUMPI PUSH2 0x1F4 SWAP1 POP PUSH2 0x84C JUMP JUMPDEST PUSH32 0x4D00000000000000000000000000000000000000000000000000000000000000 DUP3 PUSH31 0xFFFFFFFFFFFFFFFFFFFFFFFFFFFFFFFFFFFFFFFFFFFFFFFFFFFFFFFFFFFFFF NOT AND SUB PUSH2 0x848 JUMPI PUSH2 0x3E8 SWAP1 POP PUSH2 0x84C JUMP JUMPDEST PUSH0 SWAP1 POP JUMPDEST SWAP2 SWAP1 POP JUMP JUMPDEST PUSH0 PUSH1 0x40 MLOAD SWAP1 POP SWAP1 JUMP JUMPDEST PUSH0 DUP1 REVERT JUMPDEST PUSH0 DUP1 REVERT JUMPDEST PUSH0 DUP1 REVERT JUMPDEST PUSH0 DUP1 REVERT JUMPDEST PUSH0 PUSH1 0x1F NOT PUSH1 0x1F DUP4 ADD AND SWAP1 POP SWAP2 SWAP1 POP JUMP JUMPDEST PUSH32 0x4E487B7100000000000000000000000000000000000000000000000000000000 PUSH0 MSTORE PUSH1 0x41 PUSH1 0x4 MSTORE PUSH1 0x24 PUSH0 REVERT JUMPDEST PUSH2 0x8B0 DUP3 PUSH2 0x86A JUMP JUMPDEST DUP2 ADD DUP2 DUP2 LT PUSH8 0xFFFFFFFFFFFFFFFF DUP3 GT OR ISZERO PUSH2 0x8CF JUMPI PUSH2 0x8CE PUSH2 0x87A JUMP JUMPDEST JUMPDEST DUP1 PUSH1 0x40 MSTORE POP POP POP JUMP JUMPDEST PUSH0 PUSH2 0x8E1 PUSH2 0x851 JUMP JUMPDEST SWAP1 POP PUSH2 0x8ED DUP3 DUP3 PUSH2 0x8A7 JUMP JUMPDEST SWAP2 SWAP1 POP JUMP JUMPDEST PUSH0 PUSH8 0xFFFFFFFFFFFFFFFF DUP3 GT ISZERO PUSH2 0x90C JUMPI PUSH2 0x90B PUSH2 0x87A JUMP JUMPDEST JUMPDEST PUSH2 0x915 DUP3 PUSH2 0x86A JUMP JUMPDEST SWAP1 POP PUSH1 0x20 DUP2 ADD SWAP1 POP SWAP2 SWAP1 POP JUMP JUMPDEST DUP3 DUP2 DUP4 CALLDATACOPY PUSH0 DUP4 DUP4 ADD MSTORE POP POP POP JUMP JUMPDEST PUSH0 PUSH2 0x942 PUSH2 0x93D DUP5 PUSH2 0x8F2 JUMP JUMPDEST PUSH2 0x8D8 JUMP JUMPDEST SWAP1 POP DUP3 DUP2 MSTORE PUSH1 0x20 DUP2 ADD DUP5 DUP5 DUP5 ADD GT ISZERO PUSH2 0x95E JUMPI PUSH2 0x95D PUSH2 0x866 JUMP JUMPDEST JUMPDEST PUSH2 0x969 DUP5 DUP3 DUP6 PUSH2 0x922 JUMP JUMPDEST POP SWAP4 SWAP3 POP POP POP JUMP JUMPDEST PUSH0 DUP3 PUSH1 0x1F DUP4 ADD SLT PUSH2 0x985 JUMPI PUSH2 0x984 PUSH2 0x862 JUMP JUMPDEST JUMPDEST DUP2 CALLDATALOAD PUSH2 0x995 DUP5 DUP3 PUSH1 0x20 DUP7 ADD PUSH2 0x930 JUMP JUMPDEST SWAP2 POP POP SWAP3 SWAP2 POP POP JUMP JUMPDEST PUSH0 PUSH1 0x20 DUP3 DUP5 SUB SLT ISZERO PUSH2 0x9B3 JUMPI PUSH2 0x9B2 PUSH2 0x85A JUMP JUMPDEST JUMPDEST PUSH0 DUP3 ADD CALLDATALOAD PUSH8 0xFFFFFFFFFFFFFFFF DUP2 GT ISZERO PUSH2 0x9D0 JUMPI PUSH2 0x9CF PUSH2 0x85E JUMP JUMPDEST JUMPDEST PUSH2 0x9DC DUP5 DUP3 DUP6 ADD PUSH2 0x971 JUMP JUMPDEST SWAP2 POP POP SWAP3 SWAP2 POP POP JUMP JUMPDEST PUSH0 DUP2 SWAP1 POP SWAP2 SWAP1 POP JUMP JUMPDEST PUSH2 0x9F7 DUP2 PUSH2 0x9E5 JUMP JUMPDEST DUP3 MSTORE POP POP JUMP JUMPDEST PUSH0 PUSH1 0x20 DUP3 ADD SWAP1 POP PUSH2 0xA10 PUSH0 DUP4 ADD DUP5 PUSH2 0x9EE JUMP JUMPDEST SWAP3 SWAP2 POP POP JUMP JUMPDEST PUSH2 0xA1F DUP2 PUSH2 0x9E5 JUMP JUMPDEST DUP2 EQ PUSH2 0xA29 JUMPI PUSH0 DUP1 REVERT JUMPDEST POP JUMP JUMPDEST PUSH0 DUP2 CALLDATALOAD SWAP1 POP PUSH2 0xA3A DUP2 PUSH2 0xA16 JUMP JUMPDEST SWAP3 SWAP2 POP POP JUMP JUMPDEST PUSH0 PUSH1 0x20 DUP3 DUP5 SUB SLT ISZERO PUSH2 0xA55 JUMPI PUSH2 0xA54 PUSH2 0x85A JUMP JUMPDEST JUMPDEST PUSH0 PUSH2 0xA62 DUP5 DUP3 DUP6 ADD PUSH2 0xA2C JUMP JUMPDEST SWAP2 POP POP SWAP3 SWAP2 POP POP JUMP JUMPDEST PUSH0 DUP2 MLOAD SWAP1 POP SWAP2 SWAP1 POP JUMP JUMPDEST PUSH0 DUP3 DUP3 MSTORE PUSH1 0x20 DUP3 ADD SWAP1 POP SWAP3 SWAP2 POP POP JUMP JUMPDEST DUP3 DUP2 DUP4 MCOPY PUSH0 DUP4 DUP4 ADD MSTORE POP POP POP JUMP JUMPDEST PUSH0 PUSH2 0xA9D DUP3 PUSH2 0xA6B JUMP JUMPDEST PUSH2 0xAA7 DUP2 DUP6 PUSH2 0xA75 JUMP JUMPDEST SWAP4 POP PUSH2 0xAB7 DUP2 DUP6 PUSH1 0x20 DUP7 ADD PUSH2 0xA85 JUMP JUMPDEST PUSH2 0xAC0 DUP2 PUSH2 0x86A JUMP JUMPDEST DUP5 ADD SWAP2 POP POP SWAP3 SWAP2 POP POP JUMP JUMPDEST PUSH0 PUSH1 0x20 DUP3 ADD SWAP1 POP DUP2 DUP2 SUB PUSH0 DUP4 ADD MSTORE PUSH2 0xAE3 DUP2 DUP5 PUSH2 0xA93 JUMP JUMPDEST SWAP1 POP SWAP3 SWAP2 POP POP JUMP JUMPDEST PUSH32 0x4E487B7100000000000000000000000000000000000000000000000000000000 PUSH0 MSTORE PUSH1 0x32 PUSH1 0x4 MSTORE PUSH1 0x24 PUSH0 REVERT JUMPDEST PUSH32 0x4E487B7100000000000000000000000000000000000000000000000000000000 PUSH0 MSTORE PUSH1 0x11 PUSH1 0x4 MSTORE PUSH1 0x24 PUSH0 REVERT JUMPDEST PUSH0 PUSH2 0xB4F DUP3 PUSH2 0x9E5 JUMP JUMPDEST SWAP2 POP PUSH2 0xB5A DUP4 PUSH2 0x9E5 JUMP JUMPDEST SWAP3 POP DUP3 DUP3 MUL PUSH2 0xB68 DUP2 PUSH2 0x9E5 JUMP JUMPDEST SWAP2 POP DUP3 DUP3 DIV DUP5 EQ DUP4 ISZERO OR PUSH2 0xB7F JUMPI PUSH2 0xB7E PUSH2 0xB18 JUMP JUMPDEST JUMPDEST POP SWAP3 SWAP2 POP POP JUMP JUMPDEST PUSH0 PUSH2 0xB90 DUP3 PUSH2 0x9E5 JUMP JUMPDEST SWAP2 POP PUSH2 0xB9B DUP4 PUSH2 0x9E5 JUMP JUMPDEST SWAP3 POP DUP3 DUP3 SUB SWAP1 POP DUP2 DUP2 GT ISZERO PUSH2 0xBB3 JUMPI PUSH2 0xBB2 PUSH2 0xB18 JUMP JUMPDEST JUMPDEST SWAP3 SWAP2 POP POP JUMP JUMPDEST PUSH0 PUSH2 0xBC3 DUP3 PUSH2 0x9E5 JUMP JUMPDEST SWAP2 POP PUSH2 0xBCE DUP4 PUSH2 0x9E5 JUMP JUMPDEST SWAP3 POP DUP3 DUP3 ADD SWAP1 POP DUP1 DUP3 GT ISZERO PUSH2 0xBE6 JUMPI PUSH2 0xBE5 PUSH2 0xB18 JUMP JUMPDEST JUMPDEST SWAP3 SWAP2 POP POP JUMP JUMPDEST PUSH0 DUP2 SWAP1 POP SWAP3 SWAP2 POP POP JUMP JUMPDEST PUSH0 PUSH2 0xC00 DUP3 PUSH2 0xA6B JUMP JUMPDEST PUSH2 0xC0A DUP2 DUP6 PUSH2 0xBEC JUMP JUMPDEST SWAP4 POP PUSH2 0xC1A DUP2 DUP6 PUSH1 0x20 DUP7 ADD PUSH2 0xA85 JUMP JUMPDEST DUP1 DUP5 ADD SWAP2 POP POP SWAP3 SWAP2 POP POP JUMP JUMPDEST PUSH0 PUSH2 0xC31 DUP3 DUP6 PUSH2 0xBF6 JUMP JUMPDEST SWAP2 POP PUSH2 0xC3D DUP3 DUP5 PUSH2 0xBF6 JUMP JUMPDEST SWAP2 POP DUP2 SWAP1 POP SWAP4 SWAP3 POP POP POP JUMP INVALID LOG2 PUSH5 0x6970667358 0x22 SLT KECCAK256 DUP9 PUSH24 0x62D291ED2C08DF82BBD67C1E6A1E4D97884D7E78630E38A6 SMOD 0xBD CALLVALUE 0xEC TIMESTAMP 0xD0 PUSH5 0x736F6C6343 STOP ADDMOD BYTE STOP CALLER "
				},
				"gasEstimates": {
					"creation": {
						"codeDepositCost": "639800",
						"executionCost": "668",
						"totalCost": "640468"
					},
					"external": {
						"romanToUint(string)": "infinite",
						"uintToRoman(uint256)": "infinite"
					},
					"internal": {
						"getValue(bytes1)": "262"
					}
				},
				"methodIdentifiers": {
					"romanToUint(string)": "3d5924f6",
					"uintToRoman(uint256)": "bf5021e3"
				}
			},
			"storageLayout": {
				"storage": [],
				"types": null
			},
			"userdoc": {
				"kind": "user",
				"methods": {},
				"version": 1
			}
		}
	}
}